{"abi":[{"type":"function","name":"FEE_TIER","inputs":[],"outputs":[{"name":"feeTier_","type":"uint24","internalType":"uint24"}],"stateMutability":"view"},{"type":"function","name":"INIT_SLOT","inputs":[],"outputs":[{"name":"","type":"bytes32","internalType":"bytes32"}],"stateMutability":"view"},{"type":"function","name":"LABEL","inputs":[],"outputs":[{"name":"","type":"bytes32","internalType":"bytes32"}],"stateMutability":"view"},{"type":"function","name":"TICK_SPACING","inputs":[],"outputs":[{"name":"tickSpacing_","type":"int24","internalType":"int24"}],"stateMutability":"view"},{"type":"function","name":"VERSION","inputs":[],"outputs":[{"name":"","type":"uint8","internalType":"uint8"}],"stateMutability":"view"},{"type":"function","name":"addLiquidityTo","inputs":[{"name":"_range","type":"uint8","internalType":"enum Range"},{"name":"_liquidity","type":"uint128","internalType":"uint128"}],"outputs":[{"name":"bTokensAdded_","type":"uint256","internalType":"uint256"},{"name":"reservesAdded_","type":"uint256","internalType":"uint256"},{"name":"liquidityFinal_","type":"uint128","internalType":"uint128"}],"stateMutability":"nonpayable"},{"type":"function","name":"addReservesTo","inputs":[{"name":"_range","type":"uint8","internalType":"enum Range"},{"name":"_reserves","type":"uint256","internalType":"uint256"}],"outputs":[{"name":"bTokensAdded_","type":"uint256","internalType":"uint256"},{"name":"reservesAdded_","type":"uint256","internalType":"uint256"},{"name":"liquidityFinal_","type":"uint128","internalType":"uint128"}],"stateMutability":"nonpayable"},{"type":"function","name":"adjustFees","inputs":[{"name":"_bTokenFees","type":"uint256","internalType":"uint256"},{"name":"_reserveFees","type":"uint256","internalType":"uint256"},{"name":"_add","type":"bool","internalType":"bool"}],"outputs":[],"stateMutability":"nonpayable"},{"type":"function","name":"bToken","inputs":[],"outputs":[{"name":"bToken_","type":"address","internalType":"contract BToken"}],"stateMutability":"view"},{"type":"function","name":"bTokenFees","inputs":[],"outputs":[{"name":"bTokenFees_","type":"uint256","internalType":"uint256"}],"stateMutability":"view"},{"type":"function","name":"configureDependencies","inputs":[],"outputs":[{"name":"","type":"bytes32[]","internalType":"bytes32[]"}],"stateMutability":"nonpayable"},{"type":"function","name":"getActiveTS","inputs":[],"outputs":[{"name":"activeTS_","type":"int24","internalType":"int24"}],"stateMutability":"view"},{"type":"function","name":"getBalancesForLiquidity","inputs":[{"name":"_sqrtPriceL","type":"uint160","internalType":"uint160"},{"name":"_sqrtPriceU","type":"uint160","internalType":"uint160"},{"name":"_liquidity","type":"uint128","internalType":"uint128"}],"outputs":[{"name":"bTokens_","type":"uint256","internalType":"uint256"},{"name":"reserves_","type":"uint256","internalType":"uint256"}],"stateMutability":"view"},{"type":"function","name":"getBaselineValue","inputs":[],"outputs":[{"name":"","type":"uint256","internalType":"uint256"}],"stateMutability":"view"},{"type":"function","name":"getCapacityForLiquidity","inputs":[{"name":"_sqrtPriceL","type":"uint160","internalType":"uint160"},{"name":"_sqrtPriceU","type":"uint160","internalType":"uint160"},{"name":"_liquidity","type":"uint128","internalType":"uint128"},{"name":"_sqrtPriceA","type":"uint160","internalType":"uint160"}],"outputs":[{"name":"capacity_","type":"uint256","internalType":"uint256"}],"stateMutability":"pure"},{"type":"function","name":"getCapacityForReserves","inputs":[{"name":"_sqrtPriceL","type":"uint160","internalType":"uint160"},{"name":"_sqrtPriceU","type":"uint160","internalType":"uint160"},{"name":"_reserves","type":"uint256","internalType":"uint256"}],"outputs":[{"name":"capacity_","type":"uint256","internalType":"uint256"}],"stateMutability":"view"},{"type":"function","name":"getCapacityForReservesAtPrice","inputs":[{"name":"_sqrtPriceL","type":"uint160","internalType":"uint160"},{"name":"_sqrtPriceU","type":"uint160","internalType":"uint160"},{"name":"_reserves","type":"uint256","internalType":"uint256"},{"name":"_targetSqrtPrice","type":"uint160","internalType":"uint160"}],"outputs":[{"name":"capacity_","type":"uint256","internalType":"uint256"}],"stateMutability":"view"},{"type":"function","name":"getLiquidity","inputs":[{"name":"_range","type":"uint8","internalType":"enum Range"}],"outputs":[{"name":"liquidity_","type":"uint128","internalType":"uint128"}],"stateMutability":"view"},{"type":"function","name":"getLiquidityForReserves","inputs":[{"name":"_sqrtPriceL","type":"uint160","internalType":"uint160"},{"name":"_sqrtPriceU","type":"uint160","internalType":"uint160"},{"name":"_reserves","type":"uint256","internalType":"uint256"},{"name":"_sqrtPriceA","type":"uint160","internalType":"uint160"}],"outputs":[{"name":"liquidity_","type":"uint128","internalType":"uint128"}],"stateMutability":"view"},{"type":"function","name":"getPosition","inputs":[{"name":"_range","type":"uint8","internalType":"enum Range"}],"outputs":[{"name":"position_","type":"tuple","internalType":"struct Position","components":[{"name":"liquidity","type":"uint128","internalType":"uint128"},{"name":"sqrtPriceL","type":"uint160","internalType":"uint160"},{"name":"sqrtPriceU","type":"uint160","internalType":"uint160"},{"name":"bTokens","type":"uint256","internalType":"uint256"},{"name":"reserves","type":"uint256","internalType":"uint256"},{"name":"capacity","type":"uint256","internalType":"uint256"}]}],"stateMutability":"view"},{"type":"function","name":"getTicks","inputs":[{"name":"_range","type":"uint8","internalType":"enum Range"}],"outputs":[{"name":"ticks_","type":"tuple","internalType":"struct Ticks","components":[{"name":"lower","type":"int24","internalType":"int24"},{"name":"upper","type":"int24","internalType":"int24"}]}],"stateMutability":"view"},{"type":"function","name":"initializeComponent","inputs":[],"outputs":[],"stateMutability":"nonpayable"},{"type":"function","name":"isInstalled","inputs":[],"outputs":[{"name":"","type":"bool","internalType":"bool"}],"stateMutability":"view"},{"type":"function","name":"isMutable","inputs":[],"outputs":[{"name":"","type":"bool","internalType":"bool"}],"stateMutability":"view"},{"type":"function","name":"mint","inputs":[{"name":"_to","type":"address","internalType":"address"},{"name":"_amount","type":"uint256","internalType":"uint256"}],"outputs":[],"stateMutability":"nonpayable"},{"type":"function","name":"pool","inputs":[],"outputs":[{"name":"pool_","type":"address","internalType":"contract IUniswapV3Pool"}],"stateMutability":"view"},{"type":"function","name":"removeAllFrom","inputs":[{"name":"_range","type":"uint8","internalType":"enum Range"}],"outputs":[{"name":"bTokensRemoved_","type":"uint256","internalType":"uint256"},{"name":"bTokenFees_","type":"uint256","internalType":"uint256"},{"name":"reservesRemoved_","type":"uint256","internalType":"uint256"},{"name":"reserveFees_","type":"uint256","internalType":"uint256"}],"stateMutability":"nonpayable"},{"type":"function","name":"requestRoutes","inputs":[],"outputs":[{"name":"hookedCalls_","type":"bytes4[]","internalType":"bytes4[]"},{"name":"nonHookedCalls_","type":"bytes4[]","internalType":"bytes4[]"}],"stateMutability":"view"},{"type":"function","name":"reserve","inputs":[],"outputs":[{"name":"reserve_","type":"address","internalType":"contract ERC20"}],"stateMutability":"view"},{"type":"function","name":"reserveFees","inputs":[],"outputs":[{"name":"reserveFees_","type":"uint256","internalType":"uint256"}],"stateMutability":"view"},{"type":"function","name":"setTicks","inputs":[{"name":"_range","type":"uint8","internalType":"enum Range"},{"name":"_lower","type":"int24","internalType":"int24"},{"name":"_upper","type":"int24","internalType":"int24"}],"outputs":[],"stateMutability":"nonpayable"},{"type":"function","name":"setTransferLock","inputs":[{"name":"_lock","type":"bool","internalType":"bool"}],"outputs":[],"stateMutability":"nonpayable"},{"type":"function","name":"supportsInterface","inputs":[{"name":"interfaceId_","type":"bytes4","internalType":"bytes4"}],"outputs":[{"name":"","type":"bool","internalType":"bool"}],"stateMutability":"pure"},{"type":"function","name":"uniswapV3MintCallback","inputs":[{"name":"_bTokensOwed","type":"uint256","internalType":"uint256"},{"name":"_reservesOwed","type":"uint256","internalType":"uint256"},{"name":"","type":"bytes","internalType":"bytes"}],"outputs":[],"stateMutability":"nonpayable"},{"type":"error","name":"Component_NotPermitted","inputs":[]},{"type":"error","name":"Component_OnlyDelegatecall","inputs":[]},{"type":"error","name":"Component_OnlyProxyKernel","inputs":[{"name":"sender_","type":"address","internalType":"address"}]},{"type":"error","name":"InvalidAction","inputs":[]},{"type":"error","name":"InvalidCaller","inputs":[]},{"type":"error","name":"InvalidTickRange","inputs":[]},{"type":"error","name":"InvalidTokenOrder","inputs":[]},{"type":"error","name":"T","inputs":[]},{"type":"error","name":"TransferLocked","inputs":[]}],"bytecode":{"object":"0x60a060405234801561000f575f80fd5b50306080526080516134f26100335f395f818161116201526111bd01526134f25ff3fe608060405234801561000f575f80fd5b50600436106101fd575f3560e01c80638882654611610114578063bf313764116100a9578063d348799711610079578063d348799714610504578063ea9bbe2a14610517578063ed56ea021461051f578063f55b134e14610532578063ffa1ad7414610548575f80fd5b8063bf313764146104a1578063bf365ae2146104d6578063bff35618146104e9578063cd3293de146104fc575f80fd5b80639fd57c11116100e45780639fd57c111461046b578063a9c3a30a14610473578063acd1cca614610486578063ba9ff1ac1461048e575f80fd5b806388826546146104285780638d4aafb41461043b5780639459b8751461044e5780639d8a307b14610463575f80fd5b806346ca626b116101955780636e287775116101655780636e287775146103465780636f6781d31461035957806373a3a78f146103cf5780637a393205146103fa5780637e9b9e0a14610400575f80fd5b806346ca626b146102a55780634c69a6c9146102c0578063509c1bd1146102dc578063630369af14610313575f80fd5b8063180f5842116101d0578063180f58421461027857806325df78d81461028057806340c10f191461028857806343cdab2f1461029d575f80fd5b806301ffc9a71461020157806304c785bc1461023a5780630f38d8c31461024257806316f0115b14610258575b5f80fd5b61022561020f366004612b89565b6001600160e01b03191663186e9de360e11b1490565b60405190151581526020015b60405180910390f35b610225610557565b61024a6105c8565b604051908152602001610231565b6102606105f1565b6040516001600160a01b039091168152602001610231565b61026061060c565b61024a610627565b61029b610296366004612bc7565b610639565b005b61024a6106ca565b6102ad6106fb565b60405160029190910b8152602001610231565b6102c861070d565b60405162ffffff9091168152602001610231565b6102ef6102ea366004612c13565b610728565b6040805193845260208401929092526001600160801b031690820152606001610231565b610326610321366004612c48565b6108ff565b604080519485526020850193909352918301526060820152608001610231565b61029b610354366004612c6e565b610b60565b61036c610367366004612c48565b610c02565b60405161023191905f60c0820190506001600160801b03835116825260208301516001600160a01b0380821660208501528060408601511660408501525050606083015160608301526080830151608083015260a083015160a083015292915050565b6103e26103dd366004612ca4565b610dce565b6040516001600160801b039091168152602001610231565b5f610225565b61041361040e366004612cf4565b610e22565b60408051928352602083019190915201610231565b6102ef610436366004612d31565b610ec8565b61024a610449366004612d4b565b6110aa565b610456611156565b6040516102319190612d89565b61029b6111b3565b61024a611206565b6103e2610481366004612c48565b61125a565b6102ad6112a9565b61024a61049c366004612ca4565b61138f565b6104b46104af366004612c48565b6113b0565b604080518251600290810b8252602093840151900b9281019290925201610231565b61029b6104e4366004612dda565b61142b565b61029b6104f7366004612e15565b6114fd565b610260611585565b61029b610512366004612e30565b6115a0565b61024a611670565b61024a61052d366004612ea9565b611682565b61053a6116b0565b604051610231929190612f3b565b60405160018152602001610231565b5f30634986b3f96105666105c8565b6040518263ffffffff1660e01b815260040161058491815260200190565b602060405180830381865afa15801561059f573d5f803e3d5ffd5b505050506040513d601f19601f820116820180604052508101906105c39190612f5f565b905090565b5f6105c36040518060400160405260078152806020016642504f4f4c763160c81b8152506116c3565b5f6105fa6116d3565b600301546001600160a01b0316919050565b5f6106156116d3565b600401546001600160a01b0316919050565b5f6106306116d3565b60010154905090565b33301461065957604051631748565560e31b815260040160405180910390fd5b6106616116d3565b6004908101546040516340c10f1960e01b81526001600160a01b0385811693820193909352602481018490529116906340c10f19906044015f604051808303815f87803b1580156106b0575f80fd5b505af11580156106c2573d5f803e3d5ffd5b505050505050565b5f6106d36105c8565b6040805160208101929092520160405160208183030381529060405280519060200120905090565b5f6107046116d3565b5460020b919050565b5f6107166116d3565b546301000000900462ffffff16919050565b5f808033301461074b57604051631748565560e31b815260040160405180910390fd5b5f6107546116d3565b90505f816006015f88600281111561076e5761076e612f7a565b600281111561077f5761077f612f7a565b815260208082019290925260409081015f20815180830190925254600281810b8084526301000000909204900b92820183905290925014806107c857506001600160801b038616155b156107dd575f805f94509450945050506108f8565b600382015481516020830151604051633c8a7d8d60e01b8152306004820152600292830b6024820152910b60448201526001600160801b038816606482015260a060848201525f60a48201526001600160a01b0390911690633c8a7d8d9060c40160408051808303815f875af1158015610859573d5f803e3d5ffd5b505050506040513d601f19601f8201168201806040525081019061087d9190612f8e565b82516020840151929750909550610893916116dd565b92508261089e6116d3565b6007015f8960028111156108b4576108b4612f7a565b60028111156108c5576108c5612f7a565b81526020019081526020015f205f6101000a8154816001600160801b0302191690836001600160801b0316021790555050505b9250925092565b5f80808033301461092357604051631748565560e31b815260040160405180910390fd5b5f61092c6116d3565b90505f816006015f88600281111561094657610946612f7a565b600281111561095757610957612f7a565b815260208082019290925260409081015f908120825180840190935254600281810b8085526301000000909204900b9383018490529193509161099a91906116dd565b90505f836007015f8a60028111156109b4576109b4612f7a565b60028111156109c5576109c5612f7a565b815260208101919091526040015f908120546001600160801b03908116925083169003610a01575f805f80975097509750975050505050610b59565b5f805f80846001600160801b0316866001600160801b03161115610a715786516020880151610a3a9190610a35888a612fc4565b6117aa565b92965090945092509050610a4e8385612feb565b610a58908c612feb565b9a50610a648183612feb565b610a6e908a612feb565b98505b849550856001600160801b03165f03610a9857505f9a508a9850610b599650505050505050565b610aaa875f01518860200151886117aa565b92965090945092509050610abe848d612feb565b9b50610aca838c612feb565b9a50610ad6828b612feb565b9950610ae2818a612feb565b9850610af08b8a6001610b60565b5f610af96116d3565b6007015f8f6002811115610b0f57610b0f612f7a565b6002811115610b2057610b20612f7a565b81526020019081526020015f205f6101000a8154816001600160801b0302191690836001600160801b0316021790555050505050505050505b9193509193565b333014610b8057604051631748565560e31b815260040160405180910390fd5b5f610b896116d3565b90508115610bc95783816001015f828254610ba49190612feb565b9250508190555082816002015f828254610bbe9190612feb565b90915550610bfc9050565b83816001015f828254610bdc9190612ffe565b9250508190555082816002015f828254610bf69190612ffe565b90915550505b50505050565b6040805160c0810182525f80825260208201819052918101829052606081018290526080810182905260a0810182905290610c3b6116d3565b90505f816006015f856002811115610c5557610c55612f7a565b6002811115610c6657610c66612f7a565b815260208082019290925260409081015f908120825180840190935254600281810b84526301000000909104810b9383019390935290925060078401918690811115610cb457610cb4612f7a565b6002811115610cc557610cc5612f7a565b815260208101919091526040015f20546001600160801b031683528051610ceb90611992565b6001600160a01b0316602080850191909152810151610d0990611992565b6001600160a01b03166040840181905260208401518451610d2a9290610e22565b60808501526060840152600382015460408051633850c7bd60e01b815290515f926001600160a01b031691633850c7bd9160048083019260e09291908290030181865afa158015610d7d573d5f803e3d5ffd5b505050506040513d601f19601f82011682018060405250810190610da1919061302d565b5050505050509050610dc084602001518560400151865f015184611682565b60a085015250919392505050565b5f80610dd86116d3565b90505f610de58487611cba565b9050866001600160a01b0316816001600160a01b031611610e0a575f92505050610e1a565b610e15878287611ce4565b925050505b949350505050565b5f805f610e2d6116d3565b90505f816003015f9054906101000a90046001600160a01b03166001600160a01b0316633850c7bd6040518163ffffffff1660e01b815260040160e060405180830381865afa158015610e82573d5f803e3d5ffd5b505050506040513d601f19601f82011682018060405250810190610ea6919061302d565b5050505050509050610eba81888888611d25565b909890975095505050505050565b5f8080333014610eeb57604051631748565560e31b815260040160405180910390fd5b5f610ef46116d3565b90505f816006015f886002811115610f0e57610f0e612f7a565b6002811115610f1f57610f1f612f7a565b815260208082019290925260409081015f20815180830190925254600281810b8084526301000000909204900b9282018390529092501480610f5f575085155b15610f74575f805f94509450945050506108f8565b5f610f87825f0151836020015189611dc0565b600384015483516020850151604051633c8a7d8d60e01b8152306004820152600292830b6024820152910b60448201526001600160801b038316606482015260a060848201525f60a48201529192506001600160a01b031690633c8a7d8d9060c40160408051808303815f875af1158015611004573d5f803e3d5ffd5b505050506040513d601f19601f820116820180604052508101906110289190612f8e565b8351602085015192985090965061103e916116dd565b9350836110496116d3565b6007015f8a600281111561105f5761105f612f7a565b600281111561107057611070612f7a565b81526020019081526020015f205f6101000a8154816001600160801b0302191690836001600160801b031602179055505050509250925092565b5f806110b46116d3565b90505f816003015f9054906101000a90046001600160a01b03166001600160a01b0316633850c7bd6040518163ffffffff1660e01b815260040160e060405180830381865afa158015611109573d5f803e3d5ffd5b505050506040513d601f19601f8201168201806040525081019061112d919061302d565b505050505050905061114c868661114689898987610dce565b84611682565b9695505050505050565b60606001600160a01b037f00000000000000000000000000000000000000000000000000000000000000001630036111a157604051631dd328bf60e01b815260040160405180910390fd5b50604080515f81526020810190915290565b6001600160a01b037f00000000000000000000000000000000000000000000000000000000000000001630036111fc57604051631dd328bf60e01b815260040160405180910390fd5b611204611e95565b565b5f8061122d6112136116d3565b5f808052600691909101602052604090205460020b611992565b90505f611247826001600160a01b0316600160601b612242565b9050611253818261228f565b9250505090565b5f6112636116d3565b6007015f83600281111561127957611279612f7a565b600281111561128a5761128a612f7a565b815260208101919091526040015f20546001600160801b031692915050565b5f806112b36116d3565b90505f816003015f9054906101000a90046001600160a01b03166001600160a01b0316633850c7bd6040518163ffffffff1660e01b815260040160e060405180830381865afa158015611308573d5f803e3d5ffd5b505050506040513d601f19601f8201168201806040525081019061132c919061302d565b50508654939550505060029190910b9150611349905081836130d3565b611353919061310b565b92505f8160020b121580611376575081546113719060020b8261312a565b60020b155b1561138a5781546112539060020b8461314b565b505090565b5f6113a785856113a188888888610dce565b85611682565b95945050505050565b604080518082019091525f80825260208201526113cb6116d3565b6006015f8360028111156113e1576113e1612f7a565b60028111156113f2576113f2612f7a565b815260208082019290925260409081015f20815180830190925254600281810b83526301000000909104900b9181019190915292915050565b33301461144b57604051631748565560e31b815260040160405180910390fd5b8060020b8260020b1315611471576040516264847d60e41b815260040160405180910390fd5b60405180604001604052808360020b81526020018260020b8152506114946116d3565b6006015f8560028111156114aa576114aa612f7a565b60028111156114bb576114bb612f7a565b81526020808201929092526040015f2082518154939092015162ffffff90811663010000000265ffffffffffff19909416921691909117919091179055505050565b33301461151d57604051631748565560e31b815260040160405180910390fd5b6115256116d3565b6004908101546040516317fe6ac360e31b8152831515928101929092526001600160a01b03169063bff35618906024015f604051808303815f87803b15801561156c575f80fd5b505af115801561157e573d5f803e3d5ffd5b5050505050565b5f61158e6116d3565b600501546001600160a01b0316919050565b5f6115a96116d3565b60038101549091506001600160a01b031633146115d9576040516348f5c3ed60e01b815260040160405180910390fd5b84156116495760048181015460038301546040516340c10f1960e01b81526001600160a01b03918216938101939093526024830188905216906340c10f19906044015f604051808303815f87803b158015611632575f80fd5b505af1158015611644573d5f803e3d5ffd5b505050505b831561157e576003810154600582015461157e916001600160a01b039182169116866122ba565b5f6116796116d3565b60020154905090565b5f846001600160a01b0316826001600160a01b031610610e1a576113a7856116aa8685611cba565b8561234a565b6060806116bb6123b8565b915091509091565b5f6116cd82613170565b92915050565b5f806116cd6106ca565b6040516bffffffffffffffffffffffff193060601b16602082015260e883811b603483015282901b60378201525f908190603a016040516020818303038152906040528051906020012090506117316116d3565b6003015460405163514ea4bf60e01b8152600481018390526001600160a01b039091169063514ea4bf9060240160a060405180830381865afa158015611779573d5f803e3d5ffd5b505050506040513d601f19601f8201168201806040525081019061179d91906131a1565b5092979650505050505050565b5f805f805f6117b76116d3565b9050856001600160801b03165f036117db575f805f80945094509450945050611989565b600381015460405163a34123a760e01b815260028a810b600483015289900b60248201526001600160801b03881660448201526001600160a01b039091169063a34123a79060640160408051808303815f875af115801561183e573d5f803e3d5ffd5b505050506040513d601f19601f820116820180604052508101906118629190612f8e565b60038301546040516309e3d67b60e31b815230600482015260028c810b60248301528b900b60448201526001600160801b036064820181905260848201529297509094505f9182916001600160a01b031690634f1eb3d89060a40160408051808303815f875af11580156118d8573d5f803e3d5ffd5b505050506040513d601f19601f820116820180604052508101906118fc91906131ff565b6001600160801b0391821693501690506119168783612ffe565b95506119228582612ffe565b600480850154604051630852cd8d60e31b81529296506001600160a01b0316916342966c6891611958918b910190815260200190565b5f604051808303815f87803b15801561196f575f80fd5b505af1158015611981573d5f803e3d5ffd5b505050505050505b93509350935093565b5f805f8360020b126119a7578260020b6119ae565b8260020b5f035b9050620d89e88111156119d4576040516315e4079d60e11b815260040160405180910390fd5b5f816001165f036119f657700100000000000000000000000000000000611a08565b6ffffcb933bd6fad37aa2d162d1a5940015b70ffffffffffffffffffffffffffffffffff1690506002821615611a3c576ffff97272373d413259a46990580e213a0260801c5b6004821615611a5b576ffff2e50f5f656932ef12357cf3c7fdcc0260801c5b6008821615611a7a576fffe5caca7e10e4e61c3624eaa0941cd00260801c5b6010821615611a99576fffcb9843d60f6159c9db58835c9266440260801c5b6020821615611ab8576fff973b41fa98c081472e6896dfb254c00260801c5b6040821615611ad7576fff2ea16466c96a3843ec78b326b528610260801c5b6080821615611af6576ffe5dee046a99a2a811c461f1969c30530260801c5b610100821615611b16576ffcbe86c7900a88aedcffc83b479aa3a40260801c5b610200821615611b36576ff987a7253ac413176f2b074cf7815e540260801c5b610400821615611b56576ff3392b0822b70005940c7a398e4b70f30260801c5b610800821615611b76576fe7159475a2c29b7443b29c7fa6e889d90260801c5b611000821615611b96576fd097f3bdfd2022b8845ad8f792aa58250260801c5b612000821615611bb6576fa9f746462d870fdf8a65dc1f90e061e50260801c5b614000821615611bd6576f70d869a156d2a1b890bb3df62baf32f70260801c5b618000821615611bf6576f31be135f97d08fd981231505542fcfa60260801c5b62010000821615611c17576f09aa508b5b7a84e1c677de54f3e99bc90260801c5b62020000821615611c37576e5d6af8dedb81196699c329225ee6040260801c5b62040000821615611c56576d2216e584f5fa1ea926041bedfe980260801c5b62080000821615611c73576b048a170391f7dc42444e8fa20260801c5b5f8460020b1315611c9257805f1981611c8e57611c8e6130bf565b0490505b640100000000810615611ca6576001611ca8565b5f5b60ff16602082901c0192505050919050565b5f611cdd836001600160a01b0316836001600160a01b0316808218908211021890565b9392505050565b5f826001600160a01b0316846001600160a01b03161115611d03579192915b610e1a611d2083600160601b8787036001600160a01b0316612a83565b612b2d565b5f80836001600160a01b0316856001600160a01b03161115611d45579293925b846001600160a01b0316866001600160a01b031611611d7057611d6985858561234a565b9150611db7565b836001600160a01b0316866001600160a01b03161015611da957611d9586858561234a565b9150611da2858785612b47565b9050611db7565b611db4858585612b47565b90505b94509492505050565b5f80611dca6116d3565b6003015f9054906101000a90046001600160a01b03166001600160a01b0316633850c7bd6040518163ffffffff1660e01b815260040160e060405180830381865afa158015611e1b573d5f803e3d5ffd5b505050506040513d601f19601f82011682018060405250810190611e3f919061302d565b50505050505090505f611e5186611992565b90505f611e5d86611992565b9050611e8a82826001600160a01b0316856001600160a01b031610611e825782611e84565b845b87611ce4565b979650505050505050565b5f3090505f816001600160a01b031663b74795d96040518163ffffffff1660e01b8152600401602060405180830381865afa158015611ed6573d5f803e3d5ffd5b505050506040513d601f19601f82011682018060405250810190611efa9190613240565b604051635fa32f5760e01b8152631253925560e21b60048201526001600160a01b039190911690635fa32f57906024015f60405180830381865afa158015611f44573d5f803e3d5ffd5b505050506040513d5f823e601f3d908101601f19168201604052611f6b91908101906132b6565b806020019051810190611f7e9190613378565b90505f611f896116d3565b6040516330eac2ed60e11b815265312a37b5b2b760d11b60048201529091506001600160a01b038416906361d585da906024015f60405180830381865afa158015611fd6573d5f803e3d5ffd5b505050506040513d5f823e601f3d908101601f19168201604052611ffd91908101906132b6565b8060200190518101906120109190613240565b6004820180546001600160a01b0392831673ffffffffffffffffffffffffffffffffffffffff19918216811790925560808501516005850180549190941691168117909255111561207457604051633f06bf8160e01b815260040160405180910390fd5b604082810151825465ffffff0000001916630100000062ffffff909216918202178355602084015191516322afcccb60e01b815260048101919091526001600160a01b03909116906322afcccb90602401602060405180830381865afa1580156120e0573d5f803e3d5ffd5b505050506040513d601f19601f820116820180604052508101906121049190613478565b815462ffffff191662ffffff91821617825560208301516004808401546080860151604080880151905163a167129560e01b81526001600160a01b03938416948101949094529082166024840152909316604482015291169063a1671295906064016020604051808303815f875af1158015612182573d5f803e3d5ffd5b505050506040513d601f19601f820116820180604052508101906121a69190613240565b60038201805473ffffffffffffffffffffffffffffffffffffffff19166001600160a01b0392909216918217905561016083015163f637731d906121e990611992565b6040516001600160e01b031960e084901b1681526001600160a01b0390911660048201526024015f604051808303815f87803b158015612227575f80fd5b505af1158015612239573d5f803e3d5ffd5b50505050505050565b5f7812725dd1d243aba0e75fe645cc4873f9e65afe688c928e1f218311670de0b6b3a76400000215820261227d57637c5f487d5f526004601cfd5b50670de0b6b3a7640000919091020490565b5f815f190483118202156122aa5763bac65e5b5f526004601cfd5b50670de0b6b3a764000091020490565b5f60405163a9059cbb60e01b81526001600160a01b038416600482015282602482015260205f6044835f895af13d15601f3d1160015f511416171691505080610bfc5760405162461bcd60e51b815260206004820152600f60248201527f5452414e534645525f4641494c4544000000000000000000000000000000000060448201526064015b60405180910390fd5b5f826001600160a01b0316846001600160a01b03161115612369579192915b836001600160a01b03166123a2606060ff16846001600160801b0316901b8686036001600160a01b0316866001600160a01b0316612a83565b816123af576123af6130bf565b04949350505050565b6060806007806123c781613493565b915067ffffffffffffffff8111156123e1576123e161322c565b60405190808252806020026020018201604052801561240a578160200160208202803683370190505b5092506340c10f1960e01b838261242081613493565b935081518110612432576124326134a8565b6001600160e01b03199092166020928302919091019091015263444132a360e11b838261245e81613493565b935081518110612470576124706134a8565b6001600160e01b03199092166020928302919091019091015263509c1bd160e01b838261249c81613493565b9350815181106124ae576124ae6134a8565b6001600160e01b03199092166020928302919091019091015263630369af60e01b83826124da81613493565b9350815181106124ec576124ec6134a8565b6001600160e01b031990921660209283029190910190910152635f9b2d7160e11b838261251881613493565b93508151811061252a5761252a6134a8565b6001600160e01b0319909216602092830291909101909101526317fe6ac360e31b838261255681613493565b935081518110612568576125686134a8565b6001600160e01b0319909216602092830291909101909101528251636e28777560e01b9084908390811061259e5761259e6134a8565b6001600160e01b0319909216602092830291909101909101526010806125c381613493565b915067ffffffffffffffff8111156125dd576125dd61322c565b604051908082528060200260200182016040528015612606578160200160208202803683370190505b5092506346ca626b60e01b838261261c81613493565b93508151811061262e5761262e6134a8565b6001600160e01b031990921660209283029190910190910152634c69a6c960e01b838261265a81613493565b93508151811061266c5761266c6134a8565b6001600160e01b031990921660209283029190910190910152630c07ac2160e11b838261269881613493565b9350815181106126aa576126aa6134a8565b6001600160e01b03199092166020928302919091019091015263669949ef60e11b83826126d681613493565b9350815181106126e8576126e86134a8565b6001600160e01b031990921660209283029190910190910152632fcc4dd960e21b838261271481613493565b935081518110612726576127266134a8565b6001600160e01b0319909216602092830291909101909101526354e1d18560e11b838261275281613493565b935081518110612764576127646134a8565b6001600160e01b031990921660209283029190910190910152639fd57c1160e01b838261279081613493565b9350815181106127a2576127a26134a8565b6001600160e01b031990921660209283029190910190910152635668e65360e11b83826127ce81613493565b9350815181106127e0576127e06134a8565b6001600160e01b031990921660209283029190910190910152636f6781d360e01b838261280c81613493565b93508151811061281e5761281e6134a8565b6001600160e01b031990921660209283029190910190910152633f4dcf0560e11b838261284a81613493565b93508151811061285c5761285c6134a8565b6001600160e01b0319909216602092830291909101909101526373a3a78f60e01b838261288881613493565b93508151811061289a5761289a6134a8565b6001600160e01b0319909216602092830291909101909101526376ab750160e11b83826128c681613493565b9350815181106128d8576128d86134a8565b6001600160e01b031990921660209283029190910190910152632352abed60e21b838261290481613493565b935081518110612916576129166134a8565b6001600160e01b03199092166020928302919091019091015263d348799760e01b838261294281613493565b935081518110612954576129546134a8565b6001600160e01b0319909216602092830291909101909101526316f0115b60e01b838261298081613493565b935081518110612992576129926134a8565b6001600160e01b0319909216602092830291909101909101528251632ea7fc6b60e21b908490839081106129c8576129c86134a8565b6001600160e01b0319909216602092830291909101909101528115612a2f5760405162461bcd60e51b815260206004820152601660248201527f62616420686f6f6b656443616c6c7320636f6e666967000000000000000000006044820152606401612341565b8015612a7d5760405162461bcd60e51b815260206004820152601960248201527f626164206e6f6e486f6f6b656443616c6c7320636f6e666967000000000000006044820152606401612341565b50509091565b5f80805f19858709858702925082811083820303915050805f03612ab7575f8411612aac575f80fd5b508290049050611cdd565b808411612ac2575f80fd5b5f848688095f868103871696879004966002600389028118808a02820302808a02820302808a02820302808a02820302808a02820302808a02909103029181900381900460010186841190950394909402919094039290920491909117919091029150509392505050565b806001600160801b0381168114612b42575f80fd5b919050565b5f826001600160a01b0316846001600160a01b03161115612b66579192915b610e1a826001600160801b03168585036001600160a01b0316600160601b612a83565b5f60208284031215612b99575f80fd5b81356001600160e01b031981168114611cdd575f80fd5b6001600160a01b0381168114612bc4575f80fd5b50565b5f8060408385031215612bd8575f80fd5b8235612be381612bb0565b946020939093013593505050565b803560038110612b42575f80fd5b6001600160801b0381168114612bc4575f80fd5b5f8060408385031215612c24575f80fd5b612c2d83612bf1565b91506020830135612c3d81612bff565b809150509250929050565b5f60208284031215612c58575f80fd5b611cdd82612bf1565b8015158114612bc4575f80fd5b5f805f60608486031215612c80575f80fd5b83359250602084013591506040840135612c9981612c61565b809150509250925092565b5f805f8060808587031215612cb7575f80fd5b8435612cc281612bb0565b93506020850135612cd281612bb0565b9250604085013591506060850135612ce981612bb0565b939692955090935050565b5f805f60608486031215612d06575f80fd5b8335612d1181612bb0565b92506020840135612d2181612bb0565b91506040840135612c9981612bff565b5f8060408385031215612d42575f80fd5b612be383612bf1565b5f805f60608486031215612d5d575f80fd5b8335612d6881612bb0565b92506020840135612d7881612bb0565b929592945050506040919091013590565b602080825282518282018190525f9190848201906040850190845b81811015612dc057835183529284019291840191600101612da4565b50909695505050505050565b8060020b8114612bc4575f80fd5b5f805f60608486031215612dec575f80fd5b612df584612bf1565b92506020840135612e0581612dcc565b91506040840135612c9981612dcc565b5f60208284031215612e25575f80fd5b8135611cdd81612c61565b5f805f8060608587031215612e43575f80fd5b8435935060208501359250604085013567ffffffffffffffff80821115612e68575f80fd5b818701915087601f830112612e7b575f80fd5b813581811115612e89575f80fd5b886020828501011115612e9a575f80fd5b95989497505060200194505050565b5f805f8060808587031215612ebc575f80fd5b8435612ec781612bb0565b93506020850135612ed781612bb0565b92506040850135612ee781612bff565b91506060850135612ce981612bb0565b5f815180845260208085019450602084015f5b83811015612f305781516001600160e01b03191687529582019590820190600101612f0a565b509495945050505050565b604081525f612f4d6040830185612ef7565b82810360208401526113a78185612ef7565b5f60208284031215612f6f575f80fd5b8151611cdd81612c61565b634e487b7160e01b5f52602160045260245ffd5b5f8060408385031215612f9f575f80fd5b505080516020909101519092909150565b634e487b7160e01b5f52601160045260245ffd5b6001600160801b03828116828216039080821115612fe457612fe4612fb0565b5092915050565b808201808211156116cd576116cd612fb0565b818103818111156116cd576116cd612fb0565b8051612b4281612dcc565b805161ffff81168114612b42575f80fd5b5f805f805f805f60e0888a031215613043575f80fd5b875161304e81612bb0565b602089015190975061305f81612dcc565b955061306d6040890161301c565b945061307b6060890161301c565b93506130896080890161301c565b925060a088015160ff8116811461309e575f80fd5b60c08901519092506130af81612c61565b8091505092959891949750929550565b634e487b7160e01b5f52601260045260245ffd5b5f8160020b8360020b806130e9576130e96130bf565b627fffff1982145f198214161561310257613102612fb0565b90059392505050565b5f8260020b8260020b028060020b9150808214612fe457612fe4612fb0565b5f8260020b8061313c5761313c6130bf565b808360020b0791505092915050565b600281810b9083900b01627fffff8113627fffff19821217156116cd576116cd612fb0565b80516020808301519190811015613190575f198160200360031b1b821691505b50919050565b8051612b4281612bff565b5f805f805f60a086880312156131b5575f80fd5b85516131c081612bff565b80955050602086015193506040860151925060608601516131e081612bff565b60808701519092506131f181612bff565b809150509295509295909350565b5f8060408385031215613210575f80fd5b825161321b81612bff565b6020840151909250612c3d81612bff565b634e487b7160e01b5f52604160045260245ffd5b5f60208284031215613250575f80fd5b8151611cdd81612bb0565b6040516101c0810167ffffffffffffffff8111828210171561327f5761327f61322c565b60405290565b604051601f8201601f1916810167ffffffffffffffff811182821017156132ae576132ae61322c565b604052919050565b5f60208083850312156132c7575f80fd5b825167ffffffffffffffff808211156132de575f80fd5b818501915085601f8301126132f1575f80fd5b8151818111156133035761330361322c565b613315601f8201601f19168501613285565b9150808252868482850101111561332a575f80fd5b5f5b8181101561334757838101850151838201860152840161332c565b505f90820190930192909252509392505050565b8051612b4281612bb0565b805162ffffff81168114612b42575f80fd5b5f6101c08284031215613389575f80fd5b61339161325b565b61339a8361335b565b81526133a86020840161335b565b60208201526133b960408401613366565b60408201526133ca6060840161335b565b60608201526133db6080840161335b565b608082015260a083015160a082015260c083015160c082015261340060e0840161301c565b60e0820152610100613413818501613011565b90820152610120613425848201613011565b90820152610140613437848201613011565b90820152610160613449848201613011565b9082015261018061345b848201613196565b908201526101a061346d848201613196565b908201529392505050565b5f60208284031215613488575f80fd5b8151611cdd81612dcc565b5f816134a1576134a1612fb0565b505f190190565b634e487b7160e01b5f52603260045260245ffdfea2646970667358221220ab886f18565f52b3982ec930aa44b5d1ebf83ecd3f01fa4c58bb99170a5ef7ee64736f6c63430008170033","linkReferences":{}},"methodIdentifiers":{"FEE_TIER()":"4c69a6c9","INIT_SLOT()":"43cdab2f","LABEL()":"0f38d8c3","TICK_SPACING()":"46ca626b","VERSION()":"ffa1ad74","addLiquidityTo(uint8,uint128)":"509c1bd1","addReservesTo(uint8,uint256)":"88826546","adjustFees(uint256,uint256,bool)":"6e287775","bToken()":"180f5842","bTokenFees()":"25df78d8","configureDependencies()":"9459b875","getActiveTS()":"acd1cca6","getBalancesForLiquidity(uint160,uint160,uint128)":"7e9b9e0a","getBaselineValue()":"9fd57c11","getCapacityForLiquidity(uint160,uint160,uint128,uint160)":"ed56ea02","getCapacityForReserves(uint160,uint160,uint256)":"8d4aafb4","getCapacityForReservesAtPrice(uint160,uint160,uint256,uint160)":"ba9ff1ac","getLiquidity(uint8)":"a9c3a30a","getLiquidityForReserves(uint160,uint160,uint256,uint160)":"73a3a78f","getPosition(uint8)":"6f6781d3","getTicks(uint8)":"bf313764","initializeComponent()":"9d8a307b","isInstalled()":"04c785bc","isMutable()":"7a393205","mint(address,uint256)":"40c10f19","pool()":"16f0115b","removeAllFrom(uint8)":"630369af","requestRoutes()":"f55b134e","reserve()":"cd3293de","reserveFees()":"ea9bbe2a","setTicks(uint8,int24,int24)":"bf365ae2","setTransferLock(bool)":"bff35618","supportsInterface(bytes4)":"01ffc9a7","uniswapV3MintCallback(uint256,uint256,bytes)":"d3487997"},"id":48}