{"abi":[{"type":"constructor","inputs":[{"name":"_name","type":"string","internalType":"string"},{"name":"_symbol","type":"string","internalType":"string"},{"name":"_controller","type":"address","internalType":"address"}],"stateMutability":"nonpayable"},{"type":"function","name":"DOMAIN_SEPARATOR","inputs":[],"outputs":[{"name":"","type":"bytes32","internalType":"bytes32"}],"stateMutability":"view"},{"type":"function","name":"allowance","inputs":[{"name":"","type":"address","internalType":"address"},{"name":"","type":"address","internalType":"address"}],"outputs":[{"name":"","type":"uint256","internalType":"uint256"}],"stateMutability":"view"},{"type":"function","name":"approve","inputs":[{"name":"spender","type":"address","internalType":"address"},{"name":"amount","type":"uint256","internalType":"uint256"}],"outputs":[{"name":"","type":"bool","internalType":"bool"}],"stateMutability":"nonpayable"},{"type":"function","name":"balanceOf","inputs":[{"name":"","type":"address","internalType":"address"}],"outputs":[{"name":"","type":"uint256","internalType":"uint256"}],"stateMutability":"view"},{"type":"function","name":"burn","inputs":[{"name":"_amount","type":"uint256","internalType":"uint256"}],"outputs":[],"stateMutability":"nonpayable"},{"type":"function","name":"burn","inputs":[{"name":"_from","type":"address","internalType":"address"},{"name":"_amount","type":"uint256","internalType":"uint256"}],"outputs":[],"stateMutability":"nonpayable"},{"type":"function","name":"controller","inputs":[],"outputs":[{"name":"","type":"address","internalType":"address"}],"stateMutability":"view"},{"type":"function","name":"decimals","inputs":[],"outputs":[{"name":"","type":"uint8","internalType":"uint8"}],"stateMutability":"view"},{"type":"function","name":"locked","inputs":[],"outputs":[{"name":"","type":"bool","internalType":"bool"}],"stateMutability":"view"},{"type":"function","name":"mint","inputs":[{"name":"_to","type":"address","internalType":"address"},{"name":"_amount","type":"uint256","internalType":"uint256"}],"outputs":[],"stateMutability":"nonpayable"},{"type":"function","name":"name","inputs":[],"outputs":[{"name":"","type":"string","internalType":"string"}],"stateMutability":"view"},{"type":"function","name":"nonces","inputs":[{"name":"","type":"address","internalType":"address"}],"outputs":[{"name":"","type":"uint256","internalType":"uint256"}],"stateMutability":"view"},{"type":"function","name":"permit","inputs":[{"name":"owner","type":"address","internalType":"address"},{"name":"spender","type":"address","internalType":"address"},{"name":"value","type":"uint256","internalType":"uint256"},{"name":"deadline","type":"uint256","internalType":"uint256"},{"name":"v","type":"uint8","internalType":"uint8"},{"name":"r","type":"bytes32","internalType":"bytes32"},{"name":"s","type":"bytes32","internalType":"bytes32"}],"outputs":[],"stateMutability":"nonpayable"},{"type":"function","name":"setController","inputs":[{"name":"_controller","type":"address","internalType":"address"}],"outputs":[],"stateMutability":"nonpayable"},{"type":"function","name":"setTransferLock","inputs":[{"name":"_lock","type":"bool","internalType":"bool"}],"outputs":[],"stateMutability":"nonpayable"},{"type":"function","name":"symbol","inputs":[],"outputs":[{"name":"","type":"string","internalType":"string"}],"stateMutability":"view"},{"type":"function","name":"totalSupply","inputs":[],"outputs":[{"name":"","type":"uint256","internalType":"uint256"}],"stateMutability":"view"},{"type":"function","name":"transfer","inputs":[{"name":"_to","type":"address","internalType":"address"},{"name":"_amount","type":"uint256","internalType":"uint256"}],"outputs":[{"name":"","type":"bool","internalType":"bool"}],"stateMutability":"nonpayable"},{"type":"function","name":"transferFrom","inputs":[{"name":"_from","type":"address","internalType":"address"},{"name":"_to","type":"address","internalType":"address"},{"name":"_amount","type":"uint256","internalType":"uint256"}],"outputs":[{"name":"","type":"bool","internalType":"bool"}],"stateMutability":"nonpayable"},{"type":"event","name":"Approval","inputs":[{"name":"owner","type":"address","indexed":true,"internalType":"address"},{"name":"spender","type":"address","indexed":true,"internalType":"address"},{"name":"amount","type":"uint256","indexed":false,"internalType":"uint256"}],"anonymous":false},{"type":"event","name":"ControllerSet","inputs":[{"name":"controller","type":"address","indexed":false,"internalType":"address"}],"anonymous":false},{"type":"event","name":"Transfer","inputs":[{"name":"from","type":"address","indexed":true,"internalType":"address"},{"name":"to","type":"address","indexed":true,"internalType":"address"},{"name":"amount","type":"uint256","indexed":false,"internalType":"uint256"}],"anonymous":false},{"type":"event","name":"TransferLock","inputs":[{"name":"lock","type":"bool","indexed":false,"internalType":"bool"}],"anonymous":false},{"type":"error","name":"InvalidCaller","inputs":[]},{"type":"error","name":"TransferLocked","inputs":[]}],"bytecode":{"object":"0x60e060405234801562000010575f80fd5b50604051620012fd380380620012fd8339810160408190526200003391620001f9565b828260125f6200004484826200030a565b5060016200005383826200030a565b5060ff81166080524660a052620000696200009e565b60c0525050600680546001600160a81b0319166001600160a01b0390931692909217600160a01b179091555062000450915050565b5f7f8b73c3c69bb8fe3d512ecc4cf759cc79239f7b179b0ffacaa9a75d522b39400f5f604051620000d09190620003d6565b6040805191829003822060208301939093528101919091527fc89efdaa54c0f20c7adf612882df0950f5a951637e0307cdcb4c672f298b8bc660608201524660808201523060a082015260c00160405160208183030381529060405280519060200120905090565b634e487b7160e01b5f52604160045260245ffd5b5f82601f8301126200015c575f80fd5b81516001600160401b038082111562000179576200017962000138565b604051601f8301601f19908116603f01168101908282118183101715620001a457620001a462000138565b8160405283815260209250866020858801011115620001c1575f80fd5b5f91505b83821015620001e45785820183015181830184015290820190620001c5565b5f602085830101528094505050505092915050565b5f805f606084860312156200020c575f80fd5b83516001600160401b038082111562000223575f80fd5b62000231878388016200014c565b9450602086015191508082111562000247575f80fd5b5062000256868287016200014c565b604086015190935090506001600160a01b038116811462000275575f80fd5b809150509250925092565b600181811c908216806200029557607f821691505b602082108103620002b457634e487b7160e01b5f52602260045260245ffd5b50919050565b601f8211156200030557805f5260205f20601f840160051c81016020851015620002e15750805b601f840160051c820191505b8181101562000302575f8155600101620002ed565b50505b505050565b81516001600160401b0381111562000326576200032662000138565b6200033e8162000337845462000280565b84620002ba565b602080601f83116001811462000374575f84156200035c5750858301515b5f19600386901b1c1916600185901b178555620003ce565b5f85815260208120601f198616915b82811015620003a45788860151825594840194600190910190840162000383565b5085821015620003c257878501515f19600388901b60f8161c191681555b505060018460011b0185555b505050505050565b5f808354620003e58162000280565b60018281168015620004005760018114620004165762000444565b60ff198416875282151583028701945062000444565b875f526020805f205f5b858110156200043b5781548a82015290840190820162000420565b50505082870194505b50929695505050505050565b60805160a05160c051610e826200047b5f395f61047101525f61043c01525f6101900152610e825ff3fe608060405234801561000f575f80fd5b506004361061011c575f3560e01c80637ecebe00116100a9578063bff356181161006e578063bff3561814610273578063cf30901214610286578063d505accf1461029a578063dd62ed3e146102ad578063f77c4791146102d7575f80fd5b80637ecebe001461021357806392eefe9b1461023257806395d89b41146102455780639dc29fac1461024d578063a9059cbb14610260575f80fd5b8063313ce567116100ef578063313ce5671461018b5780633644e515146101c457806340c10f19146101cc57806342966c68146101e157806370a08231146101f4575f80fd5b806306fdde0314610120578063095ea7b31461013e57806318160ddd1461016157806323b872dd14610178575b5f80fd5b610128610302565b6040516101359190610b87565b60405180910390f35b61015161014c366004610bee565b61038d565b6040519015158152602001610135565b61016a60025481565b604051908152602001610135565b610151610186366004610c16565b6103f9565b6101b27f000000000000000000000000000000000000000000000000000000000000000081565b60405160ff9091168152602001610135565b61016a610439565b6101df6101da366004610bee565b610493565b005b6101df6101ef366004610c4f565b6104cc565b61016a610202366004610c66565b60036020525f908152604090205481565b61016a610221366004610c66565b60056020525f908152604090205481565b6101df610240366004610c66565b6104d9565b610128610566565b6101df61025b366004610bee565b610573565b61015161026e366004610bee565b6105a8565b6101df610281366004610c7f565b6105e6565b60065461015190600160a01b900460ff1681565b6101df6102a8366004610c9e565b61065e565b61016a6102bb366004610d0b565b600460209081525f928352604080842090915290825290205481565b6006546102ea906001600160a01b031681565b6040516001600160a01b039091168152602001610135565b5f805461030e90610d3c565b80601f016020809104026020016040519081016040528092919081815260200182805461033a90610d3c565b80156103855780601f1061035c57610100808354040283529160200191610385565b820191905f5260205f20905b81548152906001019060200180831161036857829003601f168201915b505050505081565b335f8181526004602090815260408083206001600160a01b038716808552925280832085905551919290917f8c5be1e5ebec7d5bd14f71427d1e84f3dd0314c0f7b2291e5b200ac8c7c3b925906103e79086815260200190565b60405180910390a35060015b92915050565b6006545f90600160a01b900460ff161561042657604051632b36b06160e01b815260040160405180910390fd5b6104318484846108b0565b949350505050565b5f7f0000000000000000000000000000000000000000000000000000000000000000461461046e5761046961099d565b905090565b507f000000000000000000000000000000000000000000000000000000000000000090565b6006546001600160a01b031633146104be576040516348f5c3ed60e01b815260040160405180910390fd5b6104c88282610a35565b5050565b6104d63382610a9f565b50565b6006546001600160a01b03163314610504576040516348f5c3ed60e01b815260040160405180910390fd5b6006805473ffffffffffffffffffffffffffffffffffffffff19166001600160a01b0383169081179091556040519081527f79f74fd5964b6943d8a1865abfb7f668c92fa3f32c0a2e3195da7d0946703ad7906020015b60405180910390a150565b6001805461030e90610d3c565b6006546001600160a01b0316331461059e576040516348f5c3ed60e01b815260040160405180910390fd5b6104c88282610a9f565b6006545f90600160a01b900460ff16156105d557604051632b36b06160e01b815260040160405180910390fd5b6105df8383610b11565b9392505050565b6006546001600160a01b03163314610611576040516348f5c3ed60e01b815260040160405180910390fd5b60068054821515600160a01b0260ff60a01b199091161790556040517fa775ba9edbd223aa9b8921ee5f2fd9db6dc84013a253ea5224fdd3c9c1369f749061055b90831515815260200190565b428410156106b35760405162461bcd60e51b815260206004820152601760248201527f5045524d49545f444541444c494e455f4558504952454400000000000000000060448201526064015b60405180910390fd5b5f60016106be610439565b6001600160a01b038a81165f8181526005602090815260409182902080546001810190915582517f6e71edae12b1b97f4d1f60370fef10105fa2faae0126114a169c64845d6126c98184015280840194909452938d166060840152608083018c905260a083019390935260c08083018b90528151808403909101815260e08301909152805192019190912061190160f01b6101008301526101028201929092526101228101919091526101420160408051601f1981840301815282825280516020918201205f84529083018083525260ff871690820152606081018590526080810184905260a0016020604051602081039080840390855afa1580156107c6573d5f803e3d5ffd5b5050604051601f1901519150506001600160a01b038116158015906107fc5750876001600160a01b0316816001600160a01b0316145b6108485760405162461bcd60e51b815260206004820152600e60248201527f494e56414c49445f5349474e455200000000000000000000000000000000000060448201526064016106aa565b6001600160a01b039081165f9081526004602090815260408083208a8516808552908352928190208990555188815291928a16917f8c5be1e5ebec7d5bd14f71427d1e84f3dd0314c0f7b2291e5b200ac8c7c3b925910160405180910390a350505050505050565b6001600160a01b0383165f9081526004602090815260408083203384529091528120545f198114610909576108e58382610d88565b6001600160a01b0386165f9081526004602090815260408083203384529091529020555b6001600160a01b0385165f9081526003602052604081208054859290610930908490610d88565b90915550506001600160a01b038085165f81815260036020526040908190208054870190555190918716907fddf252ad1be2c89b69c2b068fc378daa952ba7f163c4a11628f55a4df523b3ef9061098a9087815260200190565b60405180910390a3506001949350505050565b5f7f8b73c3c69bb8fe3d512ecc4cf759cc79239f7b179b0ffacaa9a75d522b39400f5f6040516109cd9190610d9b565b6040805191829003822060208301939093528101919091527fc89efdaa54c0f20c7adf612882df0950f5a951637e0307cdcb4c672f298b8bc660608201524660808201523060a082015260c00160405160208183030381529060405280519060200120905090565b8060025f828254610a469190610e39565b90915550506001600160a01b0382165f818152600360209081526040808320805486019055518481527fddf252ad1be2c89b69c2b068fc378daa952ba7f163c4a11628f55a4df523b3ef91015b60405180910390a35050565b6001600160a01b0382165f9081526003602052604081208054839290610ac6908490610d88565b90915550506002805482900390556040518181525f906001600160a01b038416907fddf252ad1be2c89b69c2b068fc378daa952ba7f163c4a11628f55a4df523b3ef90602001610a93565b335f90815260036020526040812080548391908390610b31908490610d88565b90915550506001600160a01b0383165f81815260036020526040908190208054850190555133907fddf252ad1be2c89b69c2b068fc378daa952ba7f163c4a11628f55a4df523b3ef906103e79086815260200190565b5f602080835283518060208501525f5b81811015610bb357858101830151858201604001528201610b97565b505f604082860101526040601f19601f8301168501019250505092915050565b80356001600160a01b0381168114610be9575f80fd5b919050565b5f8060408385031215610bff575f80fd5b610c0883610bd3565b946020939093013593505050565b5f805f60608486031215610c28575f80fd5b610c3184610bd3565b9250610c3f60208501610bd3565b9150604084013590509250925092565b5f60208284031215610c5f575f80fd5b5035919050565b5f60208284031215610c76575f80fd5b6105df82610bd3565b5f60208284031215610c8f575f80fd5b813580151581146105df575f80fd5b5f805f805f805f60e0888a031215610cb4575f80fd5b610cbd88610bd3565b9650610ccb60208901610bd3565b95506040880135945060608801359350608088013560ff81168114610cee575f80fd5b9699959850939692959460a0840135945060c09093013592915050565b5f8060408385031215610d1c575f80fd5b610d2583610bd3565b9150610d3360208401610bd3565b90509250929050565b600181811c90821680610d5057607f821691505b602082108103610d6e57634e487b7160e01b5f52602260045260245ffd5b50919050565b634e487b7160e01b5f52601160045260245ffd5b818103818111156103f3576103f3610d74565b5f8083545f60018260011c91506001831680610db857607f831692505b60208084108203610dd757634e487b7160e01b5f52602260045260245ffd5b818015610deb5760018114610e0057610e2b565b60ff1986168952841515850289019650610e2b565b5f8a8152602090205f5b86811015610e235781548b820152908501908301610e0a565b505084890196505b509498975050505050505050565b808201808211156103f3576103f3610d7456fea2646970667358221220b1dfba30603accbf6106aee8c9d82ea428adfbe151a7a73a52c975d0c0b3c08f64736f6c63430008170033","linkReferences":{}},"methodIdentifiers":{"DOMAIN_SEPARATOR()":"3644e515","allowance(address,address)":"dd62ed3e","approve(address,uint256)":"095ea7b3","balanceOf(address)":"70a08231","burn(address,uint256)":"9dc29fac","burn(uint256)":"42966c68","controller()":"f77c4791","decimals()":"313ce567","locked()":"cf309012","mint(address,uint256)":"40c10f19","name()":"06fdde03","nonces(address)":"7ecebe00","permit(address,address,uint256,uint256,uint8,bytes32,bytes32)":"d505accf","setController(address)":"92eefe9b","setTransferLock(bool)":"bff35618","symbol()":"95d89b41","totalSupply()":"18160ddd","transfer(address,uint256)":"a9059cbb","transferFrom(address,address,uint256)":"23b872dd"},"id":43}