{"abi":[{"type":"constructor","inputs":[{"name":"_orchestrator","type":"address","internalType":"address"}],"stateMutability":"nonpayable"},{"type":"function","name":"deploy","inputs":[{"name":"_name","type":"string","internalType":"string"},{"name":"_symbol","type":"string","internalType":"string"},{"name":"_reserve","type":"address","internalType":"address"},{"name":"_salt","type":"bytes32","internalType":"bytes32"}],"outputs":[{"name":"bToken_","type":"address","internalType":"contract BToken"},{"name":"kernel_","type":"address","internalType":"contract ProxyKernel"}],"stateMutability":"nonpayable"},{"type":"function","name":"deployers","inputs":[{"name":"","type":"address","internalType":"address"}],"outputs":[{"name":"","type":"bool","internalType":"bool"}],"stateMutability":"view"},{"type":"function","name":"getSalt","inputs":[{"name":"_name","type":"string","internalType":"string"},{"name":"_symbol","type":"string","internalType":"string"},{"name":"_reserve","type":"address","internalType":"address"}],"outputs":[{"name":"","type":"bytes32","internalType":"bytes32"}],"stateMutability":"view"},{"type":"function","name":"implContracts","inputs":[{"name":"","type":"uint256","internalType":"uint256"}],"outputs":[{"name":"","type":"address","internalType":"address"}],"stateMutability":"view"},{"type":"function","name":"initializers","inputs":[{"name":"","type":"address","internalType":"address"}],"outputs":[{"name":"","type":"address","internalType":"address"}],"stateMutability":"view"},{"type":"function","name":"orchestrator","inputs":[],"outputs":[{"name":"","type":"address","internalType":"contract Orchestrator"}],"stateMutability":"view"},{"type":"function","name":"owner","inputs":[],"outputs":[{"name":"","type":"address","internalType":"address"}],"stateMutability":"view"},{"type":"function","name":"transferOwnership","inputs":[{"name":"newOwner","type":"address","internalType":"address"}],"outputs":[],"stateMutability":"nonpayable"},{"type":"function","name":"updateOrchestrator","inputs":[{"name":"_orchestrator","type":"address","internalType":"contract Orchestrator"}],"outputs":[],"stateMutability":"nonpayable"},{"type":"event","name":"BTokenDeployed","inputs":[{"name":"bToken","type":"address","indexed":false,"internalType":"address"},{"name":"kernel","type":"address","indexed":false,"internalType":"address"},{"name":"deployer","type":"address","indexed":false,"internalType":"address"}],"anonymous":false},{"type":"event","name":"OwnershipTransferred","inputs":[{"name":"user","type":"address","indexed":true,"internalType":"address"},{"name":"newOwner","type":"address","indexed":true,"internalType":"address"}],"anonymous":false},{"type":"error","name":"InvalidImplContracts","inputs":[]},{"type":"error","name":"InvalidTokenOrder","inputs":[]},{"type":"error","name":"UnauthorizedDeployer","inputs":[]},{"type":"error","name":"UnauthorizedInitalizer","inputs":[]}],"bytecode":{"object":"0x608060405234801561000f575f80fd5b50604051611f4c380380611f4c83398101604081905261002e91610093565b5f80546001600160a01b031916339081178255604051909182917f8be0079c531659141344cd1fd0a4f28419497f9722a3daafe3b4186f6b6457e0908290a350600180546001600160a01b0319166001600160a01b03929092169190911790556100c0565b5f602082840312156100a3575f80fd5b81516001600160a01b03811681146100b9575f80fd5b9392505050565b611e7f806100cd5f395ff3fe608060405234801562000010575f80fd5b50600436106200009c575f3560e01c80638d8bb213116200006b5780638d8bb213146200016d5780638da5cb5b1462000186578063b74795d91462000199578063bf6c1a8514620001ad578063f2fde38b14620001d3575f80fd5b80630dab589b14620000a05780632dc7d98714620000e857806365b3c7c614620000ff5780636a2385e81462000137575b5f80fd5b620000cb620000b136600462000814565b60046020525f90815260409020546001600160a01b031681565b6040516001600160a01b0390911681526020015b60405180910390f35b620000cb620000f936600462000832565b620001ea565b6200011662000110366004620008ef565b62000213565b604080516001600160a01b03938416815292909116602083015201620000df565b6200015c6200014836600462000814565b60036020525f908152604090205460ff1681565b6040519015158152602001620000df565b620001846200017e36600462000814565b62000571565b005b5f54620000cb906001600160a01b031681565b600154620000cb906001600160a01b031681565b620001c4620001be36600462000971565b620005ea565b604051908152602001620000df565b62000184620001e436600462000814565b6200074d565b60028181548110620001fa575f80fd5b5f918252602090912001546001600160a01b0316905081565b5f80828686306040516200022790620007ee565b620002359392919062000a3e565b8190604051809103905ff590508015801562000253573d5f803e3d5ffd5b50915060015f9054906101000a90046001600160a01b03166001600160a01b031663775c300c6040518163ffffffff1660e01b81526004016020604051808303815f875af1158015620002a8573d5f803e3d5ffd5b505050506040513d601f19601f82011682018060405250810190620002ce919062000a80565b6040516392eefe9b60e01b81526001600160a01b038083166004830152919250908316906392eefe9b906024015f604051808303815f87803b15801562000313575f80fd5b505af115801562000326573d5f803e3d5ffd5b50505050836001600160a01b0316826001600160a01b031611156200035e57604051633f06bf8160e01b815260040160405180910390fd5b600154604080516001600160a01b0385811660208301529092169163ed9ce7ab918491016040516020818303038152906040526040518363ffffffff1660e01b8152600401620003b092919062000a9e565b5f604051808303815f87803b158015620003c8575f80fd5b505af1158015620003db573d5f803e3d5ffd5b50505050806001600160a01b0316636469c3486040518163ffffffff1660e01b81526004015f604051808303815f87803b15801562000418575f80fd5b505af11580156200042b573d5f803e3d5ffd5b505060408051600481526024810182526020810180517bffffffffffffffffffffffffffffffffffffffffffffffffffffffff166301339c2160e01b17905290515f93506001600160a01b038516925062000487919062000ad8565b5f604051808303815f865af19150503d805f8114620004c2576040519150601f19603f3d011682016040523d82523d5f602084013e620004c7565b606091505b50509050806200051e5760405162461bcd60e51b815260206004820152601060248201527f4661696c656420746f206c61756e63680000000000000000000000000000000060448201526064015b60405180910390fd5b604080516001600160a01b03858116825284166020820152338183015290517fa737b24a3fc719249b00a19b06e448cc3e3a5d5ee424d64d899dc2b5ab1393069181900360600190a15094509492505050565b5f546001600160a01b03163314620005bb5760405162461bcd60e51b815260206004820152600c60248201526b15539055551213d49256915160a21b604482015260640162000515565b6001805473ffffffffffffffffffffffffffffffffffffffff19166001600160a01b0392909216919091179055565b5f805b6103e88110156200070d575f604051806020016200060b90620007ee565b601f1982820381018352601f909101166040819052620006349088908890309060200162000a3e565b60408051601f198184030181529082905262000654929160200162000af5565b60408051601f1981840301815282825280516020918201207fff00000000000000000000000000000000000000000000000000000000000000828501523060601b6bffffffffffffffffffffffff1916602185015260358401869052605580850182905283518086039091018152607590940190925282519201919091209091506001600160a01b038086169082161015620006f65750909150620007469050565b82620007028162000b27565b9350505050620005ed565b60405162461bcd60e51b815260206004820152600d60248201526c139bc81cd85b1d08199bdd5b99609a1b604482015260640162000515565b9392505050565b5f546001600160a01b03163314620007975760405162461bcd60e51b815260206004820152600c60248201526b15539055551213d49256915160a21b604482015260640162000515565b5f805473ffffffffffffffffffffffffffffffffffffffff19166001600160a01b0383169081178255604051909133917f8be0079c531659141344cd1fd0a4f28419497f9722a3daafe3b4186f6b6457e09190a350565b6112fd8062000b4d83390190565b6001600160a01b038116811462000811575f80fd5b50565b5f6020828403121562000825575f80fd5b81356200074681620007fc565b5f6020828403121562000843575f80fd5b5035919050565b634e487b7160e01b5f52604160045260245ffd5b5f82601f8301126200086e575f80fd5b813567ffffffffffffffff808211156200088c576200088c6200084a565b604051601f8301601f19908116603f01168101908282118183101715620008b757620008b76200084a565b81604052838152866020858801011115620008d0575f80fd5b836020870160208301375f602085830101528094505050505092915050565b5f805f806080858703121562000903575f80fd5b843567ffffffffffffffff808211156200091b575f80fd5b62000929888389016200085e565b955060208701359150808211156200093f575f80fd5b506200094e878288016200085e565b93505060408501356200096181620007fc565b9396929550929360600135925050565b5f805f6060848603121562000984575f80fd5b833567ffffffffffffffff808211156200099c575f80fd5b620009aa878388016200085e565b94506020860135915080821115620009c0575f80fd5b50620009cf868287016200085e565b9250506040840135620009e281620007fc565b809150509250925092565b5f5b8381101562000a09578181015183820152602001620009ef565b50505f910152565b5f815180845262000a2a816020860160208601620009ed565b601f01601f19169290920160200192915050565b606081525f62000a52606083018662000a11565b828103602084015262000a66818662000a11565b9150506001600160a01b0383166040830152949350505050565b5f6020828403121562000a91575f80fd5b81516200074681620007fc565b6001600160a01b038316815265312a37b5b2b760d11b6020820152606060408201525f62000ad0606083018462000a11565b949350505050565b5f825162000aeb818460208701620009ed565b9190910192915050565b5f835162000b08818460208801620009ed565b83519083019062000b1e818360208801620009ed565b01949350505050565b5f6001820162000b4557634e487b7160e01b5f52601160045260245ffd5b506001019056fe60e060405234801562000010575f80fd5b50604051620012fd380380620012fd8339810160408190526200003391620001f9565b828260125f6200004484826200030a565b5060016200005383826200030a565b5060ff81166080524660a052620000696200009e565b60c0525050600680546001600160a81b0319166001600160a01b0390931692909217600160a01b179091555062000450915050565b5f7f8b73c3c69bb8fe3d512ecc4cf759cc79239f7b179b0ffacaa9a75d522b39400f5f604051620000d09190620003d6565b6040805191829003822060208301939093528101919091527fc89efdaa54c0f20c7adf612882df0950f5a951637e0307cdcb4c672f298b8bc660608201524660808201523060a082015260c00160405160208183030381529060405280519060200120905090565b634e487b7160e01b5f52604160045260245ffd5b5f82601f8301126200015c575f80fd5b81516001600160401b038082111562000179576200017962000138565b604051601f8301601f19908116603f01168101908282118183101715620001a457620001a462000138565b8160405283815260209250866020858801011115620001c1575f80fd5b5f91505b83821015620001e45785820183015181830184015290820190620001c5565b5f602085830101528094505050505092915050565b5f805f606084860312156200020c575f80fd5b83516001600160401b038082111562000223575f80fd5b62000231878388016200014c565b9450602086015191508082111562000247575f80fd5b5062000256868287016200014c565b604086015190935090506001600160a01b038116811462000275575f80fd5b809150509250925092565b600181811c908216806200029557607f821691505b602082108103620002b457634e487b7160e01b5f52602260045260245ffd5b50919050565b601f8211156200030557805f5260205f20601f840160051c81016020851015620002e15750805b601f840160051c820191505b8181101562000302575f8155600101620002ed565b50505b505050565b81516001600160401b0381111562000326576200032662000138565b6200033e8162000337845462000280565b84620002ba565b602080601f83116001811462000374575f84156200035c5750858301515b5f19600386901b1c1916600185901b178555620003ce565b5f85815260208120601f198616915b82811015620003a45788860151825594840194600190910190840162000383565b5085821015620003c257878501515f19600388901b60f8161c191681555b505060018460011b0185555b505050505050565b5f808354620003e58162000280565b60018281168015620004005760018114620004165762000444565b60ff198416875282151583028701945062000444565b875f526020805f205f5b858110156200043b5781548a82015290840190820162000420565b50505082870194505b50929695505050505050565b60805160a05160c051610e826200047b5f395f61047101525f61043c01525f6101900152610e825ff3fe608060405234801561000f575f80fd5b506004361061011c575f3560e01c80637ecebe00116100a9578063bff356181161006e578063bff3561814610273578063cf30901214610286578063d505accf1461029a578063dd62ed3e146102ad578063f77c4791146102d7575f80fd5b80637ecebe001461021357806392eefe9b1461023257806395d89b41146102455780639dc29fac1461024d578063a9059cbb14610260575f80fd5b8063313ce567116100ef578063313ce5671461018b5780633644e515146101c457806340c10f19146101cc57806342966c68146101e157806370a08231146101f4575f80fd5b806306fdde0314610120578063095ea7b31461013e57806318160ddd1461016157806323b872dd14610178575b5f80fd5b610128610302565b6040516101359190610b87565b60405180910390f35b61015161014c366004610bee565b61038d565b6040519015158152602001610135565b61016a60025481565b604051908152602001610135565b610151610186366004610c16565b6103f9565b6101b27f000000000000000000000000000000000000000000000000000000000000000081565b60405160ff9091168152602001610135565b61016a610439565b6101df6101da366004610bee565b610493565b005b6101df6101ef366004610c4f565b6104cc565b61016a610202366004610c66565b60036020525f908152604090205481565b61016a610221366004610c66565b60056020525f908152604090205481565b6101df610240366004610c66565b6104d9565b610128610566565b6101df61025b366004610bee565b610573565b61015161026e366004610bee565b6105a8565b6101df610281366004610c7f565b6105e6565b60065461015190600160a01b900460ff1681565b6101df6102a8366004610c9e565b61065e565b61016a6102bb366004610d0b565b600460209081525f928352604080842090915290825290205481565b6006546102ea906001600160a01b031681565b6040516001600160a01b039091168152602001610135565b5f805461030e90610d3c565b80601f016020809104026020016040519081016040528092919081815260200182805461033a90610d3c565b80156103855780601f1061035c57610100808354040283529160200191610385565b820191905f5260205f20905b81548152906001019060200180831161036857829003601f168201915b505050505081565b335f8181526004602090815260408083206001600160a01b038716808552925280832085905551919290917f8c5be1e5ebec7d5bd14f71427d1e84f3dd0314c0f7b2291e5b200ac8c7c3b925906103e79086815260200190565b60405180910390a35060015b92915050565b6006545f90600160a01b900460ff161561042657604051632b36b06160e01b815260040160405180910390fd5b6104318484846108b0565b949350505050565b5f7f0000000000000000000000000000000000000000000000000000000000000000461461046e5761046961099d565b905090565b507f000000000000000000000000000000000000000000000000000000000000000090565b6006546001600160a01b031633146104be576040516348f5c3ed60e01b815260040160405180910390fd5b6104c88282610a35565b5050565b6104d63382610a9f565b50565b6006546001600160a01b03163314610504576040516348f5c3ed60e01b815260040160405180910390fd5b6006805473ffffffffffffffffffffffffffffffffffffffff19166001600160a01b0383169081179091556040519081527f79f74fd5964b6943d8a1865abfb7f668c92fa3f32c0a2e3195da7d0946703ad7906020015b60405180910390a150565b6001805461030e90610d3c565b6006546001600160a01b0316331461059e576040516348f5c3ed60e01b815260040160405180910390fd5b6104c88282610a9f565b6006545f90600160a01b900460ff16156105d557604051632b36b06160e01b815260040160405180910390fd5b6105df8383610b11565b9392505050565b6006546001600160a01b03163314610611576040516348f5c3ed60e01b815260040160405180910390fd5b60068054821515600160a01b0260ff60a01b199091161790556040517fa775ba9edbd223aa9b8921ee5f2fd9db6dc84013a253ea5224fdd3c9c1369f749061055b90831515815260200190565b428410156106b35760405162461bcd60e51b815260206004820152601760248201527f5045524d49545f444541444c494e455f4558504952454400000000000000000060448201526064015b60405180910390fd5b5f60016106be610439565b6001600160a01b038a81165f8181526005602090815260409182902080546001810190915582517f6e71edae12b1b97f4d1f60370fef10105fa2faae0126114a169c64845d6126c98184015280840194909452938d166060840152608083018c905260a083019390935260c08083018b90528151808403909101815260e08301909152805192019190912061190160f01b6101008301526101028201929092526101228101919091526101420160408051601f1981840301815282825280516020918201205f84529083018083525260ff871690820152606081018590526080810184905260a0016020604051602081039080840390855afa1580156107c6573d5f803e3d5ffd5b5050604051601f1901519150506001600160a01b038116158015906107fc5750876001600160a01b0316816001600160a01b0316145b6108485760405162461bcd60e51b815260206004820152600e60248201527f494e56414c49445f5349474e455200000000000000000000000000000000000060448201526064016106aa565b6001600160a01b039081165f9081526004602090815260408083208a8516808552908352928190208990555188815291928a16917f8c5be1e5ebec7d5bd14f71427d1e84f3dd0314c0f7b2291e5b200ac8c7c3b925910160405180910390a350505050505050565b6001600160a01b0383165f9081526004602090815260408083203384529091528120545f198114610909576108e58382610d88565b6001600160a01b0386165f9081526004602090815260408083203384529091529020555b6001600160a01b0385165f9081526003602052604081208054859290610930908490610d88565b90915550506001600160a01b038085165f81815260036020526040908190208054870190555190918716907fddf252ad1be2c89b69c2b068fc378daa952ba7f163c4a11628f55a4df523b3ef9061098a9087815260200190565b60405180910390a3506001949350505050565b5f7f8b73c3c69bb8fe3d512ecc4cf759cc79239f7b179b0ffacaa9a75d522b39400f5f6040516109cd9190610d9b565b6040805191829003822060208301939093528101919091527fc89efdaa54c0f20c7adf612882df0950f5a951637e0307cdcb4c672f298b8bc660608201524660808201523060a082015260c00160405160208183030381529060405280519060200120905090565b8060025f828254610a469190610e39565b90915550506001600160a01b0382165f818152600360209081526040808320805486019055518481527fddf252ad1be2c89b69c2b068fc378daa952ba7f163c4a11628f55a4df523b3ef91015b60405180910390a35050565b6001600160a01b0382165f9081526003602052604081208054839290610ac6908490610d88565b90915550506002805482900390556040518181525f906001600160a01b038416907fddf252ad1be2c89b69c2b068fc378daa952ba7f163c4a11628f55a4df523b3ef90602001610a93565b335f90815260036020526040812080548391908390610b31908490610d88565b90915550506001600160a01b0383165f81815260036020526040908190208054850190555133907fddf252ad1be2c89b69c2b068fc378daa952ba7f163c4a11628f55a4df523b3ef906103e79086815260200190565b5f602080835283518060208501525f5b81811015610bb357858101830151858201604001528201610b97565b505f604082860101526040601f19601f8301168501019250505092915050565b80356001600160a01b0381168114610be9575f80fd5b919050565b5f8060408385031215610bff575f80fd5b610c0883610bd3565b946020939093013593505050565b5f805f60608486031215610c28575f80fd5b610c3184610bd3565b9250610c3f60208501610bd3565b9150604084013590509250925092565b5f60208284031215610c5f575f80fd5b5035919050565b5f60208284031215610c76575f80fd5b6105df82610bd3565b5f60208284031215610c8f575f80fd5b813580151581146105df575f80fd5b5f805f805f805f60e0888a031215610cb4575f80fd5b610cbd88610bd3565b9650610ccb60208901610bd3565b95506040880135945060608801359350608088013560ff81168114610cee575f80fd5b9699959850939692959460a0840135945060c09093013592915050565b5f8060408385031215610d1c575f80fd5b610d2583610bd3565b9150610d3360208401610bd3565b90509250929050565b600181811c90821680610d5057607f821691505b602082108103610d6e57634e487b7160e01b5f52602260045260245ffd5b50919050565b634e487b7160e01b5f52601160045260245ffd5b818103818111156103f3576103f3610d74565b5f8083545f60018260011c91506001831680610db857607f831692505b60208084108203610dd757634e487b7160e01b5f52602260045260245ffd5b818015610deb5760018114610e0057610e2b565b60ff1986168952841515850289019650610e2b565b5f8a8152602090205f5b86811015610e235781548b820152908501908301610e0a565b505084890196505b509498975050505050505050565b808201808211156103f3576103f3610d7456fea2646970667358221220b1dfba30603accbf6106aee8c9d82ea428adfbe151a7a73a52c975d0c0b3c08f64736f6c63430008170033a26469706673582212209b131aae46efb3f559f67e5ab59980ba1bc63312b99a61d3ad846d0a626ee3e464736f6c63430008170033","linkReferences":{}},"methodIdentifiers":{"deploy(string,string,address,bytes32)":"65b3c7c6","deployers(address)":"6a2385e8","getSalt(string,string,address)":"bf6c1a85","implContracts(uint256)":"2dc7d987","initializers(address)":"0dab589b","orchestrator()":"b74795d9","owner()":"8da5cb5b","transferOwnership(address)":"f2fde38b","updateOrchestrator(address)":"8d8bb213"},"id":58}