{"abi":[{"type":"function","name":"INIT_SLOT","inputs":[],"outputs":[{"name":"","type":"bytes32","internalType":"bytes32"}],"stateMutability":"view"},{"type":"function","name":"INTEREST_PER_DIEM","inputs":[],"outputs":[{"name":"","type":"uint256","internalType":"uint256"}],"stateMutability":"view"},{"type":"function","name":"LABEL","inputs":[],"outputs":[{"name":"","type":"bytes32","internalType":"bytes32"}],"stateMutability":"view"},{"type":"function","name":"VERSION","inputs":[],"outputs":[{"name":"","type":"uint8","internalType":"uint8"}],"stateMutability":"view"},{"type":"function","name":"borrow","inputs":[{"name":"_user","type":"address","internalType":"address"},{"name":"_bTokensIn","type":"uint256","internalType":"uint256"},{"name":"_daysAdded","type":"uint256","internalType":"uint256"}],"outputs":[{"name":"principal_","type":"uint256","internalType":"uint256"},{"name":"interest_","type":"uint256","internalType":"uint256"},{"name":"newExpiry_","type":"uint256","internalType":"uint256"}],"stateMutability":"nonpayable"},{"type":"function","name":"configureDependencies","inputs":[],"outputs":[{"name":"","type":"bytes32[]","internalType":"bytes32[]"}],"stateMutability":"nonpayable"},{"type":"function","name":"decreasePosition","inputs":[{"name":"_reservesIn","type":"uint256","internalType":"uint256"},{"name":"_totalRepayment","type":"uint256","internalType":"uint256"}],"outputs":[{"name":"collateralReturned_","type":"uint256","internalType":"uint256"}],"stateMutability":"nonpayable"},{"type":"function","name":"estimateBorrow","inputs":[{"name":"_account","type":"tuple","internalType":"struct CreditAccount","components":[{"name":"credit","type":"uint256","internalType":"uint256"},{"name":"collateral","type":"uint256","internalType":"uint256"},{"name":"expiry","type":"uint256","internalType":"uint256"}]},{"name":"_bTokensIn","type":"uint256","internalType":"uint256"},{"name":"_daysAdded","type":"uint256","internalType":"uint256"}],"outputs":[{"name":"newPrincipal_","type":"uint256","internalType":"uint256"},{"name":"newInterest_","type":"uint256","internalType":"uint256"},{"name":"newExpiry_","type":"uint256","internalType":"uint256"}],"stateMutability":"view"},{"type":"function","name":"estimateExtend","inputs":[{"name":"_account","type":"tuple","internalType":"struct CreditAccount","components":[{"name":"credit","type":"uint256","internalType":"uint256"},{"name":"collateral","type":"uint256","internalType":"uint256"},{"name":"expiry","type":"uint256","internalType":"uint256"}]},{"name":"_daysAdded","type":"uint256","internalType":"uint256"}],"outputs":[{"name":"newExpiry_","type":"uint256","internalType":"uint256"},{"name":"reservesNeeded_","type":"uint256","internalType":"uint256"}],"stateMutability":"view"},{"type":"function","name":"extend","inputs":[{"name":"_user","type":"address","internalType":"address"},{"name":"_daysAdded","type":"uint256","internalType":"uint256"}],"outputs":[{"name":"newExpiry_","type":"uint256","internalType":"uint256"}],"stateMutability":"nonpayable"},{"type":"function","name":"getInterestForCredit","inputs":[{"name":"_creditAvailable","type":"uint256","internalType":"uint256"},{"name":"_daysAdded","type":"uint256","internalType":"uint256"}],"outputs":[{"name":"interest_","type":"uint256","internalType":"uint256"}],"stateMutability":"view"},{"type":"function","name":"getNewExpiry","inputs":[{"name":"_account","type":"tuple","internalType":"struct CreditAccount","components":[{"name":"credit","type":"uint256","internalType":"uint256"},{"name":"collateral","type":"uint256","internalType":"uint256"},{"name":"expiry","type":"uint256","internalType":"uint256"}]},{"name":"_daysAdded","type":"uint256","internalType":"uint256"}],"outputs":[{"name":"newExpiry_","type":"uint256","internalType":"uint256"},{"name":"newDaysCharged_","type":"uint256","internalType":"uint256"},{"name":"remainingDaysCharged_","type":"uint256","internalType":"uint256"}],"stateMutability":"view"},{"type":"function","name":"increasePosition","inputs":[{"name":"_bTokensIn","type":"uint256","internalType":"uint256"},{"name":"_targetCollateral","type":"uint256","internalType":"uint256"},{"name":"_daysAdded","type":"uint256","internalType":"uint256"}],"outputs":[{"name":"reservesOut_","type":"uint256","internalType":"uint256"},{"name":"newPrincipal_","type":"uint256","internalType":"uint256"},{"name":"newInterest_","type":"uint256","internalType":"uint256"},{"name":"newExpiry_","type":"uint256","internalType":"uint256"}],"stateMutability":"nonpayable"},{"type":"function","name":"initializeComponent","inputs":[],"outputs":[],"stateMutability":"nonpayable"},{"type":"function","name":"isInstalled","inputs":[],"outputs":[{"name":"","type":"bool","internalType":"bool"}],"stateMutability":"view"},{"type":"function","name":"isMutable","inputs":[],"outputs":[{"name":"","type":"bool","internalType":"bool"}],"stateMutability":"view"},{"type":"function","name":"isSolvent","inputs":[],"outputs":[{"name":"","type":"bool","internalType":"bool"}],"stateMutability":"view"},{"type":"function","name":"repay","inputs":[{"name":"_user","type":"address","internalType":"address"},{"name":"reservesIn_","type":"uint256","internalType":"uint256"}],"outputs":[{"name":"collateralReturned_","type":"uint256","internalType":"uint256"}],"stateMutability":"nonpayable"},{"type":"function","name":"requestRoutes","inputs":[],"outputs":[{"name":"hookedCalls_","type":"bytes4[]","internalType":"bytes4[]"},{"name":"nonHookedCalls_","type":"bytes4[]","internalType":"bytes4[]"}],"stateMutability":"view"},{"type":"function","name":"supportsInterface","inputs":[{"name":"interfaceId_","type":"bytes4","internalType":"bytes4"}],"outputs":[{"name":"","type":"bool","internalType":"bool"}],"stateMutability":"pure"},{"type":"event","name":"Borrow","inputs":[{"name":"user","type":"address","indexed":true,"internalType":"address"},{"name":"bTokensIn","type":"uint256","indexed":false,"internalType":"uint256"},{"name":"daysAdded","type":"uint256","indexed":false,"internalType":"uint256"},{"name":"principal","type":"uint256","indexed":false,"internalType":"uint256"},{"name":"interest","type":"uint256","indexed":false,"internalType":"uint256"},{"name":"expiry","type":"uint256","indexed":false,"internalType":"uint256"}],"anonymous":false},{"type":"event","name":"DecreasePosition","inputs":[{"name":"user","type":"address","indexed":true,"internalType":"address"},{"name":"totalRepaid","type":"uint256","indexed":false,"internalType":"uint256"},{"name":"collateralReturned","type":"uint256","indexed":false,"internalType":"uint256"}],"anonymous":false},{"type":"event","name":"IncreasePosition","inputs":[{"name":"user","type":"address","indexed":true,"internalType":"address"},{"name":"bTokensIn","type":"uint256","indexed":false,"internalType":"uint256"},{"name":"targetCollateral","type":"uint256","indexed":false,"internalType":"uint256"},{"name":"daysAdded","type":"uint256","indexed":false,"internalType":"uint256"},{"name":"reservesOut","type":"uint256","indexed":false,"internalType":"uint256"},{"name":"principal","type":"uint256","indexed":false,"internalType":"uint256"},{"name":"interest","type":"uint256","indexed":false,"internalType":"uint256"},{"name":"expiry","type":"uint256","indexed":false,"internalType":"uint256"}],"anonymous":false},{"type":"event","name":"Repay","inputs":[{"name":"user","type":"address","indexed":true,"internalType":"address"},{"name":"creditIn","type":"uint256","indexed":false,"internalType":"uint256"},{"name":"collateralOut","type":"uint256","indexed":false,"internalType":"uint256"}],"anonymous":false},{"type":"error","name":"CannotDeleverageOtherUsers","inputs":[]},{"type":"error","name":"CannotLeverageOtherUsers","inputs":[]},{"type":"error","name":"CannotRepayInFloor","inputs":[]},{"type":"error","name":"Component_NotPermitted","inputs":[]},{"type":"error","name":"Component_OnlyDelegatecall","inputs":[]},{"type":"error","name":"Component_OnlyProxyKernel","inputs":[{"name":"sender_","type":"address","internalType":"address"}]},{"type":"error","name":"Insolvent","inputs":[]},{"type":"error","name":"InvalidAmount","inputs":[]},{"type":"error","name":"InvalidCaller","inputs":[]},{"type":"error","name":"InvalidExpiry","inputs":[]},{"type":"error","name":"NoCollateralAvailable","inputs":[]},{"type":"error","name":"NoCreditAvailable","inputs":[]}],"bytecode":{"object":"0x60a060405234801561000f575f80fd5b50306080526080516138056100335f395f8181610e700152610ec101526138055ff3fe608060405234801561000f575f80fd5b5060043610610127575f3560e01c80636a55d744116100a9578063b468f6441161006e578063b468f64414610261578063b8d1e89014610274578063c1bce0b7146102a7578063f55b134e146102ba578063ffa1ad74146102d0575f80fd5b80636a55d744146102015780637a393205146102295780638409a1231461022f5780639459b875146102425780639d8a307b14610257575f80fd5b806322867d78116100ef57806322867d78146101b85780633bacfca9146101cb57806343cdab2f146101de5780635ce23950146101e65780636a2d81b6146101ee575f80fd5b806301ffc9a71461012b5780630262bbda1461016457806304c785bc146101925780630f38d8c31461019a57806311d7b7ff146101b0575b5f80fd5b61014f610139366004612f75565b6001600160e01b03191663186e9de360e11b1490565b60405190151581526020015b60405180910390f35b610177610172366004613066565b6102df565b6040805193845260208401929092529082015260600161015b565b61014f610492565b6101a2610503565b60405190815260200161015b565b6101a2610542565b6101a26101c63660046130ae565b610554565b6101a26101d93660046130d8565b6105ae565b6101a26105f5565b61014f610626565b6101a26101fc3660046130d8565b610ab9565b61021461020f3660046130f8565b610baa565b6040805192835260208301919091520161015b565b5f61014f565b6101a261023d3660046130ae565b610bd3565b61024a610e64565b60405161015b9190613121565b61025f610eb7565b005b61017761026f3660046130f8565b610f0a565b610287610282366004613164565b610f7d565b60408051948552602085019390935291830152606082015260800161015b565b6101776102b536600461318d565b610fff565b6102c261107a565b60405161015b929190613203565b6040516001815260200161015b565b5f805f806102eb61108d565b604080516101408101825282546001600160a01b03908116808352600185015482166020808501919091526002860154831684860152600386015483166060850152600480870154841660808601526005870154841660a0860152600687015480851660c0870152600160a01b900462ffffff1660e086015260078701549093166101008501526008909501546101208401528351639fd57c1160e01b815293519295505f946103f2949193639fd57c1193838101938290030181865afa1580156103b8573d5f803e3d5ffd5b505050506040513d601f19601f820116820180604052508101906103dc9190613227565b888a602001516103ec9190613252565b9061109d565b9050805f0361040b575f805f9450945094505050610489565b5f806104178a89610f0a565b91965090925090506104298382610ab9565b8a5161043f906104399086613265565b84610ab9565b6104499190613252565b95505f868b5f015161045b9190613252565b9050838110610477575f805f9750975097505050505050610489565b6104818185613265565b975050505050505b93509350939050565b5f30634986b3f96104a1610503565b6040518263ffffffff1660e01b81526004016104bf91815260200190565b602060405180830381865afa1580156104da573d5f803e3d5ffd5b505050506040513d601f19601f820116820180604052508101906104fe919061328c565b905090565b5f6104fe60405180604001604052600e8152806020017f437265646974466163696c6974790000000000000000000000000000000000008152506110c8565b5f61054b61108d565b60080154905090565b5f6105608383846110d2565b60408051848152602081018390529192506001600160a01b038516917f77c6871227e5d2dec8dadd5354f78453203e22e669cd0ec4c19d9a8c5edb31d091015b60405180910390a292915050565b5f6105ba3384846110d2565b604080518481526020810183905291925033917fe0fe7d4ab6fa76d9f9777215955fd8aa793afd4c75fc964a5ad7ef5ce02ae01a91016105a0565b5f6105fe610503565b6040805160208101929092520160405160208183030381529060405280519060200120905090565b5f8061063061108d565b604080516101408101825282546001600160a01b039081168083526001850154821660208401526002850154821683850152600385015482166060840152600480860154831660808501526005860154831660a0850152600686015480841660c0860152600160a01b900462ffffff1660e085015260078601549092166101008401526008909401546101208301529151636f6781d360e01b81529093505f9291636f6781d3916106e3918591016132c5565b60c060405180830381865afa1580156106fe573d5f803e3d5ffd5b505050506040513d601f19601f8201168201806040525081019061072291906132f2565b90505f825f01516001600160a01b0316636f6781d360016040518263ffffffff1660e01b815260040161075591906132c5565b60c060405180830381865afa158015610770573d5f803e3d5ffd5b505050506040513d601f19601f8201168201806040525081019061079491906132f2565b90505f835f01516001600160a01b0316636f6781d360026040518263ffffffff1660e01b81526004016107c791906132c5565b60c060405180830381865afa1580156107e2573d5f803e3d5ffd5b505050506040513d601f19601f8201168201806040525081019061080691906132f2565b90505f845f01516001600160a01b031663ba9ff1ac8560200151866040015188604001516001600160a01b031663fc7b9c186040518163ffffffff1660e01b8152600401602060405180830381865afa158015610865573d5f803e3d5ffd5b505050506040513d601f19601f820116820180604052508101906108899190613227565b89602001516001600160a01b031663b5aca5706040518163ffffffff1660e01b8152600401602060405180830381865afa1580156108c9573d5f803e3d5ffd5b505050506040513d601f19601f820116820180604052508101906108ed9190613227565b6108f79190613252565b6040808a015190516001600160e01b031960e087901b1681526001600160a01b03948516600482015292841660248401526044830191909152919091166064820152608401602060405180830381865afa158015610957573d5f803e3d5ffd5b505050506040513d601f19601f8201168201806040525081019061097b9190613227565b90505f8260a001518460a001518660a00151846109989190613252565b6109a29190613252565b6109ac9190613252565b60a08701516040516370a0823160e01b81526001600160a01b03909116600482018190529192505f91906370a0823190602401602060405180830381865afa1580156109fa573d5f803e3d5ffd5b505050506040513d601f19601f82011682018060405250810190610a1e9190613227565b846060015186606001518960a001516001600160a01b03166318160ddd6040518163ffffffff1660e01b8152600401602060405180830381865afa158015610a68573d5f803e3d5ffd5b505050506040513d601f19601f82011682018060405250810190610a8c9190613227565b610a969190613265565b610aa09190613265565b610aaa9190613265565b90911015979650505050505050565b5f80610ac361108d565b604080516101408101825282546001600160a01b03908116825260018401548116602083015260028401548116928201929092526003830154821660608201526004830154821660808201526005830154821660a0820152600683015480831660c0830152600160a01b900462ffffff1660e0820152600783015490911661010082015260089091015461012082018190529091505f90610b8790610b6e908690633b9aca006116c0565b610b8090670de0b6b3a7640000613252565b86906116e4565b9050610b938186613265565b610ba190633b9aca00613383565b95945050505050565b5f805f610bb78585610f0a565b5086519194509150610bc99082610ab9565b9150509250929050565b5f80610bdd61108d565b604080516101408101825282546001600160a01b03908116825260018401548116602083018190526002850154821683850152600385015482166060840152600480860154831660808501526005860154831660a0850152600686015480841660c0860152600160a01b900462ffffff1660e0850152600786015490921661010084015260089094015461012083015282516307ed68dd60e01b815292519194506307ed68dd92808201925f92909182900301818387803b158015610ca0575f80fd5b505af1158015610cb2573d5f803e3d5ffd5b50505050602081015160405163084b0a9760e01b81526001600160a01b0386811660048301525f92169063084b0a9790602401606060405180830381865afa158015610d00573d5f803e3d5ffd5b505050506040513d601f19601f82011682018060405250810190610d24919061339a565b905080604001515f1480610d36575083155b15610d535760405162d36c8560e81b815260040160405180910390fd5b5f610d5e8286610baa565b60808501519195509150610d7d906001600160a01b0316333084611731565b8251604051636e28777560e01b81525f600482015260248101839052600160448201526001600160a01b0390911690636e287775906064015f604051808303815f87803b158015610dcc575f80fd5b505af1158015610dde573d5f803e3d5ffd5b50505050602083810151908301518351604051630587344360e01b81526001600160a01b038a8116600483015260248201939093526044810191909152606481018790529116906305873443906084015f604051808303815f87803b158015610e45575f80fd5b505af1158015610e57573d5f803e3d5ffd5b5050505050505092915050565b60606001600160a01b037f0000000000000000000000000000000000000000000000000000000000000000163003610eaf57604051631dd328bf60e01b815260040160405180910390fd5b6104fe6117d7565b6001600160a01b037f0000000000000000000000000000000000000000000000000000000000000000163003610f0057604051631dd328bf60e01b815260040160405180910390fd5b610f08611c24565b565b5f805f83915084604001515f03610f4157610f26600183613252565b9150610f3a84610f34611d8a565b90611d94565b9250610f76565b6040850151610f509085611d94565b9250610f688560400151610f62611d8a565b90611dbb565b610f73906001613252565b90505b9250925092565b5f805f80610f8d33888888611df1565b604080518c8152602081018c90529081018a9052606081018590526080810184905260a0810183905260c081018290529397509195509350915033907fcb0e340864fac6c5ce9dc8fe53952fcf8b4083e4daebed332488f0fe2aa33e839060e00160405180910390a293509350935093565b5f805f61100e86868787611df1565b604080518a8152602081018a9052908101849052606081018390526080810182905292965090945092506001600160a01b03881691507f212a25b7e6d62ca82a704bf5f0513e2d0840e89914c62639dceabfb40a34491a9060a00160405180910390a293509350939050565b60608061108561220b565b915091509091565b5f806110976105f5565b92915050565b5f815f190483118202156110b85763bac65e5b5f526004601cfd5b50670de0b6b3a764000091020490565b5f611097826133d4565b5f806110dc61108d565b604080516101408101825282546001600160a01b03908116825260018401548116602083015260028401548116928201929092526003830154821660608201526004830154821660808201526005830154821660a0820152600683015480831660c0830152600160a01b900462ffffff1660e08201526007830154909116610100820152600890910154610120820152905082158061117a57508383105b156111985760405163162908e360e11b815260040160405180910390fd5b80602001516001600160a01b03166307ed68dd6040518163ffffffff1660e01b81526004015f604051808303815f87803b1580156111d4575f80fd5b505af11580156111e6573d5f803e3d5ffd5b5050505080604001516001600160a01b0316638e57c65c6040518163ffffffff1660e01b81526004015f604051808303815f87803b158015611226575f80fd5b505af1158015611238573d5f803e3d5ffd5b50505050602081015160405163084b0a9760e01b81526001600160a01b0387811660048301525f92169063084b0a9790602401606060405180830381865afa158015611286573d5f803e3d5ffd5b505050506040513d601f19601f820116820180604052508101906112aa919061339a565b8051602082015186821882881102909618959192505f916112cc918790612572565b905082602001516001600160a01b03166305873443888385602001516112f29190613265565b85516112ff908a90613265565b60408088015190516001600160e01b031960e087901b1681526001600160a01b0390941660048501526024840192909252604483015260648201526084015f604051808303815f87803b158015611354575f80fd5b505af1158015611366573d5f803e3d5ffd5b5050845160405163630369af60e01b81525f93506001600160a01b03909116915063630369af9061139b9084906004016132c5565b6080604051808303815f875af11580156113b7573d5f803e3d5ffd5b505050506040513d601f19601f820116820180604052508101906113db91906133fa565b50925050508686116114fd576080840151611401906001600160a01b0316333089611731565b60a084015160405163a9059cbb60e01b81526001600160a01b038a811660048301526024820185905293965086939091169063a9059cbb906044016020604051808303815f875af1158015611458573d5f803e3d5ffd5b505050506040513d601f19601f8201168201806040525081019061147c919061328c565b5083516001600160a01b031663888265465f6114988985613252565b6040518363ffffffff1660e01b81526004016114b592919061342d565b6060604051808303815f875af11580156114d1573d5f803e3d5ffd5b505050506040513d601f19601f820116820180604052508101906114f59190613448565b50505061166a565b336001600160a01b03891614611526576040516348f5c3ed60e01b815260040160405180910390fd5b8615611546576080840151611546906001600160a01b031633308a611731565b5f6115618560a00151848a8a61155c9190613265565b61260e565b85519091506001600160a01b031663888265465f61157f8a86613252565b6040518363ffffffff1660e01b815260040161159c92919061342d565b6060604051808303815f875af11580156115b8573d5f803e3d5ffd5b505050506040513d601f19601f820116820180604052508101906115dc9190613448565b50505080831115611668576115f18184613265565b60a086015160405163a9059cbb60e01b8152336004820152602481018390529197506001600160a01b03169063a9059cbb906044016020604051808303815f875af1158015611642573d5f803e3d5ffd5b505050506040513d601f19601f82011682018060405250810190611666919061328c565b505b505b6116726127f9565b156116905760405163091c1d2560e21b815260040160405180910390fd5b611698610626565b6116b557604051631f84400760e31b815260040160405180910390fd5b505050509392505050565b5f825f1904841183021582026116dd5763ad251c275f526004601cfd5b5091020490565b5f7812725dd1d243aba0e75fe645cc4873f9e65afe688c928e1f218311670de0b6b3a76400000215820261171f57637c5f487d5f526004601cfd5b50670de0b6b3a7640000919091020490565b5f6040516323b872dd60e01b81526001600160a01b03851660048201526001600160a01b038416602482015282604482015260205f6064835f8a5af13d15601f3d1160015f5114161716915050806117d05760405162461bcd60e51b815260206004820152601460248201527f5452414e534645525f46524f4d5f4641494c454400000000000000000000000060448201526064015b60405180910390fd5b5050505050565b60605f6117e261108d565b604080516003808252608082019092529192506020820160608036833701905050915061182d6040518060400160405260078152806020016642504f4f4c763160c81b8152506110c8565b825f8151811061183f5761183f613471565b602002602001018181525050611873604051806040016040526007815280602001664352454454763160c81b8152506110c8565b8260018151811061188657611886613471565b6020026020010181815250506118ba604051806040016040526007815280602001664c4f4f5053763160c81b8152506110c8565b826002815181106118cd576118cd613471565b602090810291909101810191909152815460408051630c07ac2160e11b815290516001600160a01b039092169263180f5842926004808401938290030181865afa15801561191d573d5f803e3d5ffd5b505050506040513d601f19601f820116820180604052508101906119419190613485565b6005820180546001600160a01b0319166001600160a01b0392831617905581546040805163669949ef60e11b81529051919092169163cd3293de9160048083019260209291908290030181865afa15801561199e573d5f803e3d5ffd5b505050506040513d601f19601f820116820180604052508101906119c29190613485565b600482810180546001600160a01b0319166001600160a01b039384161790558254604080516316f0115b60e01b8152905191909316926316f0115b92818101926020929091908290030181865afa158015611a1f573d5f803e3d5ffd5b505050506040513d601f19601f82011682018060405250810190611a439190613485565b6006820180546001600160a01b0319166001600160a01b03928316179055815460408051634c69a6c960e01b815290519190921691634c69a6c99160048083019260209291908290030181865afa158015611aa0573d5f803e3d5ffd5b505050506040513d601f19601f82011682018060405250810190611ac491906134b2565b60068201805462ffffff92909216600160a01b0262ffffff60a01b199092169190911790556005810154600182015460405163095ea7b360e01b81526001600160a01b0391821660048201525f19602482015291169063095ea7b3906044016020604051808303815f875af1158015611b3f573d5f803e3d5ffd5b505050506040513d601f19601f82011682018060405250810190611b63919061328c565b5080546004820154611b83916001600160a01b0391821691165f196129df565b6005810154600382015460405163095ea7b360e01b81526001600160a01b0391821660048201525f19602482015291169063095ea7b3906044016020604051808303815f875af1158015611bd9573d5f803e3d5ffd5b505050506040513d601f19601f82011682018060405250810190611bfd919061328c565b5060038101546004820154611c20916001600160a01b0391821691165f196129df565b5090565b5f3090505f816001600160a01b031663b74795d96040518163ffffffff1660e01b8152600401602060405180830381865afa158015611c65573d5f803e3d5ffd5b505050506040513d601f19601f82011682018060405250810190611c899190613485565b604051635fa32f5760e01b8152631253925560e21b60048201526001600160a01b039190911690635fa32f57906024015f60405180830381865afa158015611cd3573d5f803e3d5ffd5b505050506040513d5f823e601f3d908101601f19168201604052611cfa91908101906134cb565b806020019051810190611d0d919061359d565b90505f611d1861108d565b60608301516003820180546001600160a01b0319166001600160a01b0390921691909117905560a0830151909150611d539061016d906136b1565b60088201558054306001600160a01b0319918216811783556001830180548316821790556002909201805490911690911790555050565b5f6104fe42612a70565b5f611db4611da58362015180613383565b611daf9085613252565b612a70565b9392505050565b5f81831115611de35762015180611dd28385613265565b611ddc91906136b1565b9050611097565b62015180611dd28484613265565b5f805f805f611dfe61108d565b604080516101408101825282546001600160a01b03908116825260018401548116602083018190526002850154821683850152600385015482166060840152600480860154831660808501526005860154831660a0850152600686015480841660c0860152600160a01b900462ffffff1660e0850152600786015490921661010084015260089094015461012083015282516307ed68dd60e01b815292519194506307ed68dd92808201925f92909182900301818387803b158015611ec1575f80fd5b505af1158015611ed3573d5f803e3d5ffd5b5050505080604001516001600160a01b0316638e57c65c6040518163ffffffff1660e01b81526004015f604051808303815f87803b158015611f13575f80fd5b505af1158015611f25573d5f803e3d5ffd5b50505050602081015160405163084b0a9760e01b81526001600160a01b038b811660048301525f92169063084b0a9790602401606060405180830381865afa158015611f73573d5f803e3d5ffd5b505050506040513d601f19601f82011682018060405250810190611f97919061339a565b905080604001515f148015611faa575086155b15611fc75760405162d36c8560e81b815260040160405180910390fd5b88881015611fe85760405163162908e360e11b815260040160405180910390fd5b611ff38189896102df565b9196509450925084158015612006575083155b156120245760405163fabbc50b60e01b815260040160405180910390fd5b88156120a65760a08201516040516323b872dd60e01b8152336004820152306024820152604481018b90526001600160a01b03909116906323b872dd906064016020604051808303815f875af1158015612080573d5f803e3d5ffd5b505050506040513d601f19601f820116820180604052508101906120a4919061328c565b505b8888036120c0578495506120bb8a8786612aa1565b612134565b336001600160a01b038b16146120e9576040516348f5c3ed60e01b815260040160405180910390fd5b6120f4308686612aa1565b5f61210a8360800151878c8c61155c9190613265565b90506121168187613265565b6080840151909750612132906001600160a01b03163389612eea565b505b81602001516001600160a01b031663058734438b8a84602001516121589190613252565b84518890612167908b90613252565b6121719190613252565b6040516001600160e01b031960e086901b1681526001600160a01b03909316600484015260248301919091526044820152606481018690526084015f604051808303815f87803b1580156121c3575f80fd5b505af11580156121d5573d5f803e3d5ffd5b505050506121e1610626565b6121fe57604051631f84400760e31b815260040160405180910390fd5b5050945094509450949050565b60608060058061221a816136c4565b915067ffffffffffffffff81111561223457612234612f9c565b60405190808252806020026020018201604052801561225d578160200160208202803683370190505b50925063c1bce0b760e01b8382612273816136c4565b93508151811061228557612285613471565b6001600160e01b031990921660209283029190910190910152630b8d1e8960e41b83826122b1816136c4565b9350815181106122c3576122c3613471565b6001600160e01b031990921660209283029190910190910152630450cfaf60e31b83826122ef816136c4565b93508151811061230157612301613471565b6001600160e01b031990921660209283029190910190910152633bacfca960e01b838261232d816136c4565b93508151811061233f5761233f613471565b6001600160e01b0319909216602092830291909101909101528251638409a12360e01b9084908390811061237557612375613471565b6001600160e01b03199092166020928302919091019091015260048061239a816136c4565b915067ffffffffffffffff8111156123b4576123b4612f9c565b6040519080825280602002602001820160405280156123dd578160200160208202803683370190505b5092506301315ded60e11b83826123f3816136c4565b93508151811061240557612405613471565b6001600160e01b0319909216602092830291909101909101526311d7b7ff60e01b8382612431816136c4565b93508151811061244357612443613471565b6001600160e01b031990921660209283029190910190910152633516c0db60e11b838261246f816136c4565b93508151811061248157612481613471565b6001600160e01b0319909216602092830291909101909101528251631a9575d160e21b908490839081106124b7576124b7613471565b6001600160e01b031990921660209283029190910190910152811561251e5760405162461bcd60e51b815260206004820152601060248201527f6261642063616c6c7320636f6e6669670000000000000000000000000000000060448201526064016117c7565b801561256c5760405162461bcd60e51b815260206004820152601060248201527f62616420766965777320636f6e6669670000000000000000000000000000000060448201526064016117c7565b50509091565b8282025f1983850981811082019003806125a157826125985763ae47f7025f526004601cfd5b50819004611db4565b8083116125b55763ae47f7025f526004601cfd5b828486095f84810385169485900494848311909303908390038390046001010292030417600260038302811880840282030280840282030280840282030280840282030280840282030280840290910302029392505050565b5f8061261861108d565b604080516101408101825282546001600160a01b039081168252600184015481166020808401919091526002850154821683850152600385015482166060840181905260048601548316608085019081526005870154841660a0860152600687015480851660c0870152600160a01b900462ffffff1660e0860152600787015484166101008087019190915260089097015461012086015285519687019095528a831680875294519396509463db3e21989490939184019291909116146126e35784608001516126e9565b8460a001515b6001600160a01b031681526020018460e0015162ffffff168152602001306001600160a01b031681526020014281526020018681526020018781526020015f6001600160a01b03168152506040518263ffffffff1660e01b81526004016127b991905f610100820190506001600160a01b0380845116835280602085015116602084015262ffffff60408501511660408401528060608501511660608401526080840151608084015260a084015160a084015260c084015160c08401528060e08501511660e08401525092915050565b6020604051808303815f875af11580156127d5573d5f803e3d5ffd5b505050506040513d601f19601f82011682018060405250810190610ba19190613227565b5f8061280361108d565b604080516101408101825282546001600160a01b03908116808352600185015482166020808501919091526002860154831684860152600386015483166060850152600480870154841660808601526005870154841660a0860152600687015480851660c0870152600160a01b900462ffffff1660e0860152600787015490931661010085015260089095015461012084015283516316f0115b60e01b815293519295505f9490936316f0115b938184019390918290030181865afa1580156128ce573d5f803e3d5ffd5b505050506040513d601f19601f820116820180604052508101906128f29190613485565b6001600160a01b0316633850c7bd6040518163ffffffff1660e01b815260040160e060405180830381865afa15801561292d573d5f803e3d5ffd5b505050506040513d601f19601f8201168201806040525081019061295191906136d9565b50508651604051632fcc4dd960e21b81529496505f95506001600160a01b03169363bf313764935061298992508591506004016132c5565b6040805180830381865afa1580156129a3573d5f803e3d5ffd5b505050506040513d601f19601f820116820180604052508101906129c79190613763565b9050806020015160020b8260020b1315935050505090565b5f60405163095ea7b360e01b81526001600160a01b038416600482015282602482015260205f6044835f895af13d15601f3d1160015f511416171691505080612a6a5760405162461bcd60e51b815260206004820152600e60248201527f415050524f56455f4641494c454400000000000000000000000000000000000060448201526064016117c7565b50505050565b5f6001612a8062015180846137bc565b612a8a9084613265565b612a979062015180613252565b6110979190613265565b5f612aaa61108d565b604080516101408101825282546001600160a01b03908116825260018401548116602083015260028401548116928201929092526003830154821660608201526004830154821660808201526005830154821660a0820152600683015480831660c0830152600160a01b900462ffffff1660e0820152600783015490911661010082015260089091015461012082015290505f612b478385613252565b90505f825f01516001600160a01b031663630369af5f6040518263ffffffff1660e01b8152600401612b7991906132c5565b6080604051808303815f875af1158015612b95573d5f803e3d5ffd5b505050506040513d601f19601f82011682018060405250810190612bb991906133fa565b5092505050818110612c455782516001600160a01b031663888265465f612be08585613265565b6040518363ffffffff1660e01b8152600401612bfd92919061342d565b6060604051808303815f875af1158015612c19573d5f803e3d5ffd5b505050506040513d601f19601f82011682018060405250810190612c3d9190613448565b505050612e54565b825160405163630369af60e01b81525f916001600160a01b03169063630369af90612c75906001906004016132c5565b6080604051808303815f875af1158015612c91573d5f803e3d5ffd5b505050506040513d601f19601f82011682018060405250810190612cb591906133fa565b50925050508082612cc69190613252565b9150828210612d505783516001600160a01b031663888265466001612ceb8686613265565b6040518363ffffffff1660e01b8152600401612d0892919061342d565b6060604051808303815f875af1158015612d24573d5f803e3d5ffd5b505050506040513d601f19601f82011682018060405250810190612d489190613448565b505050612e52565b835160405163630369af60e01b81525f916001600160a01b03169063630369af90612d80906002906004016132c5565b6080604051808303815f875af1158015612d9c573d5f803e3d5ffd5b505050506040513d601f19601f82011682018060405250810190612dc091906133fa565b50925050508083612dd19190613252565b85519093506001600160a01b031663888265466002612df08787613265565b6040518363ffffffff1660e01b8152600401612e0d92919061342d565b6060604051808303815f875af1158015612e29573d5f803e3d5ffd5b505050506040513d601f19601f82011682018060405250810190612e4d9190613448565b505050505b505b8251604051636e28777560e01b81525f600482015260248101869052600160448201526001600160a01b0390911690636e287775906064015f604051808303815f87803b158015612ea3575f80fd5b505af1158015612eb5573d5f803e3d5ffd5b505050506001600160a01b0386163014612ee2576080830151612ee2906001600160a01b03168787612eea565b505050505050565b5f60405163a9059cbb60e01b81526001600160a01b038416600482015282602482015260205f6044835f895af13d15601f3d1160015f511416171691505080612a6a5760405162461bcd60e51b815260206004820152600f60248201527f5452414e534645525f4641494c4544000000000000000000000000000000000060448201526064016117c7565b5f60208284031215612f85575f80fd5b81356001600160e01b031981168114611db4575f80fd5b634e487b7160e01b5f52604160045260245ffd5b6040516060810167ffffffffffffffff81118282101715612fd357612fd3612f9c565b60405290565b6040516101c0810167ffffffffffffffff81118282101715612fd357612fd3612f9c565b604051601f8201601f1916810167ffffffffffffffff8111828210171561302657613026612f9c565b604052919050565b5f6060828403121561303e575f80fd5b613046612fb0565b905081358152602082013560208201526040820135604082015292915050565b5f805f60a08486031215613078575f80fd5b613082858561302e565b95606085013595506080909401359392505050565b6001600160a01b03811681146130ab575f80fd5b50565b5f80604083850312156130bf575f80fd5b82356130ca81613097565b946020939093013593505050565b5f80604083850312156130e9575f80fd5b50508035926020909101359150565b5f8060808385031215613109575f80fd5b613113848461302e565b946060939093013593505050565b602080825282518282018190525f9190848201906040850190845b818110156131585783518352928401929184019160010161313c565b50909695505050505050565b5f805f60608486031215613176575f80fd5b505081359360208301359350604090920135919050565b5f805f6060848603121561319f575f80fd5b83356131aa81613097565b95602085013595506040909401359392505050565b5f815180845260208085019450602084015f5b838110156131f85781516001600160e01b031916875295820195908201906001016131d2565b509495945050505050565b604081525f61321560408301856131bf565b8281036020840152610ba181856131bf565b5f60208284031215613237575f80fd5b5051919050565b634e487b7160e01b5f52601160045260245ffd5b808201808211156110975761109761323e565b818103818111156110975761109761323e565b80518015158114613287575f80fd5b919050565b5f6020828403121561329c575f80fd5b611db482613278565b600381106132c157634e487b7160e01b5f52602160045260245ffd5b9052565b6020810161109782846132a5565b80516fffffffffffffffffffffffffffffffff81168114613287575f80fd5b5f60c08284031215613302575f80fd5b60405160c0810181811067ffffffffffffffff8211171561332557613325612f9c565b604052613331836132d3565b8152602083015161334181613097565b6020820152604083015161335481613097565b80604083015250606083015160608201526080830151608082015260a083015160a08201528091505092915050565b80820281158282048414176110975761109761323e565b5f606082840312156133aa575f80fd5b6133b2612fb0565b8251815260208301516020820152604083015160408201528091505092915050565b805160208083015191908110156133f4575f198160200360031b1b821691505b50919050565b5f805f806080858703121561340d575f80fd5b505082516020840151604085015160609095015191969095509092509050565b6040810161343b82856132a5565b8260208301529392505050565b5f805f6060848603121561345a575f80fd5b8351925060208401519150610f73604085016132d3565b634e487b7160e01b5f52603260045260245ffd5b5f60208284031215613495575f80fd5b8151611db481613097565b805162ffffff81168114613287575f80fd5b5f602082840312156134c2575f80fd5b611db4826134a0565b5f60208083850312156134dc575f80fd5b825167ffffffffffffffff808211156134f3575f80fd5b818501915085601f830112613506575f80fd5b81518181111561351857613518612f9c565b61352a601f8201601f19168501612ffd565b9150808252868482850101111561353f575f80fd5b5f5b8181101561355c578381018501518382018601528401613541565b505f90820190930192909252509392505050565b805161328781613097565b805161ffff81168114613287575f80fd5b8051600281900b8114613287575f80fd5b5f6101c082840312156135ae575f80fd5b6135b6612fd9565b6135bf83613570565b81526135cd60208401613570565b60208201526135de604084016134a0565b60408201526135ef60608401613570565b606082015261360060808401613570565b608082015260a083015160a082015260c083015160c082015261362560e0840161357b565b60e082015261010061363881850161358c565b9082015261012061364a84820161358c565b9082015261014061365c84820161358c565b9082015261016061366e84820161358c565b908201526101806136808482016132d3565b908201526101a06136928482016132d3565b908201529392505050565b634e487b7160e01b5f52601260045260245ffd5b5f826136bf576136bf61369d565b500490565b5f816136d2576136d261323e565b505f190190565b5f805f805f805f60e0888a0312156136ef575f80fd5b87516136fa81613097565b96506137086020890161358c565b95506137166040890161357b565b94506137246060890161357b565b93506137326080890161357b565b925060a088015160ff81168114613747575f80fd5b915061375560c08901613278565b905092959891949750929550565b5f60408284031215613773575f80fd5b6040516040810181811067ffffffffffffffff8211171561379657613796612f9c565b6040526137a28361358c565b81526137b06020840161358c565b60208201529392505050565b5f826137ca576137ca61369d565b50069056fea26469706673582212207d3a6934a32d94dc069a746e4d0cf82c2a35ef95cc45e8fa34c433a8063a3adc64736f6c63430008170033","linkReferences":{}},"methodIdentifiers":{"INIT_SLOT()":"43cdab2f","INTEREST_PER_DIEM()":"11d7b7ff","LABEL()":"0f38d8c3","VERSION()":"ffa1ad74","borrow(address,uint256,uint256)":"c1bce0b7","configureDependencies()":"9459b875","decreasePosition(uint256,uint256)":"3bacfca9","estimateBorrow((uint256,uint256,uint256),uint256,uint256)":"0262bbda","estimateExtend((uint256,uint256,uint256),uint256)":"6a55d744","extend(address,uint256)":"8409a123","getInterestForCredit(uint256,uint256)":"6a2d81b6","getNewExpiry((uint256,uint256,uint256),uint256)":"b468f644","increasePosition(uint256,uint256,uint256)":"b8d1e890","initializeComponent()":"9d8a307b","isInstalled()":"04c785bc","isMutable()":"7a393205","isSolvent()":"5ce23950","repay(address,uint256)":"22867d78","requestRoutes()":"f55b134e","supportsInterface(bytes4)":"01ffc9a7"},"id":54}