{"abi":[{"type":"function","name":"INIT_SLOT","inputs":[],"outputs":[{"name":"","type":"bytes32","internalType":"bytes32"}],"stateMutability":"view"},{"type":"function","name":"LABEL","inputs":[],"outputs":[{"name":"","type":"bytes32","internalType":"bytes32"}],"stateMutability":"view"},{"type":"function","name":"VERSION","inputs":[],"outputs":[{"name":"","type":"uint8","internalType":"uint8"}],"stateMutability":"view"},{"type":"function","name":"configureDependencies","inputs":[],"outputs":[{"name":"","type":"bytes32[]","internalType":"bytes32[]"}],"stateMutability":"nonpayable"},{"type":"function","name":"defaultList","inputs":[{"name":"_timeslot","type":"uint256","internalType":"uint256"}],"outputs":[{"name":"","type":"tuple","internalType":"struct Defaultable","components":[{"name":"credit","type":"uint256","internalType":"uint256"},{"name":"collateral","type":"uint256","internalType":"uint256"}]}],"stateMutability":"view"},{"type":"function","name":"defaultOutstanding","inputs":[],"outputs":[],"stateMutability":"nonpayable"},{"type":"function","name":"defaultSelf","inputs":[],"outputs":[],"stateMutability":"nonpayable"},{"type":"function","name":"getCreditAccount","inputs":[{"name":"_user","type":"address","internalType":"address"}],"outputs":[{"name":"account_","type":"tuple","internalType":"struct CreditAccount","components":[{"name":"credit","type":"uint256","internalType":"uint256"},{"name":"collateral","type":"uint256","internalType":"uint256"},{"name":"expiry","type":"uint256","internalType":"uint256"}]}],"stateMutability":"view"},{"type":"function","name":"initializeComponent","inputs":[],"outputs":[],"stateMutability":"nonpayable"},{"type":"function","name":"isInstalled","inputs":[],"outputs":[{"name":"","type":"bool","internalType":"bool"}],"stateMutability":"view"},{"type":"function","name":"isMutable","inputs":[],"outputs":[{"name":"","type":"bool","internalType":"bool"}],"stateMutability":"view"},{"type":"function","name":"lastDefaultedTimeslot","inputs":[],"outputs":[{"name":"","type":"uint256","internalType":"uint256"}],"stateMutability":"view"},{"type":"function","name":"requestRoutes","inputs":[],"outputs":[{"name":"hookedCalls_","type":"bytes4[]","internalType":"bytes4[]"},{"name":"nonHookedCalls_","type":"bytes4[]","internalType":"bytes4[]"}],"stateMutability":"view"},{"type":"function","name":"supportsInterface","inputs":[{"name":"interfaceId_","type":"bytes4","internalType":"bytes4"}],"outputs":[{"name":"","type":"bool","internalType":"bool"}],"stateMutability":"pure"},{"type":"function","name":"totalCollateralized","inputs":[],"outputs":[{"name":"","type":"uint256","internalType":"uint256"}],"stateMutability":"view"},{"type":"function","name":"totalCreditIssued","inputs":[],"outputs":[{"name":"","type":"uint256","internalType":"uint256"}],"stateMutability":"view"},{"type":"function","name":"updateCreditAccount","inputs":[{"name":"_user","type":"address","internalType":"address"},{"name":"_newCollateral","type":"uint256","internalType":"uint256"},{"name":"_newCredit","type":"uint256","internalType":"uint256"},{"name":"_newExpiry","type":"uint256","internalType":"uint256"}],"outputs":[],"stateMutability":"nonpayable"},{"type":"event","name":"DefaultSelf","inputs":[{"name":"user_","type":"address","indexed":false,"internalType":"address"},{"name":"credit_","type":"uint256","indexed":false,"internalType":"uint256"},{"name":"collateral_","type":"uint256","indexed":false,"internalType":"uint256"}],"anonymous":false},{"type":"event","name":"Defaulted","inputs":[{"name":"timeslot_","type":"uint256","indexed":false,"internalType":"uint256"},{"name":"credit_","type":"uint256","indexed":false,"internalType":"uint256"},{"name":"collateral_","type":"uint256","indexed":false,"internalType":"uint256"}],"anonymous":false},{"type":"error","name":"Component_NotPermitted","inputs":[]},{"type":"error","name":"Component_OnlyDelegatecall","inputs":[]},{"type":"error","name":"Component_OnlyProxyKernel","inputs":[{"name":"sender_","type":"address","internalType":"address"}]},{"type":"error","name":"InvalidCreditAccount","inputs":[]},{"type":"error","name":"InvalidExpiry","inputs":[]},{"type":"error","name":"NoAccountAvailable","inputs":[]}],"bytecode":{"object":"0x60a060405234801561000f575f80fd5b50306080526080516111fc6100335f395f81816107b0015261080b01526111fc5ff3fe608060405234801561000f575f80fd5b5060043610610106575f3560e01c80636cd53f1e1161009e578063b47ce7291161006e578063b47ce72914610214578063b5aca5701461021c578063dec16f0714610224578063f55b134e1461022c578063ffa1ad7414610242575f80fd5b80636cd53f1e146101c35780637a393205146101f15780639459b875146101f75780639d8a307b1461020c575f80fd5b8063084b0a97116100d9578063084b0a97146101685780630f38d8c31461019d57806343cdab2f146101b357806366ed0653146101bb575f80fd5b806301ffc9a71461010a57806304c785bc14610143578063058734431461014b57806307ed68dd14610160575b5f80fd5b61012e610118366004610e9a565b6001600160e01b03191663186e9de360e11b1490565b60405190151581526020015b60405180910390f35b61012e610251565b61015e610159366004610ed8565b6102c2565b005b61015e6104b2565b61017b610176366004610f10565b61063d565b604080518251815260208084015190820152918101519082015260600161013a565b6101a56106f3565b60405190815260200161013a565b6101a561071c565b6101a561074d565b6101d66101d1366004610f2b565b61075f565b6040805182518152602092830151928101929092520161013a565b5f61012e565b6101ff6107a4565b60405161013a9190610f42565b61015e610801565b61015e610854565b6101a56109f8565b6101a5610a0a565b610234610a1c565b60405161013a929190610fc9565b6040516001815260200161013a565b5f30634986b3f96102606106f3565b6040518263ffffffff1660e01b815260040161027e91815260200190565b602060405180830381865afa158015610299573d5f803e3d5ffd5b505050506040513d601f19601f820116820180604052508101906102bd9190610ff6565b905090565b3330146102e257604051631748565560e31b815260040160405180910390fd5b5f6102eb610a2f565b90506102f5610a3f565b8210156103145760405162d36c8560e81b815260040160405180910390fd5b8315801561032157508215155b1561033f576040516345ad188560e11b815260040160405180910390fd5b5f6103498661063d565b90505f826005015f836040015181526020019081526020015f2090508160200151816001015f82825461037c9190611029565b90915550508151815482905f90610394908490611029565b909155505081516002840180545f906103ae908490611029565b909155505060208201516003840180545f906103cb908490611029565b925050819055506103f360405180606001604052805f81526020015f81526020015f81525090565b858152602080820188815260408084018881526001600160a01b038c165f908152600489018552828120865181559351600185015590516002909301929092558782526005870190925290812080549091889183919061045490849061103c565b9250508190555087816001015f82825461046e919061103c565b9250508190555086856002015f828254610488919061103c565b9250508190555087856003015f8282546104a2919061103c565b9091555050505050505050505050565b5f6104bb610a2f565b90505f6104c6610a3f565b60018301549091508181106104da57505050565b5f805b838310156105a5575f838152600586016020908152604091829020825180840190935280548352600101549082018190521561059257805161051f908461103c565b9250806020015182610531919061103c565b815160208084015160408051898152928301939093528183015290519193507fc4f17a65d54873d57229ea5f59c4ddec592d095bc17581372676402c8228b9cd919081900360600190a15f8481526005870160205260408120818155600101555b61059d846001610a49565b9350506104dd565b81856002015f8282546105b89190611029565b9250508190555080856003015f8282546105d29190611029565b9091555050600185018390558454604051630852cd8d60e31b8152600481018390526001600160a01b03909116906342966c68906024015f604051808303815f87803b158015610620575f80fd5b505af1158015610632573d5f803e3d5ffd5b505050505050505050565b61065e60405180606001604052805f81526020015f81526020015f81525090565b610666610a2f565b6001600160a01b0383165f90815260049190910160209081526040808320815160608101835281548152600182015493810184905260029091015491810191909152925015906106b4610a3f565b836040015110905081806106c55750805b6106cf57826106eb565b60405180606001604052805f81526020015f81526020015f8152505b949350505050565b5f6102bd604051806040016040526007815280602001664352454454763160c81b815250610a70565b5f6107256106f3565b6040805160208101929092520160405160208183030381529060405280519060200120905090565b5f610756610a2f565b60030154905090565b604080518082019091525f808252602082015261077a610a2f565b5f928352600501602090815260409283902083518085019094528054845260010154908301525090565b60606001600160a01b037f00000000000000000000000000000000000000000000000000000000000000001630036107ef57604051631dd328bf60e01b815260040160405180910390fd5b50604080515f81526020810190915290565b6001600160a01b037f000000000000000000000000000000000000000000000000000000000000000016300361084a57604051631dd328bf60e01b815260040160405180910390fd5b610852610a7a565b565b5f61085d610a2f565b90505f6108693361063d565b80519091505f0361088d576040516305c100a960e31b815260040160405180910390fd5b604080516060810182525f808252602080830182815283850183815233845260048801835285842094518555905160018086019190915590516002909401939093558484015182526005860181529281209284015191830180549091906108f5908490611029565b90915550508151815482905f9061090d908490611029565b909155505081516002840180545f90610927908490611029565b909155505060208201516003840180545f90610944908490611029565b909155505082546020830151604051630852cd8d60e31b81526001600160a01b03909216916342966c689161097f9160040190815260200190565b5f604051808303815f87803b158015610996575f80fd5b505af11580156109a8573d5f803e3d5ffd5b5050835160208086015160408051338152928301939093528183015290517f4284ccd09d786c3d839e056a542e3aef7ff96206f67e01a053c67c415ccb45c09350908190036060019150a1505050565b5f610a01610a2f565b60020154905090565b5f610a13610a2f565b60010154905090565b606080610a27610b3b565b915091509091565b5f80610a3961071c565b92915050565b5f6102bd42610e69565b5f610a69610a5a836201518061104f565b610a64908561103c565b610e69565b9392505050565b5f610a3982611066565b5f610a83610a2f565b9050610a8d610a3f565b60018201556040516330eac2ed60e11b815265312a37b5b2b760d11b6004820152309081906361d585da906024015f60405180830381865afa158015610ad5573d5f803e3d5ffd5b505050506040513d5f823e601f3d908101601f19168201604052610afc91908101906110a0565b806020019051810190610b0f9190611163565b825473ffffffffffffffffffffffffffffffffffffffff19166001600160a01b03919091161790915550565b606080600380610b4a8161117e565b915067ffffffffffffffff811115610b6457610b6461108c565b604051908082528060200260200182016040528015610b8d578160200160208202803683370190505b509250630587344360e01b8382610ba38161117e565b935081518110610bb557610bb5611193565b6001600160e01b03199092166020928302919091019091015263b47ce72960e01b8382610be18161117e565b935081518110610bf357610bf3611193565b6001600160e01b03199092166020928302919091019091015282516307ed68dd60e01b90849083908110610c2957610c29611193565b6001600160e01b031990921660209283029190910190910152600580610c4e8161117e565b915067ffffffffffffffff811115610c6857610c6861108c565b604051908082528060200260200182016040528015610c91578160200160208202803683370190505b50925063084b0a9760e01b8382610ca78161117e565b935081518110610cb957610cb9611193565b6001600160e01b03199092166020928302919091019091015263366a9f8f60e11b8382610ce58161117e565b935081518110610cf757610cf7611193565b6001600160e01b03199092166020928302919091019091015263dec16f0760e01b8382610d238161117e565b935081518110610d3557610d35611193565b6001600160e01b031990921660209283029190910190910152630b5aca5760e41b8382610d618161117e565b935081518110610d7357610d73611193565b6001600160e01b03199092166020928302919091019091015282516366ed065360e01b90849083908110610da957610da9611193565b6001600160e01b0319909216602092830291909101909101528115610e155760405162461bcd60e51b815260206004820152600f60248201527f6261642063616c6c20636f6e666967000000000000000000000000000000000060448201526064015b60405180910390fd5b8015610e635760405162461bcd60e51b815260206004820152600f60248201527f626164207669657720636f6e66696700000000000000000000000000000000006044820152606401610e0c565b50509091565b5f6001610e7962015180846111a7565b610e839084611029565b610e90906201518061103c565b610a399190611029565b5f60208284031215610eaa575f80fd5b81356001600160e01b031981168114610a69575f80fd5b6001600160a01b0381168114610ed5575f80fd5b50565b5f805f8060808587031215610eeb575f80fd5b8435610ef681610ec1565b966020860135965060408601359560600135945092505050565b5f60208284031215610f20575f80fd5b8135610a6981610ec1565b5f60208284031215610f3b575f80fd5b5035919050565b602080825282518282018190525f9190848201906040850190845b81811015610f7957835183529284019291840191600101610f5d565b50909695505050505050565b5f815180845260208085019450602084015f5b83811015610fbe5781516001600160e01b03191687529582019590820190600101610f98565b509495945050505050565b604081525f610fdb6040830185610f85565b8281036020840152610fed8185610f85565b95945050505050565b5f60208284031215611006575f80fd5b81518015158114610a69575f80fd5b634e487b7160e01b5f52601160045260245ffd5b81810381811115610a3957610a39611015565b80820180821115610a3957610a39611015565b8082028115828204841417610a3957610a39611015565b80516020808301519190811015611086575f198160200360031b1b821691505b50919050565b634e487b7160e01b5f52604160045260245ffd5b5f60208083850312156110b1575f80fd5b825167ffffffffffffffff808211156110c8575f80fd5b818501915085601f8301126110db575f80fd5b8151818111156110ed576110ed61108c565b604051601f8201601f19908116603f011681019083821181831017156111155761111561108c565b81604052828152888684870101111561112c575f80fd5b5f93505b8284101561114d5784840186015181850187015292850192611130565b5f86848301015280965050505050505092915050565b5f60208284031215611173575f80fd5b8151610a6981610ec1565b5f8161118c5761118c611015565b505f190190565b634e487b7160e01b5f52603260045260245ffd5b5f826111c157634e487b7160e01b5f52601260045260245ffd5b50069056fea26469706673582212202da8529d233b1fe484cb640f31ca65fe62211478f8fc3b3276f0cc7176a15ac664736f6c63430008170033","linkReferences":{}},"methodIdentifiers":{"INIT_SLOT()":"43cdab2f","LABEL()":"0f38d8c3","VERSION()":"ffa1ad74","configureDependencies()":"9459b875","defaultList(uint256)":"6cd53f1e","defaultOutstanding()":"07ed68dd","defaultSelf()":"b47ce729","getCreditAccount(address)":"084b0a97","initializeComponent()":"9d8a307b","isInstalled()":"04c785bc","isMutable()":"7a393205","lastDefaultedTimeslot()":"dec16f07","requestRoutes()":"f55b134e","supportsInterface(bytes4)":"01ffc9a7","totalCollateralized()":"66ed0653","totalCreditIssued()":"b5aca570","updateCreditAccount(address,uint256,uint256,uint256)":"05873443"},"id":49}