{"abi":[{"type":"function","name":"INIT_SLOT","inputs":[],"outputs":[{"name":"","type":"bytes32","internalType":"bytes32"}],"stateMutability":"view"},{"type":"function","name":"LABEL","inputs":[],"outputs":[{"name":"","type":"bytes32","internalType":"bytes32"}],"stateMutability":"view"},{"type":"function","name":"VERSION","inputs":[],"outputs":[{"name":"","type":"uint8","internalType":"uint8"}],"stateMutability":"view"},{"type":"function","name":"addPosition","inputs":[{"name":"_to","type":"address","internalType":"address"},{"name":"_collateral","type":"uint256","internalType":"uint256"},{"name":"_debt","type":"uint256","internalType":"uint256"}],"outputs":[{"name":"collateralShares_","type":"uint256","internalType":"uint256"},{"name":"debtShares_","type":"uint256","internalType":"uint256"}],"stateMutability":"nonpayable"},{"type":"function","name":"bToken","inputs":[],"outputs":[{"name":"","type":"address","internalType":"contract BToken"}],"stateMutability":"view"},{"type":"function","name":"chargeFunding","inputs":[],"outputs":[],"stateMutability":"nonpayable"},{"type":"function","name":"collateralShares","inputs":[{"name":"_user","type":"address","internalType":"address"}],"outputs":[{"name":"","type":"uint256","internalType":"uint256"}],"stateMutability":"view"},{"type":"function","name":"configureDependencies","inputs":[],"outputs":[{"name":"","type":"bytes32[]","internalType":"bytes32[]"}],"stateMutability":"nonpayable"},{"type":"function","name":"convertToAmount","inputs":[{"name":"_shares","type":"uint256","internalType":"uint256"},{"name":"_collateral","type":"bool","internalType":"bool"}],"outputs":[{"name":"","type":"uint256","internalType":"uint256"}],"stateMutability":"view"},{"type":"function","name":"convertToShares","inputs":[{"name":"_amount","type":"uint256","internalType":"uint256"}],"outputs":[{"name":"","type":"uint256","internalType":"uint256"}],"stateMutability":"view"},{"type":"function","name":"currentShareIndex","inputs":[],"outputs":[{"name":"","type":"uint256","internalType":"uint256"}],"stateMutability":"view"},{"type":"function","name":"debtShares","inputs":[{"name":"_user","type":"address","internalType":"address"}],"outputs":[{"name":"","type":"uint256","internalType":"uint256"}],"stateMutability":"view"},{"type":"function","name":"getAmountToLiquidate","inputs":[],"outputs":[{"name":"","type":"uint256","internalType":"uint256"}],"stateMutability":"view"},{"type":"function","name":"getUserPosition","inputs":[{"name":"_user","type":"address","internalType":"address"}],"outputs":[{"name":"collateralAmt_","type":"uint256","internalType":"uint256"},{"name":"debtAmt_","type":"uint256","internalType":"uint256"}],"stateMutability":"view"},{"type":"function","name":"initializeComponent","inputs":[],"outputs":[],"stateMutability":"nonpayable"},{"type":"function","name":"interestRate","inputs":[],"outputs":[{"name":"","type":"uint256","internalType":"uint256"}],"stateMutability":"view"},{"type":"function","name":"isInstalled","inputs":[],"outputs":[{"name":"","type":"bool","internalType":"bool"}],"stateMutability":"view"},{"type":"function","name":"isMutable","inputs":[],"outputs":[{"name":"","type":"bool","internalType":"bool"}],"stateMutability":"view"},{"type":"function","name":"lastFundingTs","inputs":[],"outputs":[{"name":"","type":"uint256","internalType":"uint256"}],"stateMutability":"view"},{"type":"function","name":"reducePosition","inputs":[{"name":"_from","type":"address","internalType":"address"},{"name":"_collateralShares","type":"uint256","internalType":"uint256"}],"outputs":[{"name":"collateralRedeemed_","type":"uint256","internalType":"uint256"},{"name":"debtRepaid_","type":"uint256","internalType":"uint256"}],"stateMutability":"nonpayable"},{"type":"function","name":"requestRoutes","inputs":[],"outputs":[{"name":"hookedCalls_","type":"bytes4[]","internalType":"bytes4[]"},{"name":"nonHookedCalls_","type":"bytes4[]","internalType":"bytes4[]"}],"stateMutability":"view"},{"type":"function","name":"setInterestRate","inputs":[{"name":"_interestRate","type":"uint256","internalType":"uint256"}],"outputs":[],"stateMutability":"nonpayable"},{"type":"function","name":"shareIndex","inputs":[],"outputs":[{"name":"","type":"uint256","internalType":"uint256"}],"stateMutability":"view"},{"type":"function","name":"supportsInterface","inputs":[{"name":"interfaceId_","type":"bytes4","internalType":"bytes4"}],"outputs":[{"name":"","type":"bool","internalType":"bool"}],"stateMutability":"pure"},{"type":"function","name":"totalCollateral","inputs":[],"outputs":[{"name":"collateralAdj_","type":"uint256","internalType":"uint256"}],"stateMutability":"view"},{"type":"function","name":"totalCollateralShares","inputs":[],"outputs":[{"name":"","type":"uint256","internalType":"uint256"}],"stateMutability":"view"},{"type":"function","name":"totalDebt","inputs":[],"outputs":[{"name":"debtAdj_","type":"uint256","internalType":"uint256"}],"stateMutability":"view"},{"type":"function","name":"totalDebtShares","inputs":[],"outputs":[{"name":"","type":"uint256","internalType":"uint256"}],"stateMutability":"view"},{"type":"error","name":"Component_NotPermitted","inputs":[]},{"type":"error","name":"Component_OnlyDelegatecall","inputs":[]},{"type":"error","name":"Component_OnlyProxyKernel","inputs":[{"name":"sender_","type":"address","internalType":"address"}]},{"type":"error","name":"InvalidAmount","inputs":[]}],"bytecode":{"object":"0x60a060405234801561000f575f80fd5b5030608052608051611a676100335f395f81816107dd01526108380152611a675ff3fe608060405234801561000f575f80fd5b50600436106101bb575f3560e01c80637a393205116100f3578063c6e6f59211610093578063f15ad59c1161006e578063f15ad59c14610345578063f55b134e14610358578063fc7b9c181461036e578063ffa1ad7414610376575f80fd5b8063c6e6f59214610317578063cff07fd11461032a578063ee3679101461033d575f80fd5b80638e57c65c116100ce5780638e57c65c146102ea5780639459b875146102f25780639d8a307b14610307578063c56ad1ad1461030f575f80fd5b80637a393205146102d45780637c3a00fd146102da5780637f8b2726146102e2575f80fd5b806330f533e81161015e57806357d20dec1161013957806357d20dec146102915780635b7c2dad146102a45780635f84f302146102b75780636ccd988b146102cc575f80fd5b806330f533e81461025957806343cdab2f146102815780634ac8eb5f14610289575f80fd5b8063180f584211610199578063180f5842146102165780631b859e4114610236578063219ca6c91461023e5780632389374b14610246575f80fd5b806301ffc9a7146101bf57806304c785bc146101f85780630f38d8c314610200575b5f80fd5b6101e36101cd366004611539565b6001600160e01b03191663186e9de360e11b1490565b60405190151581526020015b60405180910390f35b6101e3610385565b6102086103f6565b6040519081526020016101ef565b61021e61041f565b6040516001600160a01b0390911681526020016101ef565b61020861043a565b61020861044c565b610208610254366004611577565b61049d565b61026c6102673660046115b9565b6104d1565b604080519283526020830191909152016101ef565b610208610630565b610208610661565b61020861029f3660046115e3565b610686565b61026c6102b23660046115e3565b6106b0565b6102ca6102c53660046115fe565b61071d565b005b610208610755565b5f6101e3565b610208610786565b610208610798565b6102ca6107a7565b6102fa6107d1565b6040516101ef9190611615565b6102ca61082e565b61020861087f565b6102086103253660046115fe565b610891565b61026c610338366004611658565b6108a4565b6102086109c6565b6102086103533660046115e3565b6109d8565b610360610a02565b6040516101ef9291906116ce565b610208610a15565b604051600181526020016101ef565b5f30634986b3f96103946103f6565b6040518263ffffffff1660e01b81526004016103b291815260200190565b602060405180830381865afa1580156103cd573d5f803e3d5ffd5b505050506040513d601f19601f820116820180604052508101906103f191906116fb565b905090565b5f6103f1604051806040016040526007815280602001664c4f4f5053763160c81b815250610a37565b5f610428610a41565b600501546001600160a01b0316919050565b5f610443610a41565b60010154905090565b5f80610456610a41565b90505f61048461047f83600201544261046f919061172a565b6003850154906301e13380610a4b565b610a6f565b60048301549091506104969082610bfa565b9250505090565b5f806104a761044c565b9050826104bd576104b88482610c2d565b6104c7565b6104c78482610c82565b9150505b92915050565b5f803330146104f357604051631748565560e31b815260040160405180910390fd5b5f6104fc610a41565b9050610506610ccf565b6001600160a01b0385165f90815260068201602081815260408084205460078601835290842054929091528681188188110290961895610547918791610d7a565b9050841580610554575080155b156105725760405163162908e360e11b815260040160405180910390fd5b6001600160a01b0386165f9081526006830160205260408120805487929061059b90849061172a565b90915550508154859083905f906105b390849061172a565b909155505060048201546105c8908690610c82565b6001600160a01b0387165f9081526007840160205260408120805492965083929091906105f690849061172a565b9250508190555080826001015f828254610610919061172a565b90915550506004820154610625908290610c2d565b925050509250929050565b5f6106396103f6565b6040805160208101929092520160405160208183030381529060405280519060200120905090565b5f8061066b610a41565b905061068061067861044c565b825490610c82565b91505090565b5f61068f610a41565b6001600160a01b039092165f90815260079290920160205250604090205490565b5f805f6106bb610a41565b90505f6106c661044c565b6001600160a01b0386165f9081526006840160205260409020549091506106ed9082610c82565b6001600160a01b0386165f9081526007840160205260409020549094506107149082610c2d565b92505050915091565b33301461073d57604051631748565560e31b815260040160405180910390fd5b610745610ccf565b8061074e610a41565b6003015550565b5f8061075f610a41565b905061076c61067861044c565b6004820154825461077c91610c82565b610680919061172a565b5f61078f610a41565b60030154905090565b5f6107a1610a41565b54919050565b3330146107c757604051631748565560e31b815260040160405180910390fd5b6107cf610ccf565b565b60606001600160a01b037f000000000000000000000000000000000000000000000000000000000000000016300361081c57604051631dd328bf60e01b815260040160405180910390fd5b50604080515f81526020810190915290565b6001600160a01b037f000000000000000000000000000000000000000000000000000000000000000016300361087757604051631dd328bf60e01b815260040160405180910390fd5b6107cf610da6565b5f610888610a41565b60040154905090565b5f6104cb61089d61044c565b8390610bfa565b5f803330146108c657604051631748565560e31b815260040160405180910390fd5b5f6108cf610a41565b90506108d9610ccf565b60048101546108e9908690610f74565b9250610902816004015485610bfa90919063ffffffff16565b915082158061090f575081155b1561092d5760405163162908e360e11b815260040160405180910390fd5b6001600160a01b0386165f9081526006820160205260408120805485929061095690849061173d565b90915550508054839082905f9061096e90849061173d565b90915550506001600160a01b0386165f9081526007820160205260408120805484929061099c90849061173d565b9250508190555081816001015f8282546109b6919061173d565b9250508190555050935093915050565b5f6109cf610a41565b60020154905090565b5f6109e1610a41565b6001600160a01b039092165f90815260069290920160205250604090205490565b606080610a0d610f9f565b915091509091565b5f80610a1f610a41565b9050610680610a2c61044c565b600183015490610c2d565b5f6104cb82611750565b5f806104cb610630565b5f825f190484118302158202610a685763ad251c275f526004601cfd5b5091020490565b5f68023f2fa8f6da5b9d28198213610a8657919050565b680755bf798b4a1bf1e58212610aa35763a37bfec95f526004601cfd5b6503782dace9d9604e83901b0591505f60606bb17217f7d1cf79abc9e3b39884821b056b80000000000000000000000001901d6bb17217f7d1cf79abc9e3b39881029093036c240c330e9fb2d9cbaf0fd5aafb1981018102606090811d6d0277594991cfc85f6e2461837cd9018202811d6d1a521255e34f6a5061b25ef1c9c319018202811d6db1bbb201f443cf962f1a1d3db4a5018202811d6e02c72388d9f74f51a9331fed693f1419018202811d6e05180bb14799ab47a8a8cb2a527d57016d02d16720577bd19bf614176fe9ea6c10fe68e7fd37d0007b713f765084018402831d9081019084016d01d3967ed30fc4f89c02bab5708119010290911d6e0587f503bb6ea29d25fcb7401964500190910279d835ebba824c98fb31b83b2ca45c000000000000000000000000010574029d9dc38563c32e5c2f6dc192ee70ef65f9978af30260c3939093039290921c92915050565b5f815f19048311820215610c155763bac65e5b5f526004601cfd5b50670de0b6b3a7640000910281810615159190040190565b5f7812725dd1d243aba0e75fe645cc4873f9e65afe688c928e1f218311670de0b6b3a764000002158202610c6857637c5f487d5f526004601cfd5b50670de0b6b3a76400009190910281810615159190040190565b5f7812725dd1d243aba0e75fe645cc4873f9e65afe688c928e1f218311670de0b6b3a764000002158202610cbd57637c5f487d5f526004601cfd5b50670de0b6b3a7640000919091020490565b5f610cd8610a41565b6004810154909150610ce861044c565b6004830181905542600284015582545f91610d039190610c82565b8354610d0f9084610c82565b610d19919061172a565b6005840154604051630852cd8d60e31b8152600481018390529192506001600160a01b0316906342966c68906024015f604051808303815f87803b158015610d5f575f80fd5b505af1158015610d71573d5f803e3d5ffd5b50505050505050565b5f825f190484118302158202610d975763ad251c275f526004601cfd5b50910281810615159190040190565b5f3090505f816001600160a01b031663b74795d96040518163ffffffff1660e01b8152600401602060405180830381865afa158015610de7573d5f803e3d5ffd5b505050506040513d601f19601f82011682018060405250810190610e0b919061178a565b604051635fa32f5760e01b8152631253925560e21b60048201526001600160a01b039190911690635fa32f57906024015f60405180830381865afa158015610e55573d5f803e3d5ffd5b505050506040513d5f823e601f3d908101601f19168201604052610e7c9190810190611800565b806020019051810190610e8f9190611908565b90505f610e9a610a41565b6040516330eac2ed60e11b815265312a37b5b2b760d11b60048201529091506001600160a01b038416906361d585da906024015f60405180830381865afa158015610ee7573d5f803e3d5ffd5b505050506040513d5f823e601f3d908101601f19168201604052610f0e9190810190611800565b806020019051810190610f21919061178a565b60058201805473ffffffffffffffffffffffffffffffffffffffff19166001600160a01b039290921691909117905560c091909101516003820155426002820155670de0b6b3a764000060049091015550565b5f815f19048311820215610f8f5763bac65e5b5f526004601cfd5b50670de0b6b3a764000091020490565b606080600480610fae81611a08565b915067ffffffffffffffff811115610fc857610fc8611776565b604051908082528060200260200182016040528015610ff1578160200160208202803683370190505b50925063cff07fd160e01b838261100781611a08565b93508151811061101957611019611a1d565b6001600160e01b03199092166020928302919091019091015263061ea67d60e31b838261104581611a08565b93508151811061105757611057611a1d565b6001600160e01b031990921660209283029190910190910152632395f19760e21b838261108381611a08565b93508151811061109557611095611a1d565b6001600160e01b0319909216602092830291909101909101528251632fc2798160e11b908490839081106110cb576110cb611a1d565b6001600160e01b031990921660209283029190910190910152600e806110f081611a08565b915067ffffffffffffffff81111561110a5761110a611776565b604051908082528060200260200182016040528015611133578160200160208202803683370190505b50925063219ca6c960e01b838261114981611a08565b93508151811061115b5761115b611a1d565b6001600160e01b0319909216602092830291909101909101526363737ac960e11b838261118781611a08565b93508151811061119957611199611a1d565b6001600160e01b031990921660209283029190910190910152632389374b60e01b83826111c581611a08565b9350815181106111d7576111d7611a1d565b6001600160e01b031990921660209283029190910190910152635b7c2dad60e01b838261120381611a08565b93508151811061121557611215611a1d565b6001600160e01b031990921660209283029190910190910152634ac8eb5f60e01b838261124181611a08565b93508151811061125357611253611a1d565b6001600160e01b031990921660209283029190910190910152631f8f738360e31b838261127f81611a08565b93508151811061129157611291611a1d565b6001600160e01b03199092166020928302919091019091015263c56ad1ad60e01b83826112bd81611a08565b9350815181106112cf576112cf611a1d565b6001600160e01b031990921660209283029190910190910152633fc5939360e11b83826112fb81611a08565b93508151811061130d5761130d611a1d565b6001600160e01b031990921660209283029190910190910152631b859e4160e01b838261133981611a08565b93508151811061134b5761134b611a1d565b6001600160e01b031990921660209283029190910190910152636ccd988b60e01b838261137781611a08565b93508151811061138957611389611a1d565b6001600160e01b031990921660209283029190910190910152630ee3679160e41b83826113b581611a08565b9350815181106113c7576113c7611a1d565b6001600160e01b031990921660209283029190910190910152633c56b56760e21b83826113f381611a08565b93508151811061140557611405611a1d565b6001600160e01b0319909216602092830291909101909101526315f4837b60e21b838261143181611a08565b93508151811061144357611443611a1d565b6001600160e01b0319909216602092830291909101909101528251637c3a00fd60e01b9084908390811061147957611479611a1d565b6001600160e01b03199092166020928302919091019091015281156114e55760405162461bcd60e51b815260206004820152601060248201527f62616420726f75746520636f6e6669670000000000000000000000000000000060448201526064015b60405180910390fd5b80156115335760405162461bcd60e51b815260206004820152600f60248201527f626164207669657720636f6e666967000000000000000000000000000000000060448201526064016114dc565b50509091565b5f60208284031215611549575f80fd5b81356001600160e01b031981168114611560575f80fd5b9392505050565b8015158114611574575f80fd5b50565b5f8060408385031215611588575f80fd5b82359150602083013561159a81611567565b809150509250929050565b6001600160a01b0381168114611574575f80fd5b5f80604083850312156115ca575f80fd5b82356115d5816115a5565b946020939093013593505050565b5f602082840312156115f3575f80fd5b8135611560816115a5565b5f6020828403121561160e575f80fd5b5035919050565b602080825282518282018190525f9190848201906040850190845b8181101561164c57835183529284019291840191600101611630565b50909695505050505050565b5f805f6060848603121561166a575f80fd5b8335611675816115a5565b95602085013595506040909401359392505050565b5f815180845260208085019450602084015f5b838110156116c35781516001600160e01b0319168752958201959082019060010161169d565b509495945050505050565b604081525f6116e0604083018561168a565b82810360208401526116f2818561168a565b95945050505050565b5f6020828403121561170b575f80fd5b815161156081611567565b634e487b7160e01b5f52601160045260245ffd5b818103818111156104cb576104cb611716565b808201808211156104cb576104cb611716565b80516020808301519190811015611770575f198160200360031b1b821691505b50919050565b634e487b7160e01b5f52604160045260245ffd5b5f6020828403121561179a575f80fd5b8151611560816115a5565b6040516101c0810167ffffffffffffffff811182821017156117c9576117c9611776565b60405290565b604051601f8201601f1916810167ffffffffffffffff811182821017156117f8576117f8611776565b604052919050565b5f6020808385031215611811575f80fd5b825167ffffffffffffffff80821115611828575f80fd5b818501915085601f83011261183b575f80fd5b81518181111561184d5761184d611776565b61185f601f8201601f191685016117cf565b91508082528684828501011115611874575f80fd5b5f5b81811015611891578381018501518382018601528401611876565b505f90820190930192909252509392505050565b80516118b0816115a5565b919050565b805162ffffff811681146118b0575f80fd5b805161ffff811681146118b0575f80fd5b8051600281900b81146118b0575f80fd5b80516fffffffffffffffffffffffffffffffff811681146118b0575f80fd5b5f6101c08284031215611919575f80fd5b6119216117a5565b61192a836118a5565b8152611938602084016118a5565b6020820152611949604084016118b5565b604082015261195a606084016118a5565b606082015261196b608084016118a5565b608082015260a083015160a082015260c083015160c082015261199060e084016118c7565b60e08201526101006119a38185016118d8565b908201526101206119b58482016118d8565b908201526101406119c78482016118d8565b908201526101606119d98482016118d8565b908201526101806119eb8482016118e9565b908201526101a06119fd8482016118e9565b908201529392505050565b5f81611a1657611a16611716565b505f190190565b634e487b7160e01b5f52603260045260245ffdfea2646970667358221220c432855b9c3349e85bf9d09c73c34771e7ed2476c6b0597a3973e17dc6cf690364736f6c63430008170033","linkReferences":{}},"methodIdentifiers":{"INIT_SLOT()":"43cdab2f","LABEL()":"0f38d8c3","VERSION()":"ffa1ad74","addPosition(address,uint256,uint256)":"cff07fd1","bToken()":"180f5842","chargeFunding()":"8e57c65c","collateralShares(address)":"f15ad59c","configureDependencies()":"9459b875","convertToAmount(uint256,bool)":"2389374b","convertToShares(uint256)":"c6e6f592","currentShareIndex()":"219ca6c9","debtShares(address)":"57d20dec","getAmountToLiquidate()":"6ccd988b","getUserPosition(address)":"5b7c2dad","initializeComponent()":"9d8a307b","interestRate()":"7c3a00fd","isInstalled()":"04c785bc","isMutable()":"7a393205","lastFundingTs()":"ee367910","reducePosition(address,uint256)":"30f533e8","requestRoutes()":"f55b134e","setInterestRate(uint256)":"5f84f302","shareIndex()":"c56ad1ad","supportsInterface(bytes4)":"01ffc9a7","totalCollateral()":"4ac8eb5f","totalCollateralShares()":"7f8b2726","totalDebt()":"fc7b9c18","totalDebtShares()":"1b859e41"},"id":50}