{"abi":[{"type":"function","name":"INIT_SLOT","inputs":[],"outputs":[{"name":"","type":"bytes32","internalType":"bytes32"}],"stateMutability":"view"},{"type":"function","name":"LABEL","inputs":[],"outputs":[{"name":"","type":"bytes32","internalType":"bytes32"}],"stateMutability":"view"},{"type":"function","name":"VERSION","inputs":[],"outputs":[{"name":"","type":"uint8","internalType":"uint8"}],"stateMutability":"view"},{"type":"function","name":"closePosition","inputs":[{"name":"_totalCollateral","type":"uint256","internalType":"uint256"},{"name":"_minReservesOut","type":"uint256","internalType":"uint256"}],"outputs":[{"name":"debtRepaid_","type":"uint256","internalType":"uint256"},{"name":"reservesOut_","type":"uint256","internalType":"uint256"}],"stateMutability":"nonpayable"},{"type":"function","name":"configureDependencies","inputs":[],"outputs":[{"name":"","type":"bytes32[]","internalType":"bytes32[]"}],"stateMutability":"nonpayable"},{"type":"function","name":"initializeComponent","inputs":[],"outputs":[],"stateMutability":"nonpayable"},{"type":"function","name":"isInstalled","inputs":[],"outputs":[{"name":"","type":"bool","internalType":"bool"}],"stateMutability":"view"},{"type":"function","name":"isMutable","inputs":[],"outputs":[{"name":"","type":"bool","internalType":"bool"}],"stateMutability":"view"},{"type":"function","name":"isSolvent","inputs":[],"outputs":[{"name":"","type":"bool","internalType":"bool"}],"stateMutability":"view"},{"type":"function","name":"openPosition","inputs":[{"name":"_totalCollateral","type":"uint256","internalType":"uint256"},{"name":"_maxReservesIn","type":"uint256","internalType":"uint256"}],"outputs":[{"name":"debt_","type":"uint256","internalType":"uint256"},{"name":"reservesIn_","type":"uint256","internalType":"uint256"}],"stateMutability":"nonpayable"},{"type":"function","name":"requestRoutes","inputs":[],"outputs":[{"name":"hookedCalls_","type":"bytes4[]","internalType":"bytes4[]"},{"name":"nonHookedCalls_","type":"bytes4[]","internalType":"bytes4[]"}],"stateMutability":"view"},{"type":"function","name":"supportsInterface","inputs":[{"name":"interfaceId_","type":"bytes4","internalType":"bytes4"}],"outputs":[{"name":"","type":"bool","internalType":"bool"}],"stateMutability":"pure"},{"type":"event","name":"UpdatePosition","inputs":[{"name":"user","type":"address","indexed":true,"internalType":"address"},{"name":"reserves","type":"int256","indexed":false,"internalType":"int256"},{"name":"collateralShares","type":"uint256","indexed":false,"internalType":"uint256"},{"name":"debtShares","type":"uint256","indexed":false,"internalType":"uint256"},{"name":"shareIndex","type":"uint256","indexed":false,"internalType":"uint256"}],"anonymous":false},{"type":"error","name":"CannotRepayInFloor","inputs":[]},{"type":"error","name":"Component_NotPermitted","inputs":[]},{"type":"error","name":"Component_OnlyDelegatecall","inputs":[]},{"type":"error","name":"Component_OnlyProxyKernel","inputs":[{"name":"sender_","type":"address","internalType":"address"}]},{"type":"error","name":"Insolvent","inputs":[]},{"type":"error","name":"InvalidAmount","inputs":[]},{"type":"error","name":"InvalidCaller","inputs":[]},{"type":"error","name":"SlippageTooHigh","inputs":[{"name":"","type":"uint256","internalType":"uint256"},{"name":"","type":"uint256","internalType":"uint256"}]}],"bytecode":{"object":"0x60a060405234801561000f575f80fd5b50306080526080516125266100335f395f8181610f140152610f6501526125265ff3fe608060405234801561000f575f80fd5b50600436106100cf575f3560e01c80635ce239501161007d5780639d8a307b116100585780639d8a307b14610190578063f55b134e1461019a578063ffa1ad74146101b0575f80fd5b80635ce239501461016d5780637a393205146101755780639459b8751461017b575f80fd5b80632d6ce61d116100ad5780632d6ce61d1461012a5780633012b05c1461015257806343cdab2f14610165575f80fd5b806301ffc9a7146100d357806304c785bc1461010c5780630f38d8c314610114575b5f80fd5b6100f76100e1366004611dad565b6001600160e01b03191663186e9de360e11b1490565b60405190151581526020015b60405180910390f35b6100f76101bf565b61011c610230565b604051908152602001610103565b61013d610138366004611ddb565b61025e565b60408051928352602083019190915201610103565b61013d610160366004611ddb565b61071a565b61011c610a50565b6100f7610a81565b5f6100f7565b610183610f08565b6040516101039190611dfb565b610198610f5b565b005b6101a2610fae565b604051610103929190611e82565b60405160018152602001610103565b5f30634986b3f96101ce610230565b6040518263ffffffff1660e01b81526004016101ec91815260200190565b602060405180830381865afa158015610207573d5f803e3d5ffd5b505050506040513d601f19601f8201168201806040525081019061022b9190611ec3565b905090565b5f61022b60405180604001604052600c8152806020016b4c6f6f70466163696c69747960a01b815250610fc1565b5f805f610269610fd1565b604080516101208101825282546001600160a01b03908116825260018401548116602083015260028401548116828401819052600385015482166060840152600480860154831660808501526005860154831660a0850152600686015480841660c0860152600160a01b900462ffffff1660e085015260079095015490911661010083015291516363737ac960e11b815292830188905292505f9163c6e6f59290602401602060405180830381865afa158015610328573d5f803e3d5ffd5b505050506040513d601f19601f8201168201806040525081019061034c9190611edc565b604080840151905163061ea67d60e31b8152336004820152602481018390529192506001600160a01b0316906330f533e89060440160408051808303815f875af115801561039c573d5f803e3d5ffd5b505050506040513d601f19601f820116820180604052508101906103c09190611ef3565b80955081975050505f8260c001516001600160a01b031663414bf38960405180610100016040528086608001516001600160a01b0316815260200186606001516001600160a01b031681526020018660e0015162ffffff168152602001306001600160a01b031681526020014281526020018a8152602001888a6104449190611f29565b81525f6020909101526040516001600160e01b031960e084901b16815261046e9190600401611f3c565b6020604051808303815f875af115801561048a573d5f803e3d5ffd5b505050506040513d601f19601f820116820180604052508101906104ae9190611edc565b90506104ba8582611faa565b835160405163444132a360e11b81529195506001600160a01b0316906388826546906104ec905f908990600401611fdd565b6060604051808303815f875af1158015610508573d5f803e3d5ffd5b505050506040513d601f19601f8201168201806040525081019061052c9190612017565b50508415905061054f57606083015161054f906001600160a01b03163386610fdb565b610557611071565b806105675750610565610a81565b155b1561058557604051631f84400760e31b815260040160405180910390fd5b337f4de5ab44389e14b5e8b691eac7ccf45a494811e9ff6ca036b87190d2b3bded6c6105b086612049565b6040808701519051633c56b56760e21b81523360048201526001600160a01b039091169063f15ad59c906024015b602060405180830381865afa1580156105f9573d5f803e3d5ffd5b505050506040513d601f19601f8201168201806040525081019061061d9190611edc565b60408088015190516315f4837b60e21b81523360048201526001600160a01b03909116906357d20dec90602401602060405180830381865afa158015610665573d5f803e3d5ffd5b505050506040513d601f19601f820116820180604052508101906106899190611edc565b87604001516001600160a01b031663c56ad1ad6040518163ffffffff1660e01b8152600401602060405180830381865afa1580156106c9573d5f803e3d5ffd5b505050506040513d601f19601f820116820180604052508101906106ed9190611edc565b60408051948552602085019390935291830152606082015260800160405180910390a25050509250929050565b5f805f610725610fd1565b604080516101208101825282546001600160a01b03908116808352600185015482166020808501919091526002860154831684860152600386015483166060850152600480870154841660808601526005870154841660a0860152600687015480851660c0870152600160a01b900462ffffff1660e08601526007909601549092166101008401528351639fd57c1160e01b81529351929550610813949093639fd57c1193818301939290918290030181865afa1580156107e8573d5f803e3d5ffd5b505050506040513d601f19601f8201168201806040525081019061080c9190611edc565b869061124d565b925061081e83611278565b6060810151610838906001600160a01b0316333087611606565b5f8160c001516001600160a01b031663db3e219860405180610100016040528085606001516001600160a01b0316815260200185608001516001600160a01b031681526020018560e0015162ffffff168152602001306001600160a01b0316815260200142815260200189815260200187896108b49190611f29565b81525f6020909101526040516001600160e01b031960e084901b1681526108de9190600401611f3c565b6020604051808303815f875af11580156108fa573d5f803e3d5ffd5b505050506040513d601f19601f8201168201806040525081019061091e9190611edc565b905061092a8482611faa565b604080840151905163cff07fd160e01b815233600482015260248101899052604481018790529194506001600160a01b03169063cff07fd19060640160408051808303815f875af1158015610981573d5f803e3d5ffd5b505050506040513d601f19601f820116820180604052508101906109a59190611ef3565b505f90506109b38487611faa565b905080156109d45760608301516109d4906001600160a01b03163383610fdb565b6109dc610a81565b6109f957604051631f84400760e31b815260040160405180910390fd5b6040808401519051633c56b56760e21b81523360048201819052917f4de5ab44389e14b5e8b691eac7ccf45a494811e9ff6ca036b87190d2b3bded6c9187916001600160a01b03169063f15ad59c906024016105de565b5f610a59610230565b6040805160208101929092520160405160208183030381529060405280519060200120905090565b5f80610a8b610fd1565b604080516101208101825282546001600160a01b039081168083526001850154821660208401526002850154821683850152600385015482166060840152600480860154831660808501526005860154831660a0850152600686015480841660c0860152600160a01b900462ffffff1660e08501526007909501549091166101008301529151636f6781d360e01b81529093505f92636f6781d391610b3291859101612063565b60c060405180830381865afa158015610b4d573d5f803e3d5ffd5b505050506040513d601f19601f82011682018060405250810190610b7191906120f7565b90505f825f01516001600160a01b0316636f6781d360016040518263ffffffff1660e01b8152600401610ba49190612063565b60c060405180830381865afa158015610bbf573d5f803e3d5ffd5b505050506040513d601f19601f82011682018060405250810190610be391906120f7565b90505f835f01516001600160a01b0316636f6781d360026040518263ffffffff1660e01b8152600401610c169190612063565b60c060405180830381865afa158015610c31573d5f803e3d5ffd5b505050506040513d601f19601f82011682018060405250810190610c5591906120f7565b90505f845f01516001600160a01b031663ba9ff1ac8560200151866040015188604001516001600160a01b031663fc7b9c186040518163ffffffff1660e01b8152600401602060405180830381865afa158015610cb4573d5f803e3d5ffd5b505050506040513d601f19601f82011682018060405250810190610cd89190611edc565b89602001516001600160a01b031663b5aca5706040518163ffffffff1660e01b8152600401602060405180830381865afa158015610d18573d5f803e3d5ffd5b505050506040513d601f19601f82011682018060405250810190610d3c9190611edc565b610d469190611f29565b6040808a015190516001600160e01b031960e087901b1681526001600160a01b03948516600482015292841660248401526044830191909152919091166064820152608401602060405180830381865afa158015610da6573d5f803e3d5ffd5b505050506040513d601f19601f82011682018060405250810190610dca9190611edc565b90505f8260a001518460a001518660a0015184610de79190611f29565b610df19190611f29565b610dfb9190611f29565b60808701516040516370a0823160e01b81526001600160a01b03909116600482018190529192505f91906370a0823190602401602060405180830381865afa158015610e49573d5f803e3d5ffd5b505050506040513d601f19601f82011682018060405250810190610e6d9190611edc565b8460600151866060015189608001516001600160a01b03166318160ddd6040518163ffffffff1660e01b8152600401602060405180830381865afa158015610eb7573d5f803e3d5ffd5b505050506040513d601f19601f82011682018060405250810190610edb9190611edc565b610ee59190611faa565b610eef9190611faa565b610ef99190611faa565b90911015979650505050505050565b60606001600160a01b037f0000000000000000000000000000000000000000000000000000000000000000163003610f5357604051631dd328bf60e01b815260040160405180910390fd5b61022b6116a7565b6001600160a01b037f0000000000000000000000000000000000000000000000000000000000000000163003610fa457604051631dd328bf60e01b815260040160405180910390fd5b610fac611afb565b565b606080610fb9611c3f565b915091509091565b5f610fcb82612188565b92915050565b5f80610fcb610a50565b5f60405163a9059cbb60e01b81526001600160a01b038416600482015282602482015260205f6044835f895af13d15601f3d1160015f51141617169150508061106b5760405162461bcd60e51b815260206004820152600f60248201527f5452414e534645525f4641494c4544000000000000000000000000000000000060448201526064015b60405180910390fd5b50505050565b5f8061107b610fd1565b604080516101208101825282546001600160a01b03908116808352600185015482166020808501919091526002860154831684860152600386015483166060850152600480870154841660808601526005870154841660a0860152600687015480851660c0870152600160a01b900462ffffff1660e086015260079096015490921661010084015283516316f0115b60e01b815293519295505f9490936316f0115b93818301939290918290030181865afa15801561113c573d5f803e3d5ffd5b505050506040513d601f19601f8201168201806040525081019061116091906121ae565b6001600160a01b0316633850c7bd6040518163ffffffff1660e01b815260040160e060405180830381865afa15801561119b573d5f803e3d5ffd5b505050506040513d601f19601f820116820180604052508101906111bf91906121eb565b50508651604051632fcc4dd960e21b81529496505f95506001600160a01b03169363bf31376493506111f79250859150600401612063565b6040805180830381865afa158015611211573d5f803e3d5ffd5b505050506040513d601f19601f820116820180604052508101906112359190612275565b9050806020015160020b8260020b1315935050505090565b5f815f190483118202156112685763bac65e5b5f526004601cfd5b50670de0b6b3a764000091020490565b5f611281610fd1565b604080516101208101825282546001600160a01b039081168083526001850154821660208401526002850154821683850152600385015482166060840152600480860154831660808501526005860154831660a0850152600686015480841660c0860152600160a01b900462ffffff1660e0850152600790950154909116610100830152915163630369af60e01b81529093505f9263630369af9161132891859101612063565b6080604051808303815f875af1158015611344573d5f803e3d5ffd5b505050506040513d601f19601f8201168201806040525081019061136891906122ce565b50925050508281106113f45781516001600160a01b031663888265465f61138f8685611faa565b6040518363ffffffff1660e01b81526004016113ac929190611fdd565b6060604051808303815f875af11580156113c8573d5f803e3d5ffd5b505050506040513d601f19601f820116820180604052508101906113ec9190612017565b505050505050565b815160405163630369af60e01b81525f916001600160a01b03169063630369af9061142490600190600401612063565b6080604051808303815f875af1158015611440573d5f803e3d5ffd5b505050506040513d601f19601f8201168201806040525081019061146491906122ce565b509250505080826114759190611f29565b91508382106114ff5782516001600160a01b03166388826546600161149a8786611faa565b6040518363ffffffff1660e01b81526004016114b7929190611fdd565b6060604051808303815f875af11580156114d3573d5f803e3d5ffd5b505050506040513d601f19601f820116820180604052508101906114f79190612017565b50505061106b565b825160405163630369af60e01b81525f916001600160a01b03169063630369af9061152f90600290600401612063565b6080604051808303815f875af115801561154b573d5f803e3d5ffd5b505050506040513d601f19601f8201168201806040525081019061156f91906122ce565b509250505080836115809190611f29565b84519093506001600160a01b03166388826546600261159f8887611faa565b6040518363ffffffff1660e01b81526004016115bc929190611fdd565b6060604051808303815f875af11580156115d8573d5f803e3d5ffd5b505050506040513d601f19601f820116820180604052508101906115fc9190612017565b5050505050505050565b5f6040516323b872dd60e01b81526001600160a01b03851660048201526001600160a01b038416602482015282604482015260205f6064835f8a5af13d15601f3d1160015f5114161716915050806116a05760405162461bcd60e51b815260206004820152601460248201527f5452414e534645525f46524f4d5f4641494c45440000000000000000000000006044820152606401611062565b5050505050565b604080516003808252608082019092526060916020820183803683370190505090506116f16040518060400160405260078152806020016642504f4f4c763160c81b815250610fc1565b815f8151811061170357611703612301565b602002602001018181525050611737604051806040016040526007815280602001664352454454763160c81b815250610fc1565b8160018151811061174a5761174a612301565b60200260200101818152505061177e604051806040016040526007815280602001664c4f4f5053763160c81b815250610fc1565b8160028151811061179157611791612301565b6020026020010181815250505f6117a6610fd1565b805460408051630c07ac2160e11b815290519293506001600160a01b039091169163180f5842916004808201926020929091908290030181865afa1580156117f0573d5f803e3d5ffd5b505050506040513d601f19601f8201168201806040525081019061181491906121ae565b600482810180546001600160a01b0319166001600160a01b0393841617905582546040805163669949ef60e11b81529051919093169263cd3293de92818101926020929091908290030181865afa158015611871573d5f803e3d5ffd5b505050506040513d601f19601f8201168201806040525081019061189591906121ae565b6003820180546001600160a01b0319166001600160a01b039283161790558154604080516316f0115b60e01b8152905191909216916316f0115b9160048083019260209291908290030181865afa1580156118f2573d5f803e3d5ffd5b505050506040513d601f19601f8201168201806040525081019061191691906121ae565b6005820180546001600160a01b0319166001600160a01b03928316179055815460408051634c69a6c960e01b815290519190921691634c69a6c99160048083019260209291908290030181865afa158015611973573d5f803e3d5ffd5b505050506040513d601f19601f820116820180604052508101906119979190612327565b60068201805462ffffff92909216600160a01b0262ffffff60a01b19909216919091179055600480820154600283015460405163095ea7b360e01b81526001600160a01b03918216938101939093525f196024840152169063095ea7b3906044016020604051808303815f875af1158015611a14573d5f803e3d5ffd5b505050506040513d601f19601f82011682018060405250810190611a389190611ec3565b5080546003820154611a58916001600160a01b0391821691165f19611d22565b600481810154600683015460405163095ea7b360e01b81526001600160a01b03918216938101939093525f196024840152169063095ea7b3906044016020604051808303815f875af1158015611ab0573d5f803e3d5ffd5b505050506040513d601f19601f82011682018060405250810190611ad49190611ec3565b5060068101546003820154611af7916001600160a01b0391821691165f19611d22565b5090565b5f3090505f816001600160a01b031663b74795d96040518163ffffffff1660e01b8152600401602060405180830381865afa158015611b3c573d5f803e3d5ffd5b505050506040513d601f19601f82011682018060405250810190611b6091906121ae565b604051635fa32f5760e01b8152631253925560e21b60048201526001600160a01b039190911690635fa32f57906024015f60405180830381865afa158015611baa573d5f803e3d5ffd5b505050506040513d5f823e601f3d908101601f19168201604052611bd19190810190612340565b806020019051810190611be491906123f0565b90505f611bef610fd1565b6060909201516006830180546001600160a01b039092166001600160a01b031992831617905582548116309081178455600184018054831682179055600290930180549091169092179091555050565b604080516002808252606080830184529283929190602083019080368337019050509150633012b05c60e01b825f81518110611c7d57611c7d612301565b6001600160e01b0319909216602092830291909101909101528151632d6ce61d60e01b9083906001908110611cb457611cb4612301565b6001600160e01b031992909216602092830291909101820152604080516001808252818301909252918281019080368337019050509050635ce2395060e01b815f81518110611d0557611d05612301565b6001600160e01b0319909216602092830291909101909101529091565b5f60405163095ea7b360e01b81526001600160a01b038416600482015282602482015260205f6044835f895af13d15601f3d1160015f51141617169150508061106b5760405162461bcd60e51b815260206004820152600e60248201527f415050524f56455f4641494c45440000000000000000000000000000000000006044820152606401611062565b5f60208284031215611dbd575f80fd5b81356001600160e01b031981168114611dd4575f80fd5b9392505050565b5f8060408385031215611dec575f80fd5b50508035926020909101359150565b602080825282518282018190525f9190848201906040850190845b81811015611e3257835183529284019291840191600101611e16565b50909695505050505050565b5f815180845260208085019450602084015f5b83811015611e775781516001600160e01b03191687529582019590820190600101611e51565b509495945050505050565b604081525f611e946040830185611e3e565b8281036020840152611ea68185611e3e565b95945050505050565b80518015158114611ebe575f80fd5b919050565b5f60208284031215611ed3575f80fd5b611dd482611eaf565b5f60208284031215611eec575f80fd5b5051919050565b5f8060408385031215611f04575f80fd5b505080516020909101519092909150565b634e487b7160e01b5f52601160045260245ffd5b80820180821115610fcb57610fcb611f15565b6101008101610fcb82846001600160a01b0380825116835280602083015116602084015262ffffff60408301511660408401528060608301511660608401526080820151608084015260a082015160a084015260c082015160c08401528060e08301511660e0840152505050565b81810381811115610fcb57610fcb611f15565b60038110611fd957634e487b7160e01b5f52602160045260245ffd5b9052565b60408101611feb8285611fbd565b8260208301529392505050565b80516fffffffffffffffffffffffffffffffff81168114611ebe575f80fd5b5f805f60608486031215612029575f80fd5b835192506020840151915061204060408501611ff8565b90509250925092565b5f600160ff1b820161205d5761205d611f15565b505f0390565b60208101610fcb8284611fbd565b634e487b7160e01b5f52604160045260245ffd5b6040516101c0810167ffffffffffffffff811182821017156120a9576120a9612071565b60405290565b604051601f8201601f1916810167ffffffffffffffff811182821017156120d8576120d8612071565b604052919050565b6001600160a01b03811681146120f4575f80fd5b50565b5f60c08284031215612107575f80fd5b60405160c0810181811067ffffffffffffffff8211171561212a5761212a612071565b60405261213683611ff8565b81526020830151612146816120e0565b60208201526040830151612159816120e0565b80604083015250606083015160608201526080830151608082015260a083015160a08201528091505092915050565b805160208083015191908110156121a8575f198160200360031b1b821691505b50919050565b5f602082840312156121be575f80fd5b8151611dd4816120e0565b8051600281900b8114611ebe575f80fd5b805161ffff81168114611ebe575f80fd5b5f805f805f805f60e0888a031215612201575f80fd5b875161220c816120e0565b965061221a602089016121c9565b9550612228604089016121da565b9450612236606089016121da565b9350612244608089016121da565b925060a088015160ff81168114612259575f80fd5b915061226760c08901611eaf565b905092959891949750929550565b5f60408284031215612285575f80fd5b6040516040810181811067ffffffffffffffff821117156122a8576122a8612071565b6040526122b4836121c9565b81526122c2602084016121c9565b60208201529392505050565b5f805f80608085870312156122e1575f80fd5b505082516020840151604085015160609095015191969095509092509050565b634e487b7160e01b5f52603260045260245ffd5b805162ffffff81168114611ebe575f80fd5b5f60208284031215612337575f80fd5b611dd482612315565b5f6020808385031215612351575f80fd5b825167ffffffffffffffff80821115612368575f80fd5b818501915085601f83011261237b575f80fd5b81518181111561238d5761238d612071565b61239f601f8201601f191685016120af565b915080825286848285010111156123b4575f80fd5b5f5b818110156123d15783810185015183820186015284016123b6565b505f90820190930192909252509392505050565b8051611ebe816120e0565b5f6101c08284031215612401575f80fd5b612409612085565b612412836123e5565b8152612420602084016123e5565b602082015261243160408401612315565b6040820152612442606084016123e5565b6060820152612453608084016123e5565b608082015260a083015160a082015260c083015160c082015261247860e084016121da565b60e082015261010061248b8185016121c9565b9082015261012061249d8482016121c9565b908201526101406124af8482016121c9565b908201526101606124c18482016121c9565b908201526101806124d3848201611ff8565b908201526101a06124e5848201611ff8565b90820152939250505056fea2646970667358221220ad620543bde517ab228c22ce1315cb99151750183db2531bd20b9520c15561d164736f6c63430008170033","linkReferences":{}},"methodIdentifiers":{"INIT_SLOT()":"43cdab2f","LABEL()":"0f38d8c3","VERSION()":"ffa1ad74","closePosition(uint256,uint256)":"2d6ce61d","configureDependencies()":"9459b875","initializeComponent()":"9d8a307b","isInstalled()":"04c785bc","isMutable()":"7a393205","isSolvent()":"5ce23950","openPosition(uint256,uint256)":"3012b05c","requestRoutes()":"f55b134e","supportsInterface(bytes4)":"01ffc9a7"},"id":55}