{"abi":[{"type":"function","name":"ANCHOR_WIDTH","inputs":[],"outputs":[{"name":"","type":"int24","internalType":"int24"}],"stateMutability":"view"},{"type":"function","name":"DISCOVERY_WIDTH","inputs":[],"outputs":[{"name":"","type":"int24","internalType":"int24"}],"stateMutability":"view"},{"type":"function","name":"DISC_DECAY_FACTOR","inputs":[],"outputs":[{"name":"","type":"uint256","internalType":"uint256"}],"stateMutability":"view"},{"type":"function","name":"DROP_PERIOD","inputs":[],"outputs":[{"name":"","type":"uint256","internalType":"uint256"}],"stateMutability":"view"},{"type":"function","name":"INIT_SLOT","inputs":[],"outputs":[{"name":"","type":"bytes32","internalType":"bytes32"}],"stateMutability":"view"},{"type":"function","name":"LABEL","inputs":[],"outputs":[{"name":"","type":"bytes32","internalType":"bytes32"}],"stateMutability":"view"},{"type":"function","name":"LIQ_THICKNESS","inputs":[],"outputs":[{"name":"","type":"uint256","internalType":"uint256"}],"stateMutability":"view"},{"type":"function","name":"VERSION","inputs":[],"outputs":[{"name":"","type":"uint8","internalType":"uint8"}],"stateMutability":"view"},{"type":"function","name":"bump","inputs":[],"outputs":[{"name":"","type":"bool","internalType":"bool"}],"stateMutability":"nonpayable"},{"type":"function","name":"canDrop","inputs":[],"outputs":[{"name":"","type":"bool","internalType":"bool"}],"stateMutability":"view"},{"type":"function","name":"canSlide","inputs":[],"outputs":[{"name":"","type":"bool","internalType":"bool"}],"stateMutability":"view"},{"type":"function","name":"canSweep","inputs":[],"outputs":[{"name":"","type":"bool","internalType":"bool"}],"stateMutability":"view"},{"type":"function","name":"configureDependencies","inputs":[],"outputs":[{"name":"","type":"bytes32[]","internalType":"bytes32[]"}],"stateMutability":"nonpayable"},{"type":"function","name":"drop","inputs":[],"outputs":[{"name":"","type":"bool","internalType":"bool"}],"stateMutability":"nonpayable"},{"type":"function","name":"getCirculatingSupply","inputs":[],"outputs":[{"name":"","type":"uint256","internalType":"uint256"}],"stateMutability":"view"},{"type":"function","name":"getCurrentThreshold","inputs":[],"outputs":[{"name":"threshold_","type":"uint128","internalType":"uint128"}],"stateMutability":"view"},{"type":"function","name":"getLiquiditySpread","inputs":[],"outputs":[{"name":"liquiditySpread_","type":"uint128","internalType":"uint128"}],"stateMutability":"view"},{"type":"function","name":"getRebalanceTicks","inputs":[],"outputs":[{"name":"","type":"int24","internalType":"int24"}],"stateMutability":"view"},{"type":"function","name":"getTotalCapacity","inputs":[],"outputs":[{"name":"totalCapacity_","type":"uint256","internalType":"uint256"}],"stateMutability":"view"},{"type":"function","name":"initializeComponent","inputs":[],"outputs":[],"stateMutability":"nonpayable"},{"type":"function","name":"isInstalled","inputs":[],"outputs":[{"name":"","type":"bool","internalType":"bool"}],"stateMutability":"view"},{"type":"function","name":"isMutable","inputs":[],"outputs":[{"name":"","type":"bool","internalType":"bool"}],"stateMutability":"view"},{"type":"function","name":"lastDropTimestamp","inputs":[],"outputs":[{"name":"","type":"uint256","internalType":"uint256"}],"stateMutability":"view"},{"type":"function","name":"requestRoutes","inputs":[],"outputs":[{"name":"hookedCalls_","type":"bytes4[]","internalType":"bytes4[]"},{"name":"nonHookedCalls_","type":"bytes4[]","internalType":"bytes4[]"}],"stateMutability":"view"},{"type":"function","name":"slide","inputs":[],"outputs":[{"name":"","type":"bool","internalType":"bool"}],"stateMutability":"nonpayable"},{"type":"function","name":"slideTick","inputs":[],"outputs":[{"name":"","type":"int24","internalType":"int24"}],"stateMutability":"view"},{"type":"function","name":"supportsInterface","inputs":[{"name":"interfaceId_","type":"bytes4","internalType":"bytes4"}],"outputs":[{"name":"","type":"bool","internalType":"bool"}],"stateMutability":"pure"},{"type":"function","name":"sweep","inputs":[],"outputs":[{"name":"","type":"bool","internalType":"bool"}],"stateMutability":"nonpayable"},{"type":"function","name":"sweepTick","inputs":[],"outputs":[{"name":"","type":"int24","internalType":"int24"}],"stateMutability":"view"},{"type":"event","name":"Bump","inputs":[{"name":"bAssetsCirculating","type":"uint256","indexed":false,"internalType":"uint256"}],"anonymous":false},{"type":"event","name":"Drop","inputs":[{"name":"sweepTick","type":"int24","indexed":false,"internalType":"int24"},{"name":"lastDropTimestamp","type":"uint256","indexed":false,"internalType":"uint256"}],"anonymous":false},{"type":"event","name":"Slide","inputs":[{"name":"bAssetsCirculating","type":"uint256","indexed":false,"internalType":"uint256"}],"anonymous":false},{"type":"event","name":"Sweep","inputs":[{"name":"bAssetsCirculating","type":"uint256","indexed":false,"internalType":"uint256"}],"anonymous":false},{"type":"error","name":"CannotBumpIntoFloor","inputs":[]},{"type":"error","name":"CannotDropIntoFloor","inputs":[]},{"type":"error","name":"Component_NotPermitted","inputs":[]},{"type":"error","name":"Component_OnlyDelegatecall","inputs":[]},{"type":"error","name":"Component_OnlyProxyKernel","inputs":[{"name":"sender_","type":"address","internalType":"address"}]},{"type":"error","name":"Insolvent","inputs":[]},{"type":"error","name":"InvalidInitRange","inputs":[]},{"type":"error","name":"T","inputs":[]},{"type":"error","name":"TooEarlyToDrop","inputs":[]},{"type":"error","name":"UninitalizedPool","inputs":[]}],"bytecode":{"object":"0x60a060405234801561000f575f80fd5b5030608052608051615ccd620000345f395f8181612084015261284b0152615ccd5ff3fe608060405234801561000f575f80fd5b50600436106101c6575f3560e01c806360b07fa7116100fe578063982f3bfd1161009e578063c83eec911161006e578063c83eec9114610309578063f55b134e14610311578063f751cd8f14610327578063ffa1ad741461032f575f80fd5b8063982f3bfd146102e75780639d8a307b146102ef578063aa9f1a52146102f9578063bf181e8b14610301575f80fd5b80637a393205116100d95780637a393205146102bc5780637edc1713146102c2578063844b6846146102ca5780639459b875146102d2575f80fd5b806360b07fa7146102a457806368110b2f146102ac5780636ced8cd0146102b4575f80fd5b806335faa41611610169578063473599c511610144578063473599c5146102845780634d601e1b1461028c5780634da16b5914610294578063524a9d111461029c575f80fd5b806335faa4161461026c57806343cdab2f14610274578063442c18f31461027c575f80fd5b80631b71bf6e116101a45780631b71bf6e146102215780632624eaef146102415780632b112e491461025c5780632b21773c14610264575f80fd5b806301ffc9a7146101ca57806304c785bc146102035780630f38d8c31461020b575b5f80fd5b6101ee6101d8366004615471565b6001600160e01b03191663186e9de360e11b1490565b60405190151581526020015b60405180910390f35b6101ee61033e565b6102136103af565b6040519081526020016101fa565b6102296103dd565b6040516001600160801b0390911681526020016101fa565b610249610543565b60405160029190910b81526020016101fa565b61021361055f565b61021361087b565b6101ee61088d565b610213611144565b610213611175565b610249606481565b6101ee611527565b61024961161d565b610249611632565b6102136116a5565b6101ee6116b7565b610213611cff565b5f6101ee565b610229611d11565b6101ee611e95565b6102da612078565b6040516101fa9190615498565b6101ee6120cb565b6102f7612841565b005b610213612894565b6102496128a6565b6101ee6128c2565b610319612aa6565b6040516101fa92919061551f565b6101ee612ab9565b604051600181526020016101fa565b5f30634986b3f961034d6103af565b6040518263ffffffff1660e01b815260040161036b91815260200190565b602060405180830381865afa158015610386573d5f803e3d5ffd5b505050506040513d601f19601f820116820180604052508101906103aa919061555b565b905090565b5f6103aa60405180604001604052600c8152806020016b4d61726b65744d616b696e6760a01b8152506130b4565b5f806103e76130c4565b604080516101c08101825282546001600160a01b03908116825260018401548116602083015260028085015482169383019390935260038401546060830152600484015480840b6080840181905263010000008204850b60a0850152600160301b909104821660c08401526005850154821660e08401526006850154918216610100840152600160a01b8204840b610120840152600160b81b90910490920b610140820152600783015461016082015260088301546101808201526009909201546101a08301529091505f906104bc906130ce565b90505f6104d6826001600160a01b0316600160601b6133f6565b90505f6104f46104e68384613443565b6104ee61055f565b90613443565b905061053a61051685610120015186608001516105119190615588565b6130ce565b846127108761016001518561052b91906155ad565b61053591906155d8565b61346e565b94505050505090565b5f61054c6130c4565b600401546301000000900460020b919050565b5f806105696130c4565b604080516101c08101825282546001600160a01b0390811682526001840154811660208084019190915260028086015483168486018190526003870154606086015260048088015480840b608088015263010000008104840b60a0880152600160301b9004851660c08701526005880154851660e08701526006880154948516610100870152600160a01b8504830b610120870152600160b81b90940490910b610140850152600786015461016085015260088601546101808501526009909501546101a08401528351636ccd988b60e01b815293519295505f9493636ccd988b938184019390918290030181865afa158015610668573d5f803e3d5ffd5b505050506040513d601f19601f8201168201806040525081019061068c91906155eb565b905080825f01516001600160a01b0316636f6781d360026040518263ffffffff1660e01b81526004016106bf9190615622565b60c060405180830381865afa1580156106da573d5f803e3d5ffd5b505050506040513d601f19601f820116820180604052508101906106fe91906156cc565b606001518351604051636f6781d360e01b81526001600160a01b0390911690636f6781d39061073290600190600401615622565b60c060405180830381865afa15801561074d573d5f803e3d5ffd5b505050506040513d601f19601f8201168201806040525081019061077191906156cc565b606001518451604051636f6781d360e01b81526001600160a01b0390911690636f6781d3906107a4905f90600401615622565b60c060405180830381865afa1580156107bf573d5f803e3d5ffd5b505050506040513d601f19601f820116820180604052508101906107e391906156cc565b606001518561010001516001600160a01b03166318160ddd6040518163ffffffff1660e01b8152600401602060405180830381865afa158015610828573d5f803e3d5ffd5b505050506040513d601f19601f8201168201806040525081019061084c91906155eb565b610856919061575d565b610860919061575d565b61086a919061575d565b610874919061575d565b9250505090565b5f6108846130c4565b60080154905090565b5f6108966128c2565b61089f57505f90565b5f6108a86130c4565b604080516101c08101825282546001600160a01b03908116825260018401548116602083015260028085015482168385018190526003860154606085015260048087015480840b608087015263010000008104840b60a0870152600160301b9004841660c08601526005870154841660e08601526006870154938416610100860152600160a01b8404830b610120860152600160b81b90930490910b610140840152600785015461016084015260088501546101808401526009909401546101a08301528251632395f19760e21b81529251919450638e57c65c92808201925f92909182900301818387803b15801561099f575f80fd5b505af11580156109b1573d5f803e3d5ffd5b50508251604051636f6781d360e01b81525f93506001600160a01b039091169150636f6781d3906109e790600290600401615622565b60c060405180830381865afa158015610a02573d5f803e3d5ffd5b505050506040513d601f19601f82011682018060405250810190610a2691906156cc565b90505f610a316103dd565b90505f835f01516001600160a01b031663a9c3a30a60016040518263ffffffff1660e01b8152600401610a649190615622565b602060405180830381865afa158015610a7f573d5f803e3d5ffd5b505050506040513d601f19601f82011682018060405250810190610aa39190615770565b60e08501516040516370a0823160e01b81523060048201529192505f916001600160a01b03909116906370a0823190602401602060405180830381865afa158015610af0573d5f803e3d5ffd5b505050506040513d601f19601f82011682018060405250810190610b1491906155eb565b9050610b1e6134b9565b610b289082615789565b90505f8561010001516001600160a01b03166318160ddd6040518163ffffffff1660e01b8152600401602060405180830381865afa158015610b6c573d5f803e3d5ffd5b505050506040513d601f19601f82011682018060405250810190610b9091906155eb565b9050610b9a6136f1565b855160405163630369af60e01b81525f916001600160a01b03169063630369af90610bca90600190600401615622565b6080604051808303815f875af1158015610be6573d5f803e3d5ffd5b505050506040513d601f19601f82011682018060405250810190610c0a919061579c565b8a5160405163630369af60e01b81529195505f94506001600160a01b0316925063630369af9150610c4090600290600401615622565b6080604051808303815f875af1158015610c5c573d5f803e3d5ffd5b505050506040513d601f19601f82011682018060405250810190610c80919061579c565b93505050508082610c919190615789565b610c9b9085615789565b93505f885f01516001600160a01b0316636f6781d360016040518263ffffffff1660e01b8152600401610cce9190615622565b60c060405180830381865afa158015610ce9573d5f803e3d5ffd5b505050506040513d601f19601f82011682018060405250810190610d0d91906156cc565b90505f895f01516001600160a01b0316637e9b9e0a610d3484602001518c60200151613974565b60408c01518c51610d46908c906157cf565b6040516001600160e01b031960e086901b1681526001600160a01b0393841660048201529290911660248301526001600160801b031660448201526064016040805180830381865afa158015610d9e573d5f803e3d5ffd5b505050506040513d601f19601f82011682018060405250810190610dc291906157f6565b9150505f8a60c001516001600160a01b0316633850c7bd6040518163ffffffff1660e01b815260040160e060405180830381865afa158015610e06573d5f803e3d5ffd5b505050506040513d601f19601f82011682018060405250810190610e2a919061583a565b50508f5160208901516040808b015190516373a3a78f60e01b81526001600160a01b0392831660048201529082166024820152604481018a905281881660648201529697505f96911694506373a3a78f93506084019150610e889050565b602060405180830381865afa158015610ea3573d5f803e3d5ffd5b505050506040513d601f19601f82011682018060405250810190610ec79190615770565b9050610edc610ed6828b6158c4565b8b613997565b8c5160405163509c1bd160e01b8152919a506001600160a01b0316945063509c1bd19350610f1392506001915089906004016158e4565b6060604051808303815f875af1158015610f2f573d5f803e3d5ffd5b505050506040513d601f19601f82011682018060405250810190610f539190615908565b5050885160e08a01516040516370a0823160e01b81523060048201526001600160a01b0392831693506388826546925f9289929116906370a0823190602401602060405180830381865afa158015610fad573d5f803e3d5ffd5b505050506040513d601f19601f82011682018060405250810190610fd191906155eb565b610fdb919061575d565b6040518363ffffffff1660e01b8152600401610ff892919061593a565b6060604051808303815f875af1158015611014573d5f803e3d5ffd5b505050506040513d601f19601f820116820180604052508101906110389190615908565b505088516001600160a01b0316905063509c1bd1600261107a8961105a611d11565b61106c90670de0b6b3a76400006158c4565b6001600160801b03166139ba565b6040518363ffffffff1660e01b81526004016110979291906158e4565b6060604051808303815f875af11580156110b3573d5f803e3d5ffd5b505050506040513d601f19601f820116820180604052508101906110d79190615908565b505050826110e3611175565b101561110257604051631f84400760e31b815260040160405180910390fd5b6040518381527ff2e5cfae4c990f32807a4db8277440db70d23f8157e11efeb28e0f8ed03b69929060200160405180910390a160019850505050505050505090565b5f61114d6103af565b6040805160208101929092520160405160208183030381529060405280519060200120905090565b5f8061117f6130c4565b604080516101c08101825282546001600160a01b039081168083526001850154821660208401526002808601548316848601526003860154606085015260048087015480830b608087015263010000008104830b60a0870152600160301b9004841660c08601526005870154841660e08601526006870154938416610100860152600160a01b8404820b610120860152600160b81b909304900b610140840152600785015461016084015260088501546101808401526009909401546101a08301529151636f6781d360e01b81529093505f9291636f6781d39161126591859101615622565b60c060405180830381865afa158015611280573d5f803e3d5ffd5b505050506040513d601f19601f820116820180604052508101906112a491906156cc565b90505f825f01516001600160a01b0316636f6781d360016040518263ffffffff1660e01b81526004016112d79190615622565b60c060405180830381865afa1580156112f2573d5f803e3d5ffd5b505050506040513d601f19601f8201168201806040525081019061131691906156cc565b90505f835f01516001600160a01b0316636f6781d360026040518263ffffffff1660e01b81526004016113499190615622565b60c060405180830381865afa158015611364573d5f803e3d5ffd5b505050506040513d601f19601f8201168201806040525081019061138891906156cc565b90505f845f01516001600160a01b0316638d4aafb48560200151866040015188604001516001600160a01b031663fc7b9c186040518163ffffffff1660e01b8152600401602060405180830381865afa1580156113e7573d5f803e3d5ffd5b505050506040513d601f19601f8201168201806040525081019061140b91906155eb565b89602001516001600160a01b031663b5aca5706040518163ffffffff1660e01b8152600401602060405180830381865afa15801561144b573d5f803e3d5ffd5b505050506040513d601f19601f8201168201806040525081019061146f91906155eb565b6114799190615789565b6040516001600160e01b031960e086901b1681526001600160a01b0393841660048201529290911660248301526044820152606401602060405180830381865afa1580156114c9573d5f803e3d5ffd5b505050506040513d601f19601f820116820180604052508101906114ed91906155eb565b90508160a001518360a001518560a00151836115099190615789565b6115139190615789565b61151d9190615789565b9550505050505090565b5f806115316130c4565b604080516101c08101825282546001600160a01b039081168252600184015481166020830152600280850154821693830193909352600384015460608301819052600485015480850b608085015263010000008104850b60a0850152600160301b9004821660c08401526005850154821660e08401526006850154918216610100840152600160a01b8204840b610120840152600160b81b90910490920b6101408201526007830154610160820152600883015461018082018190526009909301546101a082015292506116059190615789565b421015801561161757506116176139ce565b91505090565b5f6116266130c4565b6004015460020b919050565b5f61163b6130c4565b54604080516346ca626b60e01b815290516001600160a01b03909216916346ca626b916004808201926020929091908290030181865afa158015611681573d5f803e3d5ffd5b505050506040513d601f19601f820116820180604052508101906103aa9190615955565b5f6116ae6130c4565b60090154905090565b5f806116c16130c4565b604080516101c08101825282546001600160a01b03908116825260018401548116602083015260028085015482168385018190526003860154606085015260048087015480840b608087015263010000008104840b60a0870152600160301b9004841660c08601526005870154841660e08601526006870154938416610100860152600160a01b8404830b610120860152600160b81b90930490910b610140840152600785015461016084015260088501546101808401526009909401546101a08301528251632395f19760e21b81529251919450638e57c65c92808201925f92909182900301818387803b1580156117b8575f80fd5b505af11580156117ca573d5f803e3d5ffd5b505082516040516354e1d18560e11b81525f93506001600160a01b03909116915063a9c3a30a9061180090600190600401615622565b602060405180830381865afa15801561181b573d5f803e3d5ffd5b505050506040513d601f19601f8201168201806040525081019061183f9190615770565b90505f825f01516001600160a01b031663a9c3a30a60026040518263ffffffff1660e01b81526004016118729190615622565b602060405180830381865afa15801561188d573d5f803e3d5ffd5b505050506040513d601f19601f820116820180604052508101906118b19190615770565b60e08401516040516370a0823160e01b81523060048201529192505f916001600160a01b03909116906370a0823190602401602060405180830381865afa1580156118fe573d5f803e3d5ffd5b505050506040513d601f19601f8201168201806040525081019061192291906155eb565b905061192c6134b9565b6119369082615789565b9050611940613c39565b61195d57604051630724404f60e11b815260040160405180910390fd5b835160405163630369af60e01b81525f916001600160a01b03169063630369af9061198c908490600401615622565b6080604051808303815f875af11580156119a8573d5f803e3d5ffd5b505050506040513d601f19601f820116820180604052508101906119cc919061579c565b885160405163630369af60e01b81529195505f94506001600160a01b0316925063630369af9150611a0290600190600401615622565b6080604051808303815f875af1158015611a1e573d5f803e3d5ffd5b505050506040513d601f19601f82011682018060405250810190611a42919061579c565b93505050508082611a539190615789565b611a5d9084615789565b92505f8661010001516001600160a01b03166318160ddd6040518163ffffffff1660e01b8152600401602060405180830381865afa158015611aa1573d5f803e3d5ffd5b505050506040513d601f19601f82011682018060405250810190611ac591906155eb565b875160405163509c1bd160e01b81529192506001600160a01b03169063509c1bd190611af8906001908a906004016158e4565b6060604051808303815f875af1158015611b14573d5f803e3d5ffd5b505050506040513d601f19601f82011682018060405250810190611b389190615908565b5050875160405163509c1bd160e01b81526001600160a01b03909116915063509c1bd190611b6d9060029089906004016158e4565b6060604051808303815f875af1158015611b89573d5f803e3d5ffd5b505050506040513d601f19601f82011682018060405250810190611bad9190615908565b5050875160e08901516040516370a0823160e01b81523060048201526001600160a01b0392831693506388826546925f9289929116906370a0823190602401602060405180830381865afa158015611c07573d5f803e3d5ffd5b505050506040513d601f19601f82011682018060405250810190611c2b91906155eb565b611c35919061575d565b6040518363ffffffff1660e01b8152600401611c5292919061593a565b6060604051808303815f875af1158015611c6e573d5f803e3d5ffd5b505050506040513d601f19601f82011682018060405250810190611c929190615908565b50505080611c9e611175565b1015611cbd57604051631f84400760e31b815260040160405180910390fd5b6040518181527feff0789fbb604f675c6ff493be9f5db61215db5f3e5916fc2062bd98e575053d906020015b60405180910390a1600197505050505050505090565b5f611d086130c4565b60070154905090565b5f80611d1b6130c4565b604080516101c08101825282546001600160a01b03908116825260018401548116602083015260028085015482169383019390935260038401546060830152600484015480840b6080840181905263010000008204850b60a0850152600160301b909104821660c08401526005850154821660e08401526006850154918216610100840152600160a01b8204840b610120840152600160b81b90910490920b610140820152600783015461016082015260088301546101808201526009909201546101a08301529091505f90611df0906130ce565b90505f611e0a826001600160a01b0316600160601b6133f6565b90505f611e82611e1a8384613443565b855f01516001600160a01b0316639fd57c116040518163ffffffff1660e01b8152600401602060405180830381865afa158015611e59573d5f803e3d5ffd5b505050506040513d601f19601f82011682018060405250810190611e7d91906155eb565b6133f6565b905061053a611e9082613f9b565b6141b6565b5f80611e9f6130c4565b604080516101c08101825282546001600160a01b0390811682526001840154811660208301526002808501548216838501526003850154606084015260048086015480830b608086015263010000008104830b60a0860152600160301b9004831660c085018190526005870154841660e0808701919091526006880154948516610100870152600160a01b8504840b610120870152600160b81b90940490920b610140850152600786015461016085015260088601546101808501526009909501546101a08401528351633850c7bd60e01b815293519295505f949093633850c7bd93818301939290918290030181865afa158015611fa0573d5f803e3d5ffd5b505050506040513d601f19601f82011682018060405250810190611fc4919061583a565b50508651604051632fcc4dd960e21b81529496505f95506001600160a01b03169363bf3137649350611ffd925060029150600401615622565b6040805180830381865afa158015612017573d5f803e3d5ffd5b505050506040513d601f19601f8201168201806040525081019061203b919061596e565b9050612045611632565b8360a001516120549190615588565b60020b8260020b1280156120705750805f015160020b8260020b125b935050505090565b60606001600160a01b037f00000000000000000000000000000000000000000000000000000000000000001630036120c357604051631dd328bf60e01b815260040160405180910390fd5b6103aa6141cb565b5f6120d4611e95565b6120dd57505f90565b5f6120e66130c4565b604080516101c08101825282546001600160a01b03908116825260018401548116602083015260028085015482168385018190526003860154606085015260048087015480840b608087015263010000008104840b60a0870152600160301b9004841660c08601526005870154841660e08601526006870154938416610100860152600160a01b8404830b610120860152600160b81b90930490910b610140840152600785015461016084015260088501546101808401526009909401546101a08301528251632395f19760e21b81529251919450638e57c65c92808201925f92909182900301818387803b1580156121dd575f80fd5b505af11580156121ef573d5f803e3d5ffd5b50508251604051636f6781d360e01b81525f93506001600160a01b039091169150636f6781d39061222590600190600401615622565b60c060405180830381865afa158015612240573d5f803e3d5ffd5b505050506040513d601f19601f8201168201806040525081019061226491906156cc565b6080015190505f6122736103dd565b60e08401516040516370a0823160e01b81523060048201529192505f916001600160a01b03909116906370a0823190602401602060405180830381865afa1580156122c0573d5f803e3d5ffd5b505050506040513d601f19601f820116820180604052508101906122e491906155eb565b90506122ee6134b9565b6122f89082615789565b90505f8461010001516001600160a01b03166318160ddd6040518163ffffffff1660e01b8152600401602060405180830381865afa15801561233c573d5f803e3d5ffd5b505050506040513d601f19601f8201168201806040525081019061236091906155eb565b905061236a6136f1565b845160405163630369af60e01b81525f916001600160a01b03169063630369af9061239a90600190600401615622565b6080604051808303815f875af11580156123b6573d5f803e3d5ffd5b505050506040513d601f19601f820116820180604052508101906123da919061579c565b895160405163630369af60e01b81529195505f94506001600160a01b0316925063630369af915061241090600290600401615622565b6080604051808303815f875af115801561242c573d5f803e3d5ffd5b505050506040513d601f19601f82011682018060405250810190612450919061579c565b935050505080826124619190615789565b61246b9085615789565b93505f875f01516001600160a01b0316636f6781d360016040518263ffffffff1660e01b815260040161249e9190615622565b60c060405180830381865afa1580156124b9573d5f803e3d5ffd5b505050506040513d601f19601f820116820180604052508101906124dd91906156cc565b90505f8860c001516001600160a01b0316633850c7bd6040518163ffffffff1660e01b815260040160e060405180830381865afa158015612520573d5f803e3d5ffd5b505050506040513d601f19601f82011682018060405250810190612544919061583a565b50505050505090505f895f01516001600160a01b03166373a3a78f846020015185604001518c866040518563ffffffff1660e01b81526004016125b094939291906001600160a01b03948516815292841660208401526040830191909152909116606082015260800190565b602060405180830381865afa1580156125cb573d5f803e3d5ffd5b505050506040513d601f19601f820116820180604052508101906125ef9190615770565b90506125fb8189613997565b8a5160405163509c1bd160e01b81529192506001600160a01b03169063509c1bd19061262e9060019085906004016158e4565b6060604051808303815f875af115801561264a573d5f803e3d5ffd5b505050506040513d601f19601f8201168201806040525081019061266e9190615908565b50508a5160e08c01516040516370a0823160e01b81523060048201526001600160a01b0392831693506388826546925f928c929116906370a0823190602401602060405180830381865afa1580156126c8573d5f803e3d5ffd5b505050506040513d601f19601f820116820180604052508101906126ec91906155eb565b6126f6919061575d565b6040518363ffffffff1660e01b815260040161271392919061593a565b6060604051808303815f875af115801561272f573d5f803e3d5ffd5b505050506040513d601f19601f820116820180604052508101906127539190615908565b50508a516001600160a01b0316905063509c1bd160026127758b61105a611d11565b6040518363ffffffff1660e01b81526004016127929291906158e4565b6060604051808303815f875af11580156127ae573d5f803e3d5ffd5b505050506040513d601f19601f820116820180604052508101906127d29190615908565b505050856127de611175565b10156127fd57604051631f84400760e31b815260040160405180910390fd5b6040518681527ff2df2c30e167c089dd3bf08311c8bb71119ff845ab01f96df22a6fca1946c58d9060200160405180910390a160019a505050505050505050505090565b6001600160a01b037f000000000000000000000000000000000000000000000000000000000000000016300361288a57604051631dd328bf60e01b815260040160405180910390fd5b6128926148d6565b565b5f61289d6130c4565b60030154905090565b5f6128af6130c4565b60060154600160b81b900460020b919050565b5f806128cc6130c4565b604080516101c08101825282546001600160a01b0390811682526001840154811660208301526002808501548216838501526003850154606084015260048086015480830b608086015263010000008104830b60a0860152600160301b9004831660c085018190526005870154841660e0808701919091526006880154948516610100870152600160a01b8504840b610120870152600160b81b90940490920b610140850152600786015461016085015260088601546101808501526009909501546101a08401528351633850c7bd60e01b815293519295505f949093633850c7bd93818301939290918290030181865afa1580156129cd573d5f803e3d5ffd5b505050506040513d601f19601f820116820180604052508101906129f1919061583a565b50508651604051632fcc4dd960e21b81529496505f95506001600160a01b03169363bf3137649350612a2a925060029150600401615622565b6040805180830381865afa158015612a44573d5f803e3d5ffd5b505050506040513d601f19601f82011682018060405250810190612a68919061596e565b9050806020015160020b8260020b1280156120705750612a86611632565b8360800151612a9591906159c7565b60020b8260020b1215935050505090565b606080612ab1614a38565b915091509091565b5f612ac2611527565b612acb57505f90565b5f612ad46130c4565b604080516101c08101825282546001600160a01b03908116825260018401548116602083015260028085015482168385018190526003860154606085015260048087015480840b608087015263010000008104840b60a0870152600160301b9004841660c08601526005870154841660e08601526006870154938416610100860152600160a01b8404830b610120860152600160b81b90930490910b610140840152600785015461016084015260088501546101808401526009909401546101a08301528251632395f19760e21b81529251919450638e57c65c92808201925f92909182900301818387803b158015612bcb575f80fd5b505af1158015612bdd573d5f803e3d5ffd5b5050505042612bea6130c4565b600301555f612bf76103dd565b82516040516354e1d18560e11b81529192505f91612c73916001600160a01b03169063a9c3a30a90612c2e90600190600401615622565b602060405180830381865afa158015612c49573d5f803e3d5ffd5b505050506040513d601f19601f82011682018060405250810190612c6d9190615770565b83613997565b60e08401516040516370a0823160e01b81523060048201529192505f916001600160a01b03909116906370a0823190602401602060405180830381865afa158015612cc0573d5f803e3d5ffd5b505050506040513d601f19601f82011682018060405250810190612ce491906155eb565b9050612cee6134b9565b612cf89082615789565b90505f8461010001516001600160a01b03166318160ddd6040518163ffffffff1660e01b8152600401602060405180830381865afa158015612d3c573d5f803e3d5ffd5b505050506040513d601f19601f82011682018060405250810190612d6091906155eb565b9050612d6a61504e565b845160405163630369af60e01b81525f916001600160a01b03169063630369af90612d9a90600190600401615622565b6080604051808303815f875af1158015612db6573d5f803e3d5ffd5b505050506040513d601f19601f82011682018060405250810190612dda919061579c565b895160405163630369af60e01b81529195505f94506001600160a01b0316925063630369af9150612e1090600290600401615622565b6080604051808303815f875af1158015612e2c573d5f803e3d5ffd5b505050506040513d601f19601f82011682018060405250810190612e50919061579c565b93505050508082612e619190615789565b612e6b9085615789565b875160405163509c1bd160e01b81529195506001600160a01b03169063509c1bd190612e9e9060019089906004016158e4565b6060604051808303815f875af1158015612eba573d5f803e3d5ffd5b505050506040513d601f19601f82011682018060405250810190612ede9190615908565b505087516001600160a01b0316905063509c1bd16002612f008961105a611d11565b6040518363ffffffff1660e01b8152600401612f1d9291906158e4565b6060604051808303815f875af1158015612f39573d5f803e3d5ffd5b505050506040513d601f19601f82011682018060405250810190612f5d9190615908565b5050875160e08901516040516370a0823160e01b81523060048201526001600160a01b0392831693506388826546925f9289929116906370a0823190602401602060405180830381865afa158015612fb7573d5f803e3d5ffd5b505050506040513d601f19601f82011682018060405250810190612fdb91906155eb565b612fe5919061575d565b6040518363ffffffff1660e01b815260040161300292919061593a565b6060604051808303815f875af115801561301e573d5f803e3d5ffd5b505050506040513d601f19601f820116820180604052508101906130429190615908565b5050508261304e611175565b101561306d57604051631f84400760e31b815260040160405180910390fd5b7fbe684552a60b0df1fd18558de3a6496e051c1bed91169108823bb6253b003fa687608001518860600151604051611ce992919060029290920b8252602082015260400190565b5f6130be826159ec565b92915050565b5f806130be611144565b5f805f8360020b126130e3578260020b6130ea565b8260020b5f035b9050620d89e8811115613110576040516315e4079d60e11b815260040160405180910390fd5b5f816001165f0361313257700100000000000000000000000000000000613144565b6ffffcb933bd6fad37aa2d162d1a5940015b70ffffffffffffffffffffffffffffffffff1690506002821615613178576ffff97272373d413259a46990580e213a0260801c5b6004821615613197576ffff2e50f5f656932ef12357cf3c7fdcc0260801c5b60088216156131b6576fffe5caca7e10e4e61c3624eaa0941cd00260801c5b60108216156131d5576fffcb9843d60f6159c9db58835c9266440260801c5b60208216156131f4576fff973b41fa98c081472e6896dfb254c00260801c5b6040821615613213576fff2ea16466c96a3843ec78b326b528610260801c5b6080821615613232576ffe5dee046a99a2a811c461f1969c30530260801c5b610100821615613252576ffcbe86c7900a88aedcffc83b479aa3a40260801c5b610200821615613272576ff987a7253ac413176f2b074cf7815e540260801c5b610400821615613292576ff3392b0822b70005940c7a398e4b70f30260801c5b6108008216156132b2576fe7159475a2c29b7443b29c7fa6e889d90260801c5b6110008216156132d2576fd097f3bdfd2022b8845ad8f792aa58250260801c5b6120008216156132f2576fa9f746462d870fdf8a65dc1f90e061e50260801c5b614000821615613312576f70d869a156d2a1b890bb3df62baf32f70260801c5b618000821615613332576f31be135f97d08fd981231505542fcfa60260801c5b62010000821615613353576f09aa508b5b7a84e1c677de54f3e99bc90260801c5b62020000821615613373576e5d6af8dedb81196699c329225ee6040260801c5b62040000821615613392576d2216e584f5fa1ea926041bedfe980260801c5b620800008216156133af576b048a170391f7dc42444e8fa20260801c5b5f8460020b13156133ce57805f19816133ca576133ca6155c4565b0490505b6401000000008106156133e25760016133e4565b5f5b60ff16602082901c0192505050919050565b5f7812725dd1d243aba0e75fe645cc4873f9e65afe688c928e1f218311670de0b6b3a76400000215820261343157637c5f487d5f526004601cfd5b50670de0b6b3a7640000919091020490565b5f815f1904831182021561345e5763bac65e5b5f526004601cfd5b50670de0b6b3a764000091020490565b5f826001600160a01b0316846001600160a01b0316111561348d579192915b6134af6134aa83600160601b8787036001600160a01b03166151ed565b615297565b90505b9392505050565b5f806134c36130c4565b604080516101c08101825282546001600160a01b039081168083526001850154821660208401526002808601548316848601526003860154606085015260048087015480830b608087015263010000008104830b60a0870152600160301b9004841660c08601526005870154841660e08601526006870154938416610100860152600160a01b8404820b610120860152600160b81b909304900b610140840152600785015461016084015260088501546101808401526009909401546101a0830152915163630369af60e01b81529093505f929163630369af916135a991859101615622565b6080604051808303815f875af11580156135c5573d5f803e3d5ffd5b505050506040513d601f19601f820116820180604052508101906135e9919061579c565b855160405163630369af60e01b81529195505f94506001600160a01b0316925063630369af915061361f90600190600401615622565b6080604051808303815f875af115801561363b573d5f803e3d5ffd5b505050506040513d601f19601f8201168201806040525081019061365f919061579c565b865160405163630369af60e01b81529195505f94506001600160a01b0316925063630369af915061369590600290600401615622565b6080604051808303815f875af11580156136b1573d5f803e3d5ffd5b505050506040513d601f19601f820116820180604052508101906136d5919061579c565b93505050508082846136e79190615789565b61053a9190615789565b5f6136fa6130c4565b90505f815f015f9054906101000a90046001600160a01b03166001600160a01b031663acd1cca66040518163ffffffff1660e01b8152600401602060405180830381865afa15801561374e573d5f803e3d5ffd5b505050506040513d601f19601f820116820180604052508101906137729190615955565b60048301805465ffffff0000001916630100000062ffffff8416021790819055909150600290810b9082900b13156137c05760048201805462ffffff191662ffffff83161790554260038301555b8154604051632fcc4dd960e21b81525f916001600160a01b03169063bf313764906137ef908490600401615622565b6040805180830381865afa158015613809573d5f803e3d5ffd5b505050506040513d601f19601f8201168201806040525081019061382d919061596e565b60068401549091505f9061386e9061385a90600160a01b8104600290810b91600160b81b9004900b615a12565b6138649085615588565b83602001516152b1565b8454600480870154604051635f9b2d7160e11b81529394506001600160a01b039092169263bf365ae2926138ab92600192879260020b9101615a31565b5f604051808303815f87803b1580156138c2575f80fd5b505af11580156138d4573d5f803e3d5ffd5b50508554600487015460068801546001600160a01b03909216935063bf365ae2925060029190820b9061391190600160a01b9004830b6064615a12565b6004890154613923919060020b6159c7565b6040518463ffffffff1660e01b815260040161394193929190615a31565b5f604051808303815f87803b158015613958575f80fd5b505af115801561396a573d5f803e3d5ffd5b5050505050505050565b5f6134b2836001600160a01b0316836001600160a01b0316808218908210021890565b5f6134b2836001600160801b0316836001600160801b0316808218908211021890565b5f6134b26001600160801b03841683613443565b5f806139d86130c4565b604080516101c08101825282546001600160a01b039081168083526001850154821660208401526002808601548316848601526003860154606085015260048087015480830b608087015263010000008104830b60a0870152600160301b9004841660c08601526005870154841660e08601526006870154938416610100860152600160a01b8404820b610120860152600160b81b909304900b610140840152600785015461016084015260088501546101808401526009909401546101a08301529151632fcc4dd960e21b81529093505f929163bf31376491613abe91859101615622565b6040805180830381865afa158015613ad8573d5f803e3d5ffd5b505050506040513d601f19601f82011682018060405250810190613afc919061596e565b90505f825f01516001600160a01b031663bf31376460016040518263ffffffff1660e01b8152600401613b2f9190615622565b6040805180830381865afa158015613b49573d5f803e3d5ffd5b505050506040513d601f19601f82011682018060405250810190613b6d919061596e565b90505f8360c001516001600160a01b0316633850c7bd6040518163ffffffff1660e01b815260040160e060405180830381865afa158015613bb0573d5f803e3d5ffd5b505050506040513d601f19601f82011682018060405250810190613bd4919061583a565b50505050509150505f613be56152c8565b90508160020b8160020b138015613c045750825f015160020b8160020b135b8015613c1a57508460a0015160020b8160020b12155b801561151d5750836020015160020b8160020b12159550505050505090565b5f80613c436130c4565b604080516101c08101825282546001600160a01b0390811682526001840154811660208301526002808501548216838501526003850154606084015260048086015480830b608086015263010000008104830b60a0860152600160301b9004831660c085018190526005870154841660e0808701919091526006880154948516610100870152600160a01b8504840b610120870152600160b81b90940490920b610140850152600786015461016085015260088601546101808501526009909501546101a08401528351633850c7bd60e01b815293519295505f949093633850c7bd93818301939290918290030181865afa158015613d44573d5f803e3d5ffd5b505050506040513d601f19601f82011682018060405250810190613d68919061583a565b50508651604051632fcc4dd960e21b81529496505f95506001600160a01b03169363bf3137649350613da09250859150600401615622565b6040805180830381865afa158015613dba573d5f803e3d5ffd5b505050506040513d601f19601f82011682018060405250810190613dde919061596e565b90505f835f01516001600160a01b031663bf31376460016040518263ffffffff1660e01b8152600401613e119190615622565b6040805180830381865afa158015613e2b573d5f803e3d5ffd5b505050506040513d601f19601f82011682018060405250810190613e4f919061596e565b90505f8461012001518360200151613e6791906159c7565b90508461012001518260200151613e7e9190615588565b60020b8160020b1380613e9657508360020b8160020b135b80613eaa57508460a0015160020b8160020b135b15613eba575f9550505050505090565b84516020840151604051635f9b2d7160e11b81526001600160a01b039092169163bf365ae291613ef1915f91908690600401615a31565b5f604051808303815f87803b158015613f08575f80fd5b505af1158015613f1a573d5f803e3d5ffd5b50505050845f01516001600160a01b031663bf365ae26001613f3f84865f01516152b1565b85602001516040518463ffffffff1660e01b8152600401613f6293929190615a31565b5f604051808303815f87803b158015613f79575f80fd5b505af1158015613f8b573d5f803e3d5ffd5b5050505060019550505050505090565b6001600160801b03811160071b81811c67ffffffffffffffff1060061b1781811c63ffffffff1060051b1781811c61ffff1060041b1781811c60ff1060031b175f8213613fef57631615e6385f526004601cfd5b7ff8f9f9faf9fdfafbf9fdfcfdfafbfcfef9fafdfafcfcfbfefafafcfbffffffff6f8421084210842108cc6318c6db6d54be83831c1c601f161a1890811b609f90811c6c465772b2bbbb5f824b15207a3081018102606090811d6d0388eaa27412d5aca026815d636e018202811d6d0df99ac502031bf953eff472fdcc018202811d6d13cdffb29d51d99322bdff5f2211018202811d6d0a0f742023def783a307a986912e018202811d6d01920d8043ca89b5239253284e42018202811d6c0b7a86d7375468fac667a0a527016c29508e458543d8aa4df2abee7883018302821d6d0139601a2efabe717e604cbb4894018302821d6d02247f7a7b6594320649aa03aba1018302821d6c8c3f38e95a6b1ff2ab1c3b343619018302821d6d02384773bdf1ac5676facced60901901830290911d6cb9a025d814b29c212b8b1a07cd19019091027ffffffffffffffff5f6af8f7b3396644f18e157960000000000000000000000000105711340daa0d5f769dba1915cef59f0815a5506029190037d0267a36c0c95b3975ab3ee5b203a7614a3f75373f047d803ae7b6687f2b302017d57115e47018c7177eebf7cd370a3356a1b7863008a5ae8028c72b88642840160ae1d90565b5f81600f81900b81146130be576130be615464565b604080516003808252608082019092526060916020820183803683370190505090506142156040518060400160405260078152806020016642504f4f4c763160c81b8152506130b4565b815f8151811061422757614227615a59565b60200260200101818152505061425b604051806040016040526007815280602001664352454454763160c81b8152506130b4565b8160018151811061426e5761426e615a59565b6020026020010181815250506142a2604051806040016040526007815280602001664c4f4f5053763160c81b8152506130b4565b816002815181106142b5576142b5615a59565b6020026020010181815250505f6142ca6130c4565b8054604080516316f0115b60e01b815290519293506001600160a01b03909116916316f0115b916004808201926020929091908290030181865afa158015614314573d5f803e3d5ffd5b505050506040513d601f19601f820116820180604052508101906143389190615a6d565b600482810180547fffffffffffff0000000000000000000000000000000000000000ffffffffffff16600160301b6001600160a01b03948516021790558254604080516346ca626b60e01b8152905191909316926346ca626b92818101926020929091908290030181865afa1580156143b3573d5f803e3d5ffd5b505050506040513d601f19601f820116820180604052508101906143d79190615955565b60068201805462ffffff92909216600160a01b0262ffffff60a01b1990921691909117905560048082015460408051633850c7bd60e01b815290515f9384936001600160a01b03600160301b9091041692633850c7bd928183019260e0928290030181865afa15801561444c573d5f803e3d5ffd5b505050506040513d601f19601f82011682018060405250810190614470919061583a565b505050505091509150816001600160a01b03165f036144a2576040516314e2ff0f60e21b815260040160405180910390fd5b8254604051632fcc4dd960e21b81525f916001600160a01b03169063bf313764906144d290600190600401615622565b6040805180830381865afa1580156144ec573d5f803e3d5ffd5b505050506040513d601f19601f82011682018060405250810190614510919061596e565b805190915060020b1580159061452c5750602081015160020b15155b80156145545750805f015160020b8260020b12806145545750806020015160020b8260020b12155b156145725760405163d88497bf60e01b815260040160405180910390fd5b83546040805163669949ef60e11b815290516001600160a01b039092169163cd3293de916004808201926020929091908290030181865afa1580156145b9573d5f803e3d5ffd5b505050506040513d601f19601f820116820180604052508101906145dd9190615a6d565b6005850180546001600160a01b0319166001600160a01b03928316179055845460408051630c07ac2160e11b81529051919092169163180f58429160048083019260209291908290030181865afa15801561463a573d5f803e3d5ffd5b505050506040513d601f19601f8201168201806040525081019061465e9190615a6d565b6006850180546001600160a01b0319166001600160a01b0392831617905584546040805163669949ef60e11b81529051919092169163cd3293de9160048083019260209291908290030181865afa1580156146bb573d5f803e3d5ffd5b505050506040513d601f19601f820116820180604052508101906146df9190615a6d565b845460405163095ea7b360e01b81526001600160a01b0391821660048201525f19602482015291169063095ea7b3906044016020604051808303815f875af115801561472d573d5f803e3d5ffd5b505050506040513d601f19601f82011682018060405250810190614751919061555b565b50835460408051630c07ac2160e11b815290516001600160a01b039092169163180f5842916004808201926020929091908290030181865afa158015614799573d5f803e3d5ffd5b505050506040513d601f19601f820116820180604052508101906147bd9190615a6d565b845460405163095ea7b360e01b81526001600160a01b0391821660048201525f19602482015291169063095ea7b3906044016020604051808303815f875af115801561480b573d5f803e3d5ffd5b505050506040513d601f19601f8201168201806040525081019061482f919061555b565b50835460408051635668e65360e11b815290515f926001600160a01b03169163acd1cca69160048083019260209291908290030181865afa158015614876573d5f803e3d5ffd5b505050506040513d601f19601f8201168201806040525081019061489a9190615955565b600486018054630100000062ffffff90931692830265ffffffffffff199091169092179190911790555050426003909301929092555090919050565b5f3090505f816001600160a01b031663b74795d96040518163ffffffff1660e01b8152600401602060405180830381865afa158015614917573d5f803e3d5ffd5b505050506040513d601f19601f8201168201806040525081019061493b9190615a6d565b604051635fa32f5760e01b8152631253925560e21b60048201526001600160a01b039190911690635fa32f57906024015f60405180830381865afa158015614985573d5f803e3d5ffd5b505050506040513d5f823e601f3d908101601f191682016040526149ac9190810190615a88565b8060200190518101906149bf9190615b4a565b90505f6149ca6130c4565b60e0929092015161ffff166007830155508054306001600160a01b03199182168117835560018301805483168217905560028301805490921617905560068101805462ffffff60b81b1916602360b81b1790556201518060088201556702c68af0bb14000060099091015550565b606080600480614a4781615c4a565b915067ffffffffffffffff811115614a6157614a61615630565b604051908082528060200260200182016040528015614a8a578160200160208202803683370190505b5092506368110b2f60e01b8382614aa081615c4a565b935081518110614ab257614ab2615a59565b6001600160e01b03199092166020928302919091019091015263f751cd8f60e01b8382614ade81615c4a565b935081518110614af057614af0615a59565b6001600160e01b031990921660209283029190910190910152631afd520b60e11b8382614b1c81615c4a565b935081518110614b2e57614b2e615a59565b6001600160e01b031990921660209283029190910190910152825163982f3bfd60e01b90849083908110614b6457614b64615a59565b6001600160e01b031990921660209283029190910190910152601080614b8981615c4a565b915067ffffffffffffffff811115614ba357614ba3615630565b604051908082528060200260200182016040528015614bcc578160200160208202803683370190505b509250634d601e1b60e01b8382614be281615c4a565b935081518110614bf457614bf4615a59565b6001600160e01b03199092166020928302919091019091015263c83eec9160e01b8382614c2081615c4a565b935081518110614c3257614c32615a59565b6001600160e01b031990921660209283029190910190910152634225b42360e11b8382614c5e81615c4a565b935081518110614c7057614c70615a59565b6001600160e01b03199092166020928302919091019091015263473599c560e01b8382614c9c81615c4a565b935081518110614cae57614cae615a59565b6001600160e01b03199092166020928302919091019091015263554f8d2960e11b8382614cda81615c4a565b935081518110614cec57614cec615a59565b6001600160e01b031990921660209283029190910190910152634da16b5960e01b8382614d1881615c4a565b935081518110614d2a57614d2a615a59565b6001600160e01b031990921660209283029190910190910152632624eaef60e01b8382614d5681615c4a565b935081518110614d6857614d68615a59565b6001600160e01b03199092166020928302919091019091015263bf181e8b60e01b8382614d9481615c4a565b935081518110614da657614da6615a59565b6001600160e01b0319909216602092830291909101909101526306ced8cd60e41b8382614dd281615c4a565b935081518110614de457614de4615a59565b6001600160e01b031990921660209283029190910190910152630ac85dcf60e21b8382614e1081615c4a565b935081518110614e2257614e22615a59565b6001600160e01b0319909216602092830291909101909101526360b07fa760e01b8382614e4e81615c4a565b935081518110614e6057614e60615a59565b6001600160e01b03199092166020928302919091019091015263524a9d1160e01b8382614e8c81615c4a565b935081518110614e9e57614e9e615a59565b6001600160e01b031990921660209283029190910190910152630db8dfb760e11b8382614eca81615c4a565b935081518110614edc57614edc615a59565b6001600160e01b03199092166020928302919091019091015263442c18f360e01b8382614f0881615c4a565b935081518110614f1a57614f1a615a59565b6001600160e01b031990921660209283029190910190910152632b112e4960e01b8382614f4681615c4a565b935081518110614f5857614f58615a59565b6001600160e01b0319909216602092830291909101909101528251637edc171360e01b90849083908110614f8e57614f8e615a59565b6001600160e01b0319909216602092830291909101909101528115614ffa5760405162461bcd60e51b815260206004820152601060248201527f6261642063616c6c7320636f6e6669670000000000000000000000000000000060448201526064015b60405180910390fd5b80156150485760405162461bcd60e51b815260206004820152601060248201527f62616420766965777320636f6e666967000000000000000000000000000000006044820152606401614ff1565b50509091565b5f6150576130c4565b8054604051632fcc4dd960e21b81529192505f916001600160a01b039091169063bf3137649061508c90600190600401615622565b6040805180830381865afa1580156150a6573d5f803e3d5ffd5b505050506040513d601f19601f820116820180604052508101906150ca919061596e565b90506150d46152c8565b6004838101805462ffffff191662ffffff93909316929092179182905583548351604051635f9b2d7160e11b81526001600160a01b039092169363bf365ae293615126936001939260020b9101615a31565b5f604051808303815f87803b15801561513d575f80fd5b505af115801561514f573d5f803e3d5ffd5b50508354600485015460068601546001600160a01b03909216935063bf365ae2925060029190820b9061518c90600160a01b9004830b6064615a12565b600487015461519e919060020b6159c7565b6040518463ffffffff1660e01b81526004016151bc93929190615a31565b5f604051808303815f87803b1580156151d3575f80fd5b505af11580156151e5573d5f803e3d5ffd5b505050505050565b5f80805f19858709858702925082811083820303915050805f03615221575f8411615216575f80fd5b5082900490506134b2565b80841161522c575f80fd5b5f848688095f868103871696879004966002600389028118808a02820302808a02820302808a02820302808a02820302808a02820302808a02909103029181900381900460010186841190950394909402919094039290920491909117919091029150509392505050565b806001600160801b03811681146152ac575f80fd5b919050565b5f6134b28360020b8360020b808218908212021890565b5f806152d26130c4565b604080516101c08101825282546001600160a01b03908116808352600185015482166020808501919091526002808701548416858701526003870154606086015260048088015480830b608088015263010000008104830b60a0880152600160301b9004851660c08701526005880154851660e08701526006880154948516610100870152600160a01b8504820b610120870152600160b81b909404900b610140850152600786015461016085015260088601546101808501526009909501546101a08401528351635668e65360e11b815293519295505f94909363acd1cca6938184019390918290030181865afa1580156153d0573d5f803e3d5ffd5b505050506040513d601f19601f820116820180604052508101906153f49190615955565b90505f826101200151826154089190615c5f565b83608001516154179190615588565b62ffffff1690505f615437846101a001518361344390919063ffffffff16565b6154429060016159c7565b9050836101200151816154559190615a12565b846080015161053a9190615588565b6335278d125f526004601cfd5b5f60208284031215615481575f80fd5b81356001600160e01b0319811681146134b2575f80fd5b602080825282518282018190525f9190848201906040850190845b818110156154cf578351835292840192918401916001016154b3565b50909695505050505050565b5f815180845260208085019450602084015f5b838110156155145781516001600160e01b031916875295820195908201906001016154ee565b509495945050505050565b604081525f61553160408301856154db565b828103602084015261554381856154db565b95945050505050565b805180151581146152ac575f80fd5b5f6020828403121561556b575f80fd5b6134b28261554c565b634e487b7160e01b5f52601160045260245ffd5b600282810b9082900b03627fffff198112627fffff821317156130be576130be615574565b80820281158282048414176130be576130be615574565b634e487b7160e01b5f52601260045260245ffd5b5f826155e6576155e66155c4565b500490565b5f602082840312156155fb575f80fd5b5051919050565b6003811061561e57634e487b7160e01b5f52602160045260245ffd5b9052565b602081016130be8284615602565b634e487b7160e01b5f52604160045260245ffd5b6040516101c0810167ffffffffffffffff8111828210171561566857615668615630565b60405290565b604051601f8201601f1916810167ffffffffffffffff8111828210171561569757615697615630565b604052919050565b80516001600160801b03811681146152ac575f80fd5b6001600160a01b03811681146156c9575f80fd5b50565b5f60c082840312156156dc575f80fd5b60405160c0810181811067ffffffffffffffff821117156156ff576156ff615630565b60405261570b8361569f565b8152602083015161571b816156b5565b6020820152604083015161572e816156b5565b80604083015250606083015160608201526080830151608082015260a083015160a08201528091505092915050565b818103818111156130be576130be615574565b5f60208284031215615780575f80fd5b6134b28261569f565b808201808211156130be576130be615574565b5f805f80608085870312156157af575f80fd5b505082516020840151604085015160609095015191969095509092509050565b6001600160801b038281168282160390808211156157ef576157ef615574565b5092915050565b5f8060408385031215615807575f80fd5b505080516020909101519092909150565b8051600281900b81146152ac575f80fd5b805161ffff811681146152ac575f80fd5b5f805f805f805f60e0888a031215615850575f80fd5b875161585b816156b5565b965061586960208901615818565b955061587760408901615829565b945061588560608901615829565b935061589360808901615829565b925060a088015160ff811681146158a8575f80fd5b91506158b660c0890161554c565b905092959891949750929550565b6001600160801b038181168382160190808211156157ef576157ef615574565b604081016158f28285615602565b6001600160801b03831660208301529392505050565b5f805f6060848603121561591a575f80fd5b83519250602084015191506159316040850161569f565b90509250925092565b604081016159488285615602565b8260208301529392505050565b5f60208284031215615965575f80fd5b6134b282615818565b5f6040828403121561597e575f80fd5b6040516040810181811067ffffffffffffffff821117156159a1576159a1615630565b6040526159ad83615818565b81526159bb60208401615818565b60208201529392505050565b600281810b9083900b01627fffff8113627fffff19821217156130be576130be615574565b80516020808301519190811015615a0c575f198160200360031b1b821691505b50919050565b5f8260020b8260020b028060020b91508082146157ef576157ef615574565b60608101615a3f8286615602565b8360020b60208301528260020b6040830152949350505050565b634e487b7160e01b5f52603260045260245ffd5b5f60208284031215615a7d575f80fd5b81516134b2816156b5565b5f6020808385031215615a99575f80fd5b825167ffffffffffffffff80821115615ab0575f80fd5b818501915085601f830112615ac3575f80fd5b815181811115615ad557615ad5615630565b615ae7601f8201601f1916850161566e565b91508082528684828501011115615afc575f80fd5b5f5b81811015615b19578381018501518382018601528401615afe565b505f90820190930192909252509392505050565b80516152ac816156b5565b805162ffffff811681146152ac575f80fd5b5f6101c08284031215615b5b575f80fd5b615b63615644565b615b6c83615b2d565b8152615b7a60208401615b2d565b6020820152615b8b60408401615b38565b6040820152615b9c60608401615b2d565b6060820152615bad60808401615b2d565b608082015260a083015160a082015260c083015160c0820152615bd260e08401615829565b60e0820152610100615be5818501615818565b90820152610120615bf7848201615818565b90820152610140615c09848201615818565b90820152610160615c1b848201615818565b90820152610180615c2d84820161569f565b908201526101a0615c3f84820161569f565b908201529392505050565b5f81615c5857615c58615574565b505f190190565b5f8160020b8360020b80615c7557615c756155c4565b627fffff1982145f1982141615615c8e57615c8e615574565b9005939250505056fea26469706673582212206e078d81e8d48737b4d3ad4552345338fb0321e876b3a0c9c1c3a6345a84d46764736f6c63430008170033","linkReferences":{}},"methodIdentifiers":{"ANCHOR_WIDTH()":"bf181e8b","DISCOVERY_WIDTH()":"473599c5","DISC_DECAY_FACTOR()":"60b07fa7","DROP_PERIOD()":"2b21773c","INIT_SLOT()":"43cdab2f","LABEL()":"0f38d8c3","LIQ_THICKNESS()":"6ced8cd0","VERSION()":"ffa1ad74","bump()":"68110b2f","canDrop()":"4d601e1b","canSlide()":"844b6846","canSweep()":"c83eec91","configureDependencies()":"9459b875","drop()":"f751cd8f","getCirculatingSupply()":"2b112e49","getCurrentThreshold()":"1b71bf6e","getLiquiditySpread()":"7edc1713","getRebalanceTicks()":"524a9d11","getTotalCapacity()":"442c18f3","initializeComponent()":"9d8a307b","isInstalled()":"04c785bc","isMutable()":"7a393205","lastDropTimestamp()":"aa9f1a52","requestRoutes()":"f55b134e","slide()":"982f3bfd","slideTick()":"2624eaef","supportsInterface(bytes4)":"01ffc9a7","sweep()":"35faa416","sweepTick()":"4da16b59"},"id":56}