{"abi":[{"type":"function","name":"DOMAIN_SEPARATOR","inputs":[],"outputs":[{"name":"","type":"bytes32","internalType":"bytes32"}],"stateMutability":"view"},{"type":"function","name":"allowance","inputs":[{"name":"owner","type":"address","internalType":"address"},{"name":"spender","type":"address","internalType":"address"}],"outputs":[{"name":"","type":"uint256","internalType":"uint256"}],"stateMutability":"view"},{"type":"function","name":"approve","inputs":[{"name":"spender","type":"address","internalType":"address"},{"name":"amount","type":"uint256","internalType":"uint256"}],"outputs":[{"name":"","type":"bool","internalType":"bool"}],"stateMutability":"nonpayable"},{"type":"function","name":"balanceOf","inputs":[{"name":"owner","type":"address","internalType":"address"}],"outputs":[{"name":"","type":"uint256","internalType":"uint256"}],"stateMutability":"view"},{"type":"function","name":"decimals","inputs":[],"outputs":[{"name":"","type":"uint8","internalType":"uint8"}],"stateMutability":"view"},{"type":"function","name":"initialize","inputs":[{"name":"name_","type":"string","internalType":"string"},{"name":"symbol_","type":"string","internalType":"string"},{"name":"decimals_","type":"uint8","internalType":"uint8"}],"outputs":[],"stateMutability":"nonpayable"},{"type":"function","name":"name","inputs":[],"outputs":[{"name":"","type":"string","internalType":"string"}],"stateMutability":"view"},{"type":"function","name":"nonces","inputs":[{"name":"","type":"address","internalType":"address"}],"outputs":[{"name":"","type":"uint256","internalType":"uint256"}],"stateMutability":"view"},{"type":"function","name":"permit","inputs":[{"name":"owner","type":"address","internalType":"address"},{"name":"spender","type":"address","internalType":"address"},{"name":"value","type":"uint256","internalType":"uint256"},{"name":"deadline","type":"uint256","internalType":"uint256"},{"name":"v","type":"uint8","internalType":"uint8"},{"name":"r","type":"bytes32","internalType":"bytes32"},{"name":"s","type":"bytes32","internalType":"bytes32"}],"outputs":[],"stateMutability":"nonpayable"},{"type":"function","name":"symbol","inputs":[],"outputs":[{"name":"","type":"string","internalType":"string"}],"stateMutability":"view"},{"type":"function","name":"totalSupply","inputs":[],"outputs":[{"name":"","type":"uint256","internalType":"uint256"}],"stateMutability":"view"},{"type":"function","name":"transfer","inputs":[{"name":"to","type":"address","internalType":"address"},{"name":"amount","type":"uint256","internalType":"uint256"}],"outputs":[{"name":"","type":"bool","internalType":"bool"}],"stateMutability":"nonpayable"},{"type":"function","name":"transferFrom","inputs":[{"name":"from","type":"address","internalType":"address"},{"name":"to","type":"address","internalType":"address"},{"name":"amount","type":"uint256","internalType":"uint256"}],"outputs":[{"name":"","type":"bool","internalType":"bool"}],"stateMutability":"nonpayable"},{"type":"event","name":"Approval","inputs":[{"name":"owner","type":"address","indexed":true,"internalType":"address"},{"name":"spender","type":"address","indexed":true,"internalType":"address"},{"name":"value","type":"uint256","indexed":false,"internalType":"uint256"}],"anonymous":false},{"type":"event","name":"Transfer","inputs":[{"name":"from","type":"address","indexed":true,"internalType":"address"},{"name":"to","type":"address","indexed":true,"internalType":"address"},{"name":"value","type":"uint256","indexed":false,"internalType":"uint256"}],"anonymous":false}],"bytecode":{"object":"0x608060405234801561000f575f80fd5b50610e528061001d5f395ff3fe608060405234801561000f575f80fd5b50600436106100da575f3560e01c80633644e5151161008857806395d89b411161006357806395d89b41146101bd578063a9059cbb146101c5578063d505accf146101d8578063dd62ed3e146101eb575f80fd5b80633644e5151461016e57806370a08231146101765780637ecebe001461019e575f80fd5b806318160ddd116100b857806318160ddd1461013457806323b872dd14610146578063313ce56714610159575f80fd5b806306fdde03146100de578063095ea7b3146100fc5780631624f6c61461011f575b5f80fd5b6100e6610223565b6040516100f39190610981565b60405180910390f35b61010f61010a3660046109e8565b6102b2565b60405190151581526020016100f3565b61013261012d366004610abd565b61031e565b005b6003545b6040519081526020016100f3565b61010f610154366004610b2c565b6103c6565b60025460405160ff90911681526020016100f3565b6101386104d5565b610138610184366004610b65565b6001600160a01b03165f9081526004602052604090205490565b6101386101ac366004610b65565b60086020525f908152604090205481565b6100e66104fa565b61010f6101d33660046109e8565b610509565b6101326101e6366004610b7e565b61059d565b6101386101f9366004610be3565b6001600160a01b039182165f90815260056020908152604080832093909416825291909152205490565b60605f805461023190610c14565b80601f016020809104026020016040519081016040528092919081815260200182805461025d90610c14565b80156102a85780601f1061027f576101008083540402835291602001916102a8565b820191905f5260205f20905b81548152906001019060200180831161028b57829003601f168201915b5050505050905090565b335f8181526005602090815260408083206001600160a01b038716808552925280832085905551919290917f8c5be1e5ebec7d5bd14f71427d1e84f3dd0314c0f7b2291e5b200ac8c7c3b9259061030c9086815260200190565b60405180910390a35060015b92915050565b60095460ff16156103765760405162461bcd60e51b815260206004820152601360248201527f414c52454144595f494e495449414c495a45440000000000000000000000000060448201526064015b60405180910390fd5b5f6103818482610c98565b50600161038e8382610c98565b506002805460ff191660ff83161790556103a6610804565b6006556103b161081c565b60075550506009805460ff1916600117905550565b6001600160a01b0383165f9081526005602090815260408083203384529091528120545f19811461041f576103fb81846108bd565b6001600160a01b0386165f9081526005602090815260408083203384529091529020555b6001600160a01b0385165f9081526004602052604090205461044190846108bd565b6001600160a01b038087165f90815260046020526040808220939093559086168152205461046f908461091f565b6001600160a01b038086165f8181526004602052604090819020939093559151908716907fddf252ad1be2c89b69c2b068fc378daa952ba7f163c4a11628f55a4df523b3ef906104c29087815260200190565b60405180910390a3506001949350505050565b5f6006546104e1610804565b146104f3576104ee61081c565b905090565b5060075490565b60606001805461023190610c14565b335f9081526004602052604081205461052290836108bd565b335f90815260046020526040808220929092556001600160a01b0385168152205461054d908361091f565b6001600160a01b0384165f818152600460205260409081902092909255905133907fddf252ad1be2c89b69c2b068fc378daa952ba7f163c4a11628f55a4df523b3ef9061030c9086815260200190565b428410156105ed5760405162461bcd60e51b815260206004820152601760248201527f5045524d49545f444541444c494e455f45585049524544000000000000000000604482015260640161036d565b5f60016105f86104d5565b6001600160a01b038a165f90815260086020526040812080547f6e71edae12b1b97f4d1f60370fef10105fa2faae0126114a169c64845d6126c9928d928d928d9290919061064583610d6c565b909155506040805160208101969096526001600160a01b0394851690860152929091166060840152608083015260a082015260c0810188905260e001604051602081830303815290604052805190602001206040516020016106be92919061190160f01b81526002810192909252602282015260420190565b60408051601f1981840301815282825280516020918201205f84529083018083525260ff871690820152606081018590526080810184905260a0016020604051602081039080840390855afa158015610719573d5f803e3d5ffd5b5050604051601f1901519150506001600160a01b0381161580159061074f5750876001600160a01b0316816001600160a01b0316145b61079b5760405162461bcd60e51b815260206004820152600e60248201527f494e56414c49445f5349474e4552000000000000000000000000000000000000604482015260640161036d565b6001600160a01b038181165f9081526005602090815260408083208b8516808552908352928190208a90555189815291928b16917f8c5be1e5ebec7d5bd14f71427d1e84f3dd0314c0f7b2291e5b200ac8c7c3b925910160405180910390a35050505050505050565b5f61097d8061081563ffffffff8216565b9250505090565b5f7f8b73c3c69bb8fe3d512ecc4cf759cc79239f7b179b0ffacaa9a75d522b39400f5f60405161084c9190610d84565b60405180910390207fc89efdaa54c0f20c7adf612882df0950f5a951637e0307cdcb4c672f298b8bc661087d610804565b604080516020810195909552840192909252606083015260808201523060a082015260c00160405160208183030381529060405280519060200120905090565b5f8183101561090e5760405162461bcd60e51b815260206004820152601c60248201527f45524332303a207375627472616374696f6e20756e646572666c6f7700000000604482015260640161036d565b6109188284610df6565b9392505050565b5f8061092b8385610e09565b9050838110156109185760405162461bcd60e51b815260206004820152601860248201527f45524332303a206164646974696f6e206f766572666c6f770000000000000000604482015260640161036d565b4690565b5f602080835283518060208501525f5b818110156109ad57858101830151858201604001528201610991565b505f604082860101526040601f19601f8301168501019250505092915050565b80356001600160a01b03811681146109e3575f80fd5b919050565b5f80604083850312156109f9575f80fd5b610a02836109cd565b946020939093013593505050565b634e487b7160e01b5f52604160045260245ffd5b5f82601f830112610a33575f80fd5b813567ffffffffffffffff80821115610a4e57610a4e610a10565b604051601f8301601f19908116603f01168101908282118183101715610a7657610a76610a10565b81604052838152866020858801011115610a8e575f80fd5b836020870160208301375f602085830101528094505050505092915050565b803560ff811681146109e3575f80fd5b5f805f60608486031215610acf575f80fd5b833567ffffffffffffffff80821115610ae6575f80fd5b610af287838801610a24565b94506020860135915080821115610b07575f80fd5b50610b1486828701610a24565b925050610b2360408501610aad565b90509250925092565b5f805f60608486031215610b3e575f80fd5b610b47846109cd565b9250610b55602085016109cd565b9150604084013590509250925092565b5f60208284031215610b75575f80fd5b610918826109cd565b5f805f805f805f60e0888a031215610b94575f80fd5b610b9d886109cd565b9650610bab602089016109cd565b95506040880135945060608801359350610bc760808901610aad565b925060a0880135915060c0880135905092959891949750929550565b5f8060408385031215610bf4575f80fd5b610bfd836109cd565b9150610c0b602084016109cd565b90509250929050565b600181811c90821680610c2857607f821691505b602082108103610c4657634e487b7160e01b5f52602260045260245ffd5b50919050565b601f821115610c9357805f5260205f20601f840160051c81016020851015610c715750805b601f840160051c820191505b81811015610c90575f8155600101610c7d565b50505b505050565b815167ffffffffffffffff811115610cb257610cb2610a10565b610cc681610cc08454610c14565b84610c4c565b602080601f831160018114610cf9575f8415610ce25750858301515b5f19600386901b1c1916600185901b178555610d50565b5f85815260208120601f198616915b82811015610d2757888601518255948401946001909101908401610d08565b5085821015610d4457878501515f19600388901b60f8161c191681555b505060018460011b0185555b505050505050565b634e487b7160e01b5f52601160045260245ffd5b5f60018201610d7d57610d7d610d58565b5060010190565b5f808354610d9181610c14565b60018281168015610da95760018114610dbe57610dea565b60ff1984168752821515830287019450610dea565b875f526020805f205f5b85811015610de15781548a820152908401908201610dc8565b50505082870194505b50929695505050505050565b8181038181111561031857610318610d58565b8082018082111561031857610318610d5856fea2646970667358221220876f44396c43cbdc1fedd36d1f63ebee99865d8430fbb98ee24efa0879a8f1dc64736f6c63430008170033","linkReferences":{}},"methodIdentifiers":{"DOMAIN_SEPARATOR()":"3644e515","allowance(address,address)":"dd62ed3e","approve(address,uint256)":"095ea7b3","balanceOf(address)":"70a08231","decimals()":"313ce567","initialize(string,string,uint8)":"1624f6c6","name()":"06fdde03","nonces(address)":"7ecebe00","permit(address,address,uint256,uint256,uint8,bytes32,bytes32)":"d505accf","symbol()":"95d89b41","totalSupply()":"18160ddd","transfer(address,uint256)":"a9059cbb","transferFrom(address,address,uint256)":"23b872dd"},"id":16}